:020000040800F2
:1000000000500020C90D0008110D0008190D00084E
:10001000210D0008290D0008310D00080000000026
:10002000000000000000000000000000C172000895
:10003000390D000800000000A1740008450D0008FB
:10004000110E0008110E0008110E0008110E000814
:10005000110E00085F0D0008110E0008110E0008B7
:10006000110E0008110E0008110E0008110E0008F4
:10007000110E0008110E0008110E0008110E0008E4
:10008000110E0008110E0008110E0008110E0008D4
:10009000110E0008110E0008110E0008110E0008C4
:1000A000110E0008110E0008110E0008110E0008B4
:1000B0006D0D0008110E0008110E0008810D0008DA
:1000C000950D0008110E0008110E0008110E000811
:1000D000110E0008110E0008A90D0008110E0008ED
:1000E000110E0008110E0008110E0008000000009B
:1000F0000000000000000000000000000000000000
:0C01000000000000000000005FF808F1A3
:1001100010B5054C237833B9044B13B10448AFF341
:1001200000800123237010BD10000020000000009B
:100130003C7A000808B5034B1BB103490348AFF3F1
:10014000008008BD00000000140000203C7A000878
:1001500080B500AF00F05EFE00F048F800F030F926
:1001600000F08AF800F0B6F800F000F9134B1B8895
:100170001A46134B134401221946124804F04FF952
:1001800004F010FF104A0021104804F053FF03460A
:100190000F4A13600F4A00210F4804F04BFF03463B
:1001A0000E4A13600E4A00210E4804F043FF034636
:1001B0000D4A136004F018FF00BFFDE71C03002088
:1001C0001C010020C8000020607D0008010A000812
:1001D00010010020847D0008D50A000814010020C9
:1001E000A87D0008EB0A00081801002080B590B037
:1001F00000AF07F1180328220021184607F0E4FB9E
:100200003B1D00221A605A609A60DA601A6101236D
:10021000BB614FF48033FB6100233B620123BB626F
:1002200002237B634FF48033BB634FF4E013FB6323
:1002300007F11803184603F05FF80346002B01D0BE
:1002400000F05BFC0F237B600223BB600023FB609C
:100250004FF480633B6100237B613B1D0221184604
:1002600003F0CCFA0346002B01D000F046FC00BF9F
:100270004037BD4680BD000080B500AF124B134A29
:100280001A60114B124A5A600F4B00229A600E4BB3
:100290000022DA600C4B4FF480421A610A4B0022B4
:1002A0005A61094B00229A61074B0022DA61064B22
:1002B00000221A62044801F0CDF90346002B01D058
:1002C00000F01BFC00BF80BD2C000020005400404B
:1002D000A086010080B586B000AF07F108030022B8
:1002E0001A605A609A60DA603B4600221A605A60CF
:1002F0001D4B4FF080421A601B4B00225A601A4B74
:1003000000229A60184B4FF6FF72DA60164B0022FB
:100310001A61154B00229A61134803F0FDFB034656
:10032000002B01D000F0E9FB4FF48053BB6007F1D4
:10033000080319460C4803F02EFD0346002B01D09C
:1003400000F0DBFB00233B6000237B603B4619464B
:10035000054803F019FF0346002B01D000F0CDFB48
:1003600000BF1837BD4680BD8000002080B500AFBB
:10037000114B124A1A60104B4FF416525A600E4B32
:1003800000229A600C4B0022DA600B4B00221A61AB
:10039000094B0C225A61084B00229A61064B00223D
:1003A000DA61054803F060FF0346002B01D000F03E
:1003B000A4FB00BF80BD00BFC80000200044004077
:1003C00080B588B000AF07F1100300221A605A60B0
:1003D0009A60DA602D4B9B692C4A43F010039361BD
:1003E0002A4B9B6903F01003FB60FB68274B9B695A
:1003F000264A43F020039361244B9B6903F02003BA
:10040000BB60BB68214B9B69204A43F004039361A6
:100410001E4B9B6903F004037B607B681B4B9B694D
:100420001A4A43F008039361184B9B6903F00803D1
:100430003B603B6800224FF46041154801F0D9F859
:1004400000221821134801F0D4F84FF460433B61B7
:1004500001237B610023BB610223FB6107F11003D1
:1004600019460B4800F02AFF18233B6101237B61EA
:100470000023BB610223FB6107F110031946054805
:1004800000F01CFF00BF2037BD4680BD00100240B9
:1004900000100140000C014080B582B000AF7860D0
:1004A0007B681B68104A934219D1104B1B8801339B
:1004B0009AB20E4B1A800D4B1B88FF2B02D90B4BA7
:1004C00000221A800A4B01221A70084B1B881A4618
:1004D000084B134401221946074803F0A0FF00BF50
:1004E0000837BD4680BD00BF004400401C0300200B
:1004F0001E0300201C010020C800002080B584B02D
:1005000000AF78600023FB8109E0FB897A681A4418
:10051000FB8911780E4AD154FB890133FB81FB8999
:100520007A6813441B78002B02D0FB89FE2BECD990
:10053000FB89074A0021D154FA894FF47A730449A0
:10054000044803F0E1FE00BF1037BD4680BD00BF88
:100550001C020020C800002080B584B000AF786085
:100560000B467B807B88002B00F03C827B681B78ED
:100570004C2B40F0B6807B6801331B78452B40F054
:10058000B0807B6802331B78442B40F0AA807B68E4
:1005900003331B78312B13D17B6804331B784F2B2B
:1005A0000ED17B6805331B784E2B09D101224FF405
:1005B0000041964801F01DF89548FFF79FFF8FE036
:1005C0007B6803331B78312B18D17B6804331B788D
:1005D0004F2B13D17B6805331B78462B0ED17B68DC
:1005E00006331B78462B09D100224FF4004187487F
:1005F00000F0FFFF8748FFF781FF71E07B6803335E
:100600001B78322B13D17B6804331B784F2B0ED110
:100610007B6805331B784E2B09D101224FF48041B2
:100620007A4800F0E6FF7C48FFF768FF58E07B68F7
:1006300003331B78322B18D17B6804331B784F2B84
:1006400013D17B6805331B78462B0ED17B680633AC
:100650001B78462B09D100224FF480416B4800F0F3
:10066000C8FF6E48FFF74AFF3AE07B6803331B7808
:10067000332B13D17B6804331B784F2B0ED17B684F
:1006800005331B784E2B09D101224FF400515F48EE
:1006900000F0AFFF6248FFF731FF21E07B680333D2
:1006A0001B78332B18D17B6804331B784F2B13D165
:1006B0007B6805331B78462B0ED17B6806331B788D
:1006C000462B09D100224FF40051504800F091FF11
:1006D0005448FFF713FF03E05348FFF70FFF81E192
:1006E00080E17B681B78482B33D17B6801331B7812
:1006F000452B2ED17B6802331B784C2B29D17B688C
:1007000003331B78502B24D14848FFF7F7FE4848A5
:10071000FFF7F4FE4748FFF7F1FE4748FFF7EEFE0C
:100720004648FFF7EBFE4648FFF7E8FE4548FFF76F
:10073000E5FE4548FFF7E2FE4448FFF7DFFE444888
:10074000FFF7DCFE4348FFF7D9FE4348FFF7D6FE2C
:1007500048E17B681B78532B40F090807B68013325
:100760001B78542B40F08A807B6802331B78412B26
:1007700040F084807B6803331B78542B7ED17B68E8
:1007800004331B78552B79D17B6805331B78532BA9
:1007900074D13248FFF7B2FE3148FFF7AFFE31485F
:1007A000FFF7ACFE3048FFF7A9FE4FF400411748B1
:1007B00000F008FF0346002B01D02C4B00E02C4B2F
:1007C0001846FFF79BFE2B48FFF798FE4FF4804139
:1007D0000E4800F0F7FE0346002B01D0234B00E04B
:1007E000234B1846FFF78AFE2348FFF787FE4FF496
:1007F0000051064800F0E6FE0346002B01D01B4BDB
:1008000000E01B4B1846FFF779FEEBE000100140BB
:100810007C7A0008887A0008947A0008A07A000898
:10082000AC7A0008B87A0008C47A0008DC7A0008BC
:10083000F47A00080C7B0008287B0008407B000845
:100840005C7B0008747B0008907B0008AC7B000890
:10085000CC7B0008E87B0008087C0008207C0008AE
:10086000347C0008507C0008647C00086C7C000824
:10087000747C00087C7C0008847C00087B681B7802
:10088000412B29D17B6801331B784C2B24D17B6809
:1008900002331B784C2B1FD17B6803331B784F2B03
:1008A0001AD17B6804331B784E2B15D101224FF4EB
:1008B00000414E4800F09DFE01224FF480414B481C
:1008C00000F097FE01224FF40051484800F091FEDD
:1008D0004748FFF713FE85E07B681B78412B2ED13C
:1008E0007B6801331B784C2B29D17B6802331B7842
:1008F0004C2B24D17B6803331B784F2B1FD17B6893
:1009000004331B78462B1AD17B6805331B78462BA2
:1009100015D100224FF40041344800F06AFE002255
:100920004FF48041314800F064FE00224FF4005142
:100930002E4800F05EFE2F48FFF7E0FD52E07B6896
:100940001B78422B4AD17B6801331B784C2B45D155
:100950007B6802331B78492B40D17B6803331B78BB
:100960004E2B3BD17B6804331B784B2B36D10023B5
:10097000FB602CE001224FF400411C4800F039FEDE
:1009800001224FF48041194800F033FE01224FF458
:100990000051164800F02DFEC82000F09DFA0022FC
:1009A0004FF40041114800F024FE00224FF4804132
:1009B0000E4800F01EFE00224FF400510B4800F0DC
:1009C00018FEC82000F088FAFB680133FB60FB6862
:1009D000042BCFDD0848FFF791FD03E00748FFF740
:1009E0008DFDFFE700BF1037BD4680BD0010014000
:1009F0008C7C00089C7C0008AC7C0008C87C00084B
:100A000080B58EB000AF786000237B6300237B86C7
:100A10002A48FFF773FD2A48FFF770FD294B1B7822
:100A2000002B36D0274B00221A70274B1B88002B37
:100A300003D0254B1B88013B00E0FF23234AD35CF6
:100A400087F8313097F831300D2B03D097F83130DB
:100A50000A2B12D17B8E002B1BD07B8E38333B446C
:100A6000002203F82C2C7A8E07F10C03114618464D
:100A7000FFF772FD00237B860BE07B8E1E2B08D8D0
:100A80007B8E5A1C7A8638333B4497F8312003F822
:100A90002C2C00F017FAF862FA6A7B6BD31A41F239
:100AA0008732934206D9FB6A7B634FF400410848C2
:100AB00000F0B7FD0A2004F04FFBAFE7007D00080F
:100AC000247D00081E0300201C0300201C010020C0
:100AD0000010014080B582B000AF7860012004F0C2
:100AE0003BFB00BF0837BD4680BD80B582B000AF7C
:100AF0007860012004F030FBFBE780B400AF72B6F1
:100B000000BF00BFFDE7000080B584B000AF1C4B04
:100B10009B691B4A43F001039361194B9B6903F0E6
:100B20000103BB60BB68164BDB69154A43F0805379
:100B3000D361134BDB6903F080537B607B68002239
:100B40000F216FF0010000F0C2FA002205210520FC
:100B500000F0BDFA052000F0D6FA0A4B5B68FB6096
:100B6000FB6823F0E063FB60FB6843F00073FB600D
:100B7000044AFB68536000BF1037BD4680BD00BF0C
:100B8000001002400000014080B588B000AF7860DE
:100B900007F1100300221A605A609A60DA607B68DD
:100BA0001B681D4A934233D11C4B9B691B4A43F07F
:100BB00008039361194B9B6903F00803FB60FB6812
:100BC000C0233B6112237B610323FB6107F1100308
:100BD0001946134800F072FB104BDB690F4A43F4CF
:100BE0000013D3610D4BDB6903F40013BB60BB68DA
:100BF000002205211F2000F06AFA1F2000F083FA6E
:100C000000220521202000F062FA202000F07BFA6B
:100C100000BF2037BD4680BD005400400010024098
:100C2000000C014080B584B000AF78607B681B6821
:100C3000B3F1804F13D10C4BDB690B4A43F0010336
:100C4000D361094BDB6903F00103FB60FB68002201
:100C500005211C2000F03BFA1C2000F054FA00BFD4
:100C60001037BD4680BD00BF0010024080B588B07F
:100C700000AF786007F1100300221A605A609A6092
:100C8000DA607B681B681F4A934237D11E4BDB69D1
:100C90001D4A43F40033D3611B4BDB6903F400337B
:100CA000FB60FB68184B9B69174A43F00403936190
:100CB000154B9B6903F00403BB60BB6804233B61D5
:100CC00002237B610323FB6107F1100319460F48E0
:100CD00000F0F4FA08233B6100237B610023BB6131
:100CE00007F110031946094800F0E8FA002205212F
:100CF000262000F0ECF9262000F005FA00BF20378E
:100D0000BD4680BD00440040001002400008014084
:100D100080B400AF00BFFDE780B400AF00BFFDE7C7
:100D200080B400AF00BFFDE780B400AF00BFFDE7B7
:100D300080B400AF00BFFDE780B400AF00BFBD4688
:100D400080BC704780B500AF00F0AAF805F022FE25
:100D50000346012B01D006F0C7FB00BF80BD80B465
:100D600000AF00BFBD4680BC7047000080B500AF3B
:100D7000024802F020FF00BF80BD00BF80000020BD
:100D800080B500AF024800F0BDFD00BF80BD00BFD0
:100D90002C00002080B500AF024800F024FF00BF07
:100DA00080BD00BF2C00002080B500AF024803F0DA
:100DB0005BFB00BF80BD00BFC800002080B400AF57
:100DC00000BFBD4680BC7047FFF7F8FF0B480C49D9
:100DD0000C4A002302E0D458C4500433C4188C4297
:100DE000F9D3094A094C002301E013600432A242FE
:100DF000FBD306F0F1FDFFF7ABF9704700000020D0
:100E000010000020007E000810000020741C00204C
:100E1000FEE7000080B500AF084B1B68074A43F0AF
:100E200010031360032000F047F90F2000F008F8CA
:100E3000FFF76AFE0023184680BD00BF0020024075
:100E400080B582B000AF7860124B1A68124B1B78E5
:100E500019464FF47A73B3FBF1F3B2FBF3F3184680
:100E600000F05FF90346002B01D001230EE07B6800
:100E70000F2B0AD8002279684FF0FF3000F027F9D5
:100E8000064A7B681360002300E0012318460837F8
:100E9000BD4680BD000000200800002004000020A6
:100EA00080B400AF054B1B781A46054B1B681344F2
:100EB000034A136000BFBD4680BC70470800002095
:100EC0002003002080B400AF024B1B681846BD46CB
:100ED00080BC70472003002080B584B000AF7860EC
:100EE000FFF7F0FFB8607B68FB60FB68B3F1FF3F82
:100EF00005D00A4B1B781A46FB681344FB6000BF01
:100F0000FFF7E0FF0246BB68D31AFA689A42F7D8A7
:100F100000BF00BF1037BD4680BD00BF08000020E5
:100F200080B485B000AF78607B6803F00703FB6096
:100F30000C4BDB68BB60BA684FF6FF031340BB6025
:100F4000FB681A02BB68134343F0BF6343F40033EA
:100F5000BB60044ABB68D36000BF1437BD4680BC89
:100F6000704700BF00ED00E080B400AF044BDB68C9
:100F70001B0A03F007031846BD4680BC704700BF3C
:100F800000ED00E080B483B000AF0346FB7197F939
:100F90000730002B0BDBFB7903F01F02064997F9A2
:100FA00007305B09012000FA02F241F8232000BF5C
:100FB0000C37BD4680BC704700E100E080B483B0D0
:100FC00000AF03463960FB7197F90730002B0ADB4D
:100FD0003B68DAB20C4997F907301201D2B20B44E0
:100FE00083F800230AE03B68DAB20849FB7903F092
:100FF0000F03043B1201D2B20B441A7600BF0C3728
:10100000BD4680BC704700BF00E100E000ED00E09D
:1010100080B489B000AFF860B9607A60FB6803F013
:101020000703FB61FB69C3F10703042B28BF0423FB
:10103000BB61FB690433062B02D9FB69033B00E06B
:1010400000237B614FF0FF32BB6902FA03F3DA43FE
:10105000BB681A407B699A404FF0FF317B6901FA07
:1010600003F3D9437B680B40134318462437BD462E
:1010700080BC704780B582B000AF78607B68013B70
:10108000B3F1807F01D301230FE00A4A7B68013B63
:1010900053600F214FF0FF30FFF790FF054B002208
:1010A0009A60044B07221A60002318460837BD4691
:1010B00080BD00BF10E000E080B582B000AF786076
:1010C0007868FFF72DFF00BF0837BD4680BD80B5AB
:1010D00086B000AF0346B9607A60FB7300237B6182
:1010E000FFF742FF78617A68B9687869FFF790FF87
:1010F000024697F90F3011461846FFF75FFF00BF11
:101100001837BD4680BD80B582B000AF0346FB7185
:1011100097F907301846FFF735FF00BF0837BD467F
:1011200080BD80B582B000AF78607868FFF7A2FF1D
:10113000034618460837BD4680BD80B485B000AF71
:1011400078600023FB737B6893F82130DBB2022BBD
:1011500008D07B6804229A637B68002283F82020F1
:10116000012320E07B681B681A687B681B6822F0FB
:101170000E021A607B681B681A687B681B6822F085
:1011800001021A607B681A6C7B68DB6B012101FA33
:1011900002F25A607B68012283F821207B680022DA
:1011A00083F82020FB7B18461437BD4680BC70476F
:1011B00080B584B000AF78600023FB737B6893F840
:1011C0002130DBB2022B05D07B6804229A63012315
:1011D000FB7351E07B681B681A687B681B6822F010
:1011E0000E021A607B681B681A687B681B6822F015
:1011F00001021A607B681B68224A934229D07B68EF
:101200001B68214A934222D07B681B681F4A934285
:101210001AD07B681B681E4A934212D07B681B68F9
:101220001C4A93420AD07B681B681B4A934202D136
:101230004FF480130EE04FF080730BE04FF48033D7
:1012400008E04FF4805305E04FF4807302E0102370
:1012500000E00123114A53607B68012283F82120BA
:101260007B68002283F820207B685B6B002B03D017
:101270007B685B6B78689847FB7B18461037BD46E8
:1012800080BD00BF080002401C0002403000024048
:1012900044000240580002406C000240000002403E
:1012A00080B483B000AF78607B6893F82130DBB204
:1012B00018460C37BD4680BC7047000080B48BB028
:1012C00000AF7860396000237B6200233B6269E1F4
:1012D00001227B6A02FA03F3FB613B681B68FA692F
:1012E0001340BB61BA69FB699A4240F058813B6880
:1012F0005B689A4A93425ED0984A934275D8984A5E
:10130000934258D0964A93426FD8964A934252D00D
:10131000944A934269D8944A93424CD0924A934259
:1013200063D8924A934246D0904A93425DD8122B9A
:101330002AD8122B59D801A252F823F0B71300086B
:1013400091130008A3130008E5130008EB1300082D
:10135000EB130008EB130008EB130008EB13000875
:10136000EB130008EB130008EB130008EB13000865
:10137000EB130008EB130008EB130008EB13000855
:1013800099130008AD130008794A934213D02CE05A
:101390003B68DB683B6229E03B68DB6804333B6207
:1013A00024E03B68DB6808333B621FE03B68DB6896
:1013B0000C333B621AE03B689B68002B02D104238C
:1013C0003B6213E03B689B68012B05D108233B621D
:1013D0007B68FA691A6109E008233B627B68FA6955
:1013E0005A6103E000233B6200E000BFBB69FF2BB2
:1013F00001D87B6801E07B6804337B61BB69FF2B0C
:1014000002D87B6A9B0002E07B6A083B9B003B6141
:101410007B691A680F213B6901FA03F3DB431A4029
:10142000396A3B6901FA03F31A437B691A603B6826
:101430005B6803F08053002B00F0B1804D4B9B693B
:101440004C4A43F0010393614A4B9B6903F001034B
:10145000BB60BB68484A7B6A9B08023352F8233062
:10146000FB607B6A03F003039B000F2202FA03F385
:10147000DB43FA681340FB607B68404A934213D019
:101480007B683F4A93420DD07B683E4A934207D027
:101490007B683D4A934201D1032306E0042304E024
:1014A000022302E0012300E000237A6A02F0030233
:1014B00092009340FA681343FB602F497B6A9B08B4
:1014C0000233FA6841F823203B685B6803F4801319
:1014D000002B06D02D4B9A682C49BB6913438B60B7
:1014E00006E02A4B9A68BB69DB43284913408B60AE
:1014F0003B685B6803F40013002B06D0234BDA68CB
:101500002249BB691343CB6006E0204BDA68BB6914
:10151000DB431E491340CB603B685B6803F4003338
:10152000002B06D0194B5A681849BB6913434B600E
:1015300006E0164B5A68BB69DB43144913404B6005
:101540003B685B6803F48033002B21D00F4B1A6893
:101550000E49BB6913430B6021E000BF000032104D
:1015600000003110000022100000211000001210B5
:10157000000011100010024000000140000801406E
:10158000000C014000100140001401400004014023
:101590000B4B1A68BB69DB43094913400B607B6A3C
:1015A00001337B623B681A687B6A22FA03F3002BE3
:1015B0007FF48EAE00BF00BF2C37BD4680BC7047A5
:1015C0000004014080B485B000AF78600B467B809A
:1015D0007B689A687B881340002B02D00123FB7341
:1015E00001E00023FB73FB7B18461437BD4680BC2B
:1015F000704780B483B000AF78600B467B801346A1
:101600007B707B78002B03D07A887B681A6103E0BB
:101610007B881A047B681A6100BF0C37BD4680BC0A
:10162000704780B485B000AF78600B467B807B68E4
:10163000DB68FB607A88FB6813401A04FB68D943B7
:101640007B880B401A437B681A6100BF1437BD4684
:1016500080BC704780B584B000AF78607B68002B99
:1016600001D101232BE17B6893F83D30DBB2002BE5
:1016700006D17B68002283F83C207868FFF784FA63
:101680007B68242283F83D207B681B681A687B688E
:101690001B6822F001021A607B681B681A687B686D
:1016A0001B6842F400421A607B681B681A687B68FA
:1016B0001B6822F400421A6002F0E8F9F8607B68C7
:1016C0005B68814A934207D8FB68804A934294BF83
:1016D00001230023DBB206E0FB687D4A934294BFFE
:1016E00001230023DBB2002B01D00123E7E0FB68DC
:1016F000784AA2FB03239B0CBB607B681B685B687A
:1017000023F03F017B681B68BA680A435A607B6814
:101710001B681B6A23F03F017B685B686A4A93423F
:1017200002D8BB68013309E0BB684FF4967202FB34
:1017300003F3694AA2FB03239B0901337A68126809
:101740000B4313627B681B68DB6923F44F4222F072
:10175000FF027B685B685C498B4219D8FB68591EA5
:101760007B685B685B00B1FBF3F3591C40F6FC73CC
:101770000B40002B0AD0FB68591E7B685B685B003E
:10178000B1FBF3F30133C3F30B0351E004234FE048
:101790007B689B68002B11D1FB68581E7B685968D9
:1017A0000B465B000B44B0FBF3F30133C3F30B03B5
:1017B000002B0CBF01230023DBB212E0FB68581E94
:1017C0007B6859680B469B000B4499000B44B0FBA7
:1017D000F3F30133C3F30B03002B0CBF01230023EE
:1017E000DBB2002B01D0012322E07B689B68002B39
:1017F0000ED1FB68581E7B6859680B465B000B4492
:10180000B0FBF3F30133C3F30B0343F400430FE0E6
:10181000FB68581E7B6859680B469B000B44990077
:101820000B44B0FBF3F30133C3F30B0343F4404326
:10183000796809681343CB617B681B681B6823F0D8
:10184000C0017B68DA697B681B6A1A437B681B6886
:101850000A431A607B681B689B6823F4034323F0E8
:10186000FF037A6811697A68D26811437A6812684E
:101870000B4393607B681B68DB6823F0FF017B6888
:101880005A697B689B691A437B681B680A43DA6064
:101890007B681B681A687B681B6842F001021A604B
:1018A0007B6800221A647B68202283F83D207B68D5
:1018B00000221A637B68002283F83E20002318462A
:1018C0001037BD4680BD00BFA08601007F841E008A
:1018D000FF083D0083DE1B43D34D621080B483B00C
:1018E00000AF78607B681B685B6903F08003802B26
:1018F00003D17B681B6800221A6100BF0C37BD460C
:1019000080BC704780B588B000AF78600023BB61B1
:101910007B681B685B687B617B68DB6A3B617B681B
:1019200093F83E30FB737B6893F83D30BB73FB7BD1
:10193000102B03D0FB7B402B40F0C1807B681B68E1
:101940009B69BB617B681B685B69FB61FB6903F09A
:101950000103002B0DD13B69B3F52A0F03D03B697E
:10196000B3F12A4F01D1012300E00023012B00F045
:101970003281FB6903F00103002B0CD07B695B0A09
:1019800003F00103002B06D0786801F09BFC786817
:1019900000F099FD92E0FB69DB0803F00103002BE6
:1019A00009D07B695B0A03F00103002B03D0786840
:1019B00000F00EFE82E0FB695B0803F00103002BE0
:1019C00009D07B695B0A03F00103002B03D0786820
:1019D00000F027FE72E0BB699B0803F00103002BB7
:1019E0003BD07B681B685B6803F40063B3F5006F52
:1019F00000F0F380FB69DB0903F00103002B0FD03B
:101A00007B699B0A03F00103002B09D0FB699B084B
:101A100003F00103002B03D1786800F0F1F94DE0E9
:101A2000FB699B0803F00103002B00F0D6807B6963
:101A30005B0A03F00103002B00F0CF80BB7B212B5E
:101A400003D1786800F078FAC7E0FB7B402B40F0C8
:101A5000C480786800F0E6FABFE07B681B685B68CA
:101A600003F40063B3F5006F00F0B780FB699B09D6
:101A700003F00103002B0FD07B699B0A03F00103E5
:101A8000002B09D0FB699B0803F00103002B03D155
:101A9000786800F05FFB11E0FB699B0803F001032D
:101AA000002B00F09A807B695B0A03F00103002B96
:101AB00000F09380786800F015FC8EE08DE07B6884
:101AC0001B6C002B04D07B681B685B69FB6107E023
:101AD0007B681B689B69BB617B681B685B69FB61FA
:101AE000FB695B0803F00103002B12D07B695B0AE2
:101AF00003F00103002B0CD07B681B6C002B03D080
:101B00007B681B689B69BB61B969786800F0E0FF7E
:101B100066E0FB691B0903F00103002B09D07B6918
:101B20005B0A03F00103002B03D0786801F01AF878
:101B300056E0BB7B212B02D0BB7B292B25D1FB6937
:101B4000DB0903F00103002B0FD07B699B0A03F034
:101B50000103002B09D0FB699B0803F00103002B54
:101B600003D1786800F0F8FE39E0FB699B0803F0C8
:101B70000103002B33D07B695B0A03F00103002BC8
:101B80002DD0786800F025FF29E0FB699B0903F060
:101B90000103002B0FD07B699B0A03F00103002B8C
:101BA00009D0FB699B0803F00103002B03D178687F
:101BB00000F02FFF14E0FB699B0803F00103002BEA
:101BC0000ED07B695B0A03F00103002B08D0786814
:101BD00000F05DFF04E000BF02E000BF00E000BFD6
:101BE0002037BD4680BD80B58AB000AF78607B6885
:101BF0001B685B693B627B681B685B68FB61002359
:101C00007B627B6893F83E30FB763B6A1B0A03F0ED
:101C10000103002B16D0FB691B0A03F00103002B04
:101C200010D07B6A43F001037B627B681B686FF412
:101C300080725A617B681B681A687B681B6842F473
:101C400000421A603B6A5B0A03F00103002B0ED0CE
:101C5000FB691B0A03F00103002B08D07B6A43F0E9
:101C600002037B627B681B686FF400725A613B6AF7
:101C70009B0A03F00103002B3FD0FB691B0A03F012
:101C80000103002B39D0FB7EBB767B685B8D9BB25A
:101C90007B617B6893F83D30FB747B681B6BFB605A
:101CA000BB7E202B12D17B69002B0FD1FB7C212B1B
:101CB00008D0FB7C292B05D0FB7C282B06D1FB68A8
:101CC000212B03D1786801F07DF816E07B681B6852
:101CD0006FF480625A617B6A43F004037B62FB7E8F
:101CE000102B02D0FB7E402B07D17B681B681A6843
:101CF0007B681B6842F400721A603B6ADB0A03F0DF
:101D00000103002B0ED0FB691B0A03F00103002B1B
:101D100008D07B6A43F008037B627B681B686FF422
:101D200000625A617B6A002B08D07B681A6C7B6A60
:101D30001A437B681A64786801F0B8F800BF283746
:101D4000BD4680BD80B483B000AF786000BF0C3763
:101D5000BD4680BC704780B483B000AF786000BFE0
:101D60000C37BD4680BC704780B483B000AF78604C
:101D700000BF0C37BD4680BC704780B483B000AF55
:101D8000786000BF0C37BD4680BC704780B483B01C
:101D900000AF78600B46FB7013463B8000BF0C37EA
:101DA000BD4680BC704780B483B000AF786000BF90
:101DB0000C37BD4680BC704780B483B000AF7860FC
:101DC00000BF0C37BD4680BC704780B483B000AF05
:101DD000786000BF0C37BD4680BC704780B483B0CC
:101DE00000AF786000BF0C37BD4680BC704780B440
:101DF00083B000AF786000BF0C37BD4680BC704731
:101E000080B584B000AF78607B6893F83D30FB7399
:101E10007B6893F83E30BB737B68DB6ABB607B6892
:101E20001B8D002B50D1FB7B212B4DD1BB68082B88
:101E30001DD0BB68202B1AD0BB6813F5803F16D08D
:101E40007B681B685A687B681B6822F4E0625A60F2
:101E50007B6811221A637B68002283F83E207B682E
:101E6000202283F83D207868FFF76CFF60E07B68F4
:101E70001B685A687B681B6822F4E0625A607B68C2
:101E80001B681A687B681B6842F400721A607B68E2
:101E900000221A637B68202283F83D207B6893F838
:101EA0003E30DBB2402B07D17B68002283F83E2016
:101EB0007868FFF781FF3BE07B68002283F83E20D3
:101EC0007868FFF73FFF33E0FB7B212B05D0BB7B1E
:101ED000402B2DD1FB7B222B2AD17B685B8D9BB2C3
:101EE000002B08D17B681B685A687B681B6822F44A
:101EF00080625A601CE07B6893F83E30DBB2402B76
:101F000003D1786800F08EF812E07B685B6A1A787B
:101F10007B681B681A617B685B6A5A1C7B685A6223
:101F20007B685B8D9BB2013B9AB27B685A85FFE769
:101F300000BF1037BD4680BD80B584B000AF78606B
:101F40007B68DB6AFB607B6893F83D30DBB2212B5A
:101F500064D17B685B8D9BB2002B12D07B685B6A7F
:101F60001A787B681B681A617B685B6A5A1C7B68FD
:101F70005A627B685B8D9BB2013B9AB27B685A8543
:101F80004CE0FB68082B1DD0FB68202B1AD0FB68A7
:101F900013F5803F16D07B681B685A687B681B6806
:101FA00022F4E0625A607B6811221A637B68002287
:101FB00083F83E207B68202283F83D207868FFF775
:101FC000C1FE2BE07B681B685A687B681B6822F4A3
:101FD000E0625A607B681B681A687B681B6842F481
:101FE00000721A607B6800221A637B68202283F8E3
:101FF0003D207B6893F83E30DBB2402B07D17B68F5
:10200000002283F83E207868FFF7D6FE06E07B6862
:10201000002283F83E207868FFF794FE00BF103757
:10202000BD4680BD80B584B000AF78607B6893F812
:102030003D30FB737B681B6D002B1DD17B68DB6C17
:10204000012B0BD17B689B6CDAB27B681B681A6131
:102050007B681B6D9A1C7B681A6577E07B689B6CBC
:102060009BB21B12DAB27B681B681A617B681B6D1E
:102070005A1C7B681A6569E07B681B6D012B0BD1CC
:102080007B689B6CDAB27B681B681A617B681B6D8E
:102090005A1C7B681A6559E07B681B6D022B52D174
:1020A000FB7B222B0DD17B681B681A687B681B6841
:1020B00042F480721A607B681B6D5A1C7B681A653B
:1020C00044E07B685B8D9BB2002B15D0FB7B212B02
:1020D00012D17B685B6A1A787B681B681A617B681F
:1020E0005B6A5A1C7B685A627B685B8D9BB2013BC2
:1020F0009AB27B685A8529E07B685B8D9BB2002B86
:1021000024D1FB7B212B21D17B681B685A687B681B
:102110001B6822F4E0625A607B681B681A687B685F
:102120001B6842F400721A607B6800221A637B68A5
:10213000202283F83D207B68002283F83E207868C7
:10214000FFF73AFE02E07868FFF7C8FB00BF1037E0
:10215000BD4680BD80B584B000AF78607B6893F8E1
:102160003D30DBB2222B40F0B9807B68DB6AFB603C
:102170007B685B8D9BB2BB60BB68032B21D97B68FE
:102180001B681A697B685B6AD2B21A707B685B6AEB
:102190005A1C7B685A627B685B8D9BB2013B9AB28A
:1021A0007B685A857B685B8D9BB2032B40F09680E1
:1021B0007B681B685A687B681B6822F480625A60DF
:1021C0008CE07B68DB6A022B7FD0BB68012B02D0DE
:1021D000BB68002B79D1786801F042F80346002BE8
:1021E0004CD17B681B681A687B681B6822F480628C
:1021F0001A607B681B685A687B681B6822F4E0627F
:102200005A607B681B681A697B685B6AD2B21A7075
:102210007B685B6A5A1C7B685A627B685B8D9BB2E9
:10222000013B9AB27B685A857B68202283F83D2067
:102230007B6893F83E30DBB2402B0AD17B680022EA
:1022400083F83E207B6800221A637868FFF7BDFDA3
:1022500044E07B68002283F83E20FB68082B02D014
:10226000FB68202B03D17B6800221A6302E07B68A5
:1022700012221A637868FFF76EFD2FE07B681B68F7
:102280005A687B681B6822F4E0625A607B681B68AE
:102290001A697B685B6AD2B21A707B685B6A5A1CE7
:1022A0007B685A627B685B8D9BB2013B9AB27B680C
:1022B0005A857B68202283F83D207B68002283F8C2
:1022C0003E207868FFF78AFD08E07B681B685A6843
:1022D0007B681B6822F480625A60FFE700BF1037FA
:1022E000BD4680BD80B584B000AF78607B68DB6A96
:1022F000FB607B685B8D9BB2042B1BD17B681B68EA
:102300005A687B681B6822F480625A607B681B688D
:102310001A697B685B6AD2B21A707B685B6A5A1C66
:102320007B685A627B685B8D9BB2013B9AB27B688B
:102330005A85C4E07B685B8D9BB2032B29D17B68F7
:102340001B685A687B681B6822F480625A60FB68CD
:10235000042B0AD0FB68022B07D07B681B681A6825
:102360007B681B6822F480621A607B681B681A69AC
:102370007B685B6AD2B21A707B685B6A5A1C7B68A6
:102380005A627B685B8D9BB2013B9AB27B685A852F
:1023900095E07B685B8D9BB2022B7DD1FB68012BA6
:1023A00002D0FB68102B08D17B681B681A687B6819
:1023B0001B6822F480621A6016E0FB68042B02D0CE
:1023C000FB68022B08D17B681B681A687B681B6856
:1023D00042F480621A6007E07B681B681A687B68B9
:1023E0001B6842F400721A607B681B681A697B687C
:1023F0005B6AD2B21A707B685B6A5A1C7B685A624D
:102400007B685B8D9BB2013B9AB27B685A857B6887
:102410001B681A697B685B6AD2B21A707B685B6A58
:102420005A1C7B685A627B685B8D9BB2013B9AB2F7
:102430007B685A857B681B685A687B681B6822F436
:1024400040725A607B68202283F83D207B6893F8B5
:102450003E30DBB2402B0AD17B68002283F83E205D
:102460007B6800221A637868FFF7AFFC27E07B687F
:10247000002283F83E20FB68082B02D0FB68202B4B
:1024800003D17B6800221A6302E07B6812221A6380
:102490007868FFF760FC12E07B681B681A697B684C
:1024A0005B6AD2B21A707B685B6A5A1C7B685A629C
:1024B0007B685B8D9BB2013B9AB27B685A8500BFFB
:1024C0001037BD4680BD80B483B000AF78607B68B4
:1024D00093F83E30DBB2402B17D17B681B6D002B8D
:1024E00009D17B685B6CDBB21A467B681B6802F023
:1024F000FE021A6167E07B685B6CDBB243F00103AC
:10250000DAB27B681B681A615DE07B681B69B3F512
:10251000804F33D17B6893F83D30DBB2212B09D15A
:102520007B685B6CDBB21A467B681B6802F0FE02BC
:102530001A6108E07B685B6CDBB243F00103DAB23E
:102540007B681B681A617B685B6B002B04D07B681F
:102550005B6B9B6A002B08D17B689B6B002B32D096
:102560007B689B6B9B6A002B2DD07B681B685A682D
:102570007B681B6842F400625A6024E07B681B6D34
:10258000002B0ED17B685B6C9BB2DB11DBB203F0DE
:102590000603DBB263F00F03DAB27B681B681A61D3
:1025A00011E07B681B6D012B0DD17B685B6C9BB2CE
:1025B000DB11DBB203F00603DBB263F00E03DAB229
:1025C0007B681B681A6100BF0C37BD4680BC704732
:1025D00080B483B000AF78607B685B6CDAB27B68F4
:1025E0001B681A617B685B6B002B04D07B685B6B9C
:1025F0009B6A002B08D17B689B6B002B0CD07B68FF
:102600009B6B9B6A002B07D07B681B685A687B68B2
:102610001B6842F400625A6000BF0C37BD4680BCA4
:10262000704780B491B000AF78607B6893F83E301B
:1026300087F83F307B68DB6ABB637B681B6B7B631F
:102640007B6893F83D30DBB2222B40F074817B68CD
:102650001B6D002B0FD197F83F30402B0BD100237F
:102660003B637B681B685B693B637B681B689B699A
:102670003B633B6B6BE17B681B6D002B1DD17B6863
:102680001B69B3F5404F18D10023FB627B681B68C0
:102690005B69FB627B681B689B69FB62FB6A7B680A
:1026A0001B681A687B681B6842F480721A607B683A
:1026B0001B6D5A1C7B681A6549E17B685B8D9BB278
:1026C000002B13D10023BB627B681B685B69BB6274
:1026D0007B681B689B69BB62BB6A7B681B681A6866
:1026E0007B681B6842F400721A6020E17B685B8D96
:1026F0009BB2012B40F08A80BB6B13F5803F37D132
:102700007B681B681A687B681B6822F480621A6009
:102710007B681B685B6803F40063B3F5006F13D13B
:102720007B681B681A687B681B6822F480621A60E9
:1027300000237B627B681B685B697B627B681B682C
:102740009B697B627B6AF2E000233B627B681B68CB
:102750005B693B627B681B689B693B623B6A7B6889
:102760001B681A687B681B6842F400721A60DEE01E
:10277000BB6B082B2ED0BB6B202B2BD07B6B122B73
:1027800002D1BB6B012B25D1BB6B042B0ED0BB6BD5
:10279000022B0BD0BB6B102B08D07B681B681A6810
:1027A0007B681B6822F480621A6007E07B681B6804
:1027B0001A687B681B6842F480621A600023FB6120
:1027C0007B681B685B69FB617B681B689B69FB61BD
:1027D000FB69ACE07B681B681A687B681B6822F4A5
:1027E00080621A600023BB617B681B685B69BB6108
:1027F0007B681B689B69BB61BB697B681B681A6847
:102800007B681B6842F400721A6090E07B685B8D05
:102810009BB2022B58D1BB6B042B21D0BB6B022B7C
:102820001ED0BB6B102B1BD07B681B681A687B68A3
:102830001B6842F400621A6000237B617B681B689E
:102840005B697B617B681B689B697B617B697B68DB
:102850001B681A687B681B6822F480621A6012E0A9
:102860007B681B681A687B681B6842F480621A6088
:1028700000233B617B681B685B693B617B681B686D
:102880009B693B613B697B681B685B6803F4006381
:10289000B3F5006F4BD1BB6B13F5803F0BD0BB6B17
:1028A000012B08D0BB6B082B05D0BB6B102B02D0C3
:1028B000BB6B202B3BD17B681B685A687B681B680D
:1028C00042F480525A6032E07B681B681A687B6869
:1028D0001B6842F480621A607B681B685B6803F4C3
:1028E0000063B3F5006F17D1BB6B13F5803F0BD0BE
:1028F000BB6B012B08D0BB6B082B05D0BB6B102B1F
:1029000002D0BB6B202B07D17B681B685A687B68A1
:102910001B6842F480525A600023FB607B681B688E
:102920005B69FB607B681B689B69FB60FB687B687D
:1029300000221A650BE00023BB607B681B685B69A3
:10294000BB607B681B689B69BB60BB68FFE700BF1F
:102950004437BD4680BC704780B584B000AF786016
:102960007B6893F83D30FB737B685B8D9BB2002BDB
:102970002BD07B685B6A1A787B681B681A617B685E
:102980005B6A5A1C7B685A627B685B8D9BB2013B19
:102990009AB27B685A857B685B8D9BB2002B14D101
:1029A000FB7B292B11D17B681B685A687B681B68ED
:1029B00022F480625A607B6821221A637B68282295
:1029C00083F83D207868FFF7CFF900BF1037BD4688
:1029D00080BD80B483B000AF78607B685B8D9BB2B4
:1029E000002B11D07B685B6A1A787B681B681A61C0
:1029F0007B685B6A5A1C7B685A627B685B8D9BB202
:102A0000013B9AB27B685A8500BF0C37BD4680BC3B
:102A1000704780B584B000AF78607B6893F83D3034
:102A2000FB737B685B8D9BB2002B2CD07B681B6893
:102A30001A697B685B6AD2B21A707B685B6A5A1C3F
:102A40007B685A627B685B8D9BB2013B9AB27B6864
:102A50005A857B685B8D9BB2002B14D1FB7B2A2BA4
:102A600011D17B681B685A687B681B6822F48062FE
:102A70005A607B6822221A637B68282283F83D20F3
:102A80007868FFF77AF900BF1037BD4680BD80B483
:102A900083B000AF78607B685B8D9BB2002B12D057
:102AA0007B681B681A697B685B6AD2B21A707B68A4
:102AB0005B6A5A1C7B685A627B685B8D9BB2013BE8
:102AC0009AB27B685A8500BF0C37BD4680BC704700
:102AD00080B584B000AF786039600023FB737B68F9
:102AE00093F83D30DBB203F02803282B27D17B6815
:102AF0001B685A687B681B6822F480625A603B68D6
:102B00009B0803F00103002B01D10123FB733B68F9
:102B1000DB0903F00103002B03D17B68DB68BB8179
:102B200002E07B689B69BB817B68002283F83C20C4
:102B3000BA89FB7B19467868FFF728F90EE0002375
:102B4000BB607B681B685B69BB607B681B689B69BB
:102B5000BB60BB687B68002283F83C2000BF103755
:102B6000BD4680BD80B584B000AF78607B6893F8C7
:102B70003D30FB737B681B685A687B681B6822F4D6
:102B8000E0625A600023BB607B681B685B69BB60C6
:102B90007B681B681A687B681B6842F001021A6038
:102BA000BB687B681B681A687B681B6822F48062BC
:102BB0001A607B681B685B6803F40063B3F5006F01
:102BC00072D1FB7B222B02D0FB7B2A2B35D17B6879
:102BD0009B6B1B685B689AB27B685A857B685B8DD0
:102BE0009BB2002B05D07B681B6C43F004027B6812
:102BF0001A647B681B685A687B681B6822F4006251
:102C00005A607B689B6B1846FEF74AFB0346012B14
:102C100049D07B689B6B694A5A637B689B6B1846FB
:102C2000FEF7C6FA0346002B3DD07B689B6B5B6BBF
:102C30007A68926B1046984735E07B685B6B1B683F
:102C40005B689AB27B685A857B685B8D9BB2002B70
:102C500005D07B681B6C43F004027B681A647B68B8
:102C60001B685A687B681B6822F400625A607B68A4
:102C70005B6B1846FEF714FB0346012B14D07B68F0
:102C80005B6B4E4A5A637B685B6B1846FEF790FAA3
:102C90000346002B08D07B685B6B5B6B7A68526BDA
:102CA0001046984700E000BF7B685B8D9BB2002B0D
:102CB0003ED07B681B685B6903F00403042B12D1D0
:102CC0007B681B681A697B685B6AD2B21A707B6882
:102CD0005B6A5A1C7B685A627B685B8D9BB2013BC6
:102CE0009AB27B685A857B681B685B6903F0400376
:102CF000402B12D17B681B681A697B685B6AD2B271
:102D00001A707B685B6A5A1C7B685A627B685B8DB1
:102D10009BB2013B9AB27B685A857B685B8D9BB204
:102D2000002B05D07B681B6C43F004027B681A649F
:102D30007B681B6C002B03D0786800F0B7F839E093
:102D4000FB7B2A2B09D17B6800221A637B6828222F
:102D500083F83D207868FFF710F87B6893F83D30E2
:102D6000DBB2282B11D17B68154ADA627B6800221E
:102D70001A637B68202283F83D207B68002283F859
:102D80003E207868FFF70FF814E07B681B6B222B5E
:102D900002D0FB7B222B0DD17B6800221A637B685B
:102DA000202283F83D207B68002283F83E2078684B
:102DB000FEF7E3FF00BF1037BD4680BD11310008AC
:102DC0000000FFFF80B584B000AF78607B6893F8A7
:102DD0003D30FB737B68DB6ABB60BB68082B02D0AD
:102DE000BB68202B29D1FB7B282B26D17B682E4A60
:102DF000DA627B681B685A687B681B6822F4E062B1
:102E00005A607B681B686FF480625A617B681B683C
:102E10001A687B681B6822F480621A607B68002253
:102E20001A637B68202283F83D207B68002283F8A8
:102E30003E207868FEF7B7FF31E0FB7B212B29D1DC
:102E40007B68194ADA627B6821221A637B68202238
:102E500083F83D207B68002283F83E207B681B6856
:102E60005A687B681B6822F4E0625A607B681B68C2
:102E70006FF480625A617B681B681A687B681B6804
:102E800022F480621A607868FEF728FD7868FEF701
:102E90006BFF04E07B681B686FF480625A6100BFBF
:102EA0001037BD4680BD00BF0000FFFF80B584B075
:102EB00000AF78607B6893F83D30FB737B6893F8D4
:102EC0003E30BB73BB7B102B02D0BB7B402B0AD1A7
:102ED000FB7B222B07D17B681B681A687B681B6809
:102EE00022F400621A60FB7B03F02803282B07D131
:102EF0007B6800221A637B68282283F83D2015E056
:102F00007B681B685B6803F40063B3F5006F0AD04D
:102F1000FB7B602B07D07B68202283F83D207B68F9
:102F2000002283F83E207B6800221A637B681B68BE
:102F30005B6803F40063B3F5006F62D17B681B68C4
:102F40005A687B681B6822F400625A607B685B6B7E
:102F500093F82130DBB2012B20D07B685B6B6A4A8F
:102F60005A637B685B6B1846FEF722F90346002B19
:102F700000F089807B681B681A687B681B6822F0F8
:102F800001021A607B68202283F83D207B685B6B1E
:102F90005B6B7A68526B1046984774E07B689B6B5A
:102FA000594A5A637B689B6B1846FEF701F9034642
:102FB000002B68D07B681B685B6903F04003402BE3
:102FC0000BD17B681B681A697B685B6AD2B21A7086
:102FD0007B685B6A5A1C7B685A627B681B681A684C
:102FE0007B681B6822F001021A607B68202283F84C
:102FF0003D207B689B6B5B6B7A68926B10469847B1
:1030000041E07B6893F83D30DBB2602B25D17B68D3
:10301000202283F83D207B6800221A647B681B68AD
:103020005B6903F04003402B0BD17B681B681A6976
:103030007B685B6AD2B21A707B685B6A5A1C7B68D9
:103040005A627B681B681A687B681B6822F0010261
:103050001A607868FEF7CBFE15E07B681B685B6939
:1030600003F04003402B0BD17B681B681A697B6817
:103070005B6AD2B21A707B685B6A5A1C7B685A62C0
:103080007868FEF7ABFE7B681B6CBB60BB6803F027
:103090000103002B0ED1BB6803F00203002B09D102
:1030A000BB6803F00403002B04D1BB6803F00803E2
:1030B000002B07D07B681B685A687B681B6822F46A
:1030C000E0625A607B6893F83D30FB737B681B6C51
:1030D00003F00403042B13D1FB7B282B10D17B6856
:1030E0000A4ADA627B6800221A637B68202283F82E
:1030F0003D207B68002283F83E207868FEF753FE6F
:1031000000BF1037BD4680BD113100080000FFFF31
:1031100080B586B000AF78600023FB607B685B6A97
:103120007B617B6993F83D30FB744B4B1B68DB087C
:103130004A4AA2FB03231A0A13469B001344DA00EF
:10314000D31AFB60FB68002B06D17B691B6C43F034
:1031500020027B691A640AE0FB68013BFB607B6923
:103160001B681B6803F40073B3F5007FEAD07B692A
:103170005B6B002B03D07B695B6B00229A627B69DF
:103180009B6B002B03D07B699B6B00229A627B694F
:103190001B681A687B691B6822F480621A607B696D
:1031A00000225A857B695B6B002B03D07B695B6BCC
:1031B00000225A637B699B6B002B03D07B699B6B5E
:1031C00000225A637B691B681A687B691B6822F0BE
:1031D00001021A607B6993F83D30DBB2602B0ED19F
:1031E0007B69202283F83D207B69002283F83E2002
:1031F0007B6900221A647869FEF7F9FD27E0FB7C01
:1032000003F02803282B17D17B691B681A687B6998
:103210001B6842F001021A607B691B681A687B69AF
:103220001B6842F480621A607B6900221A637B6922
:10323000282283F83D2007E07B69202283F83D2087
:103240007B69002283F83E207869FEF7C7FD00BF46
:103250001837BD4680BD00BF0000002089B5F814B6
:1032600080B485B000AF78600023FB60134B1B680F
:10327000DB08134AA2FB03231A0A13469B001344DC
:10328000FB60FB68013BFB60FB68002B07D17B68A0
:103290001B6C43F020027B681A64012308E07B6802
:1032A0001B681B6803F40073B3F5007FE9D00023AB
:1032B00018461437BD4680BC704700BF0000002090
:1032C00089B5F81480B483B000AF78607B68DB6A9E
:1032D000B3F52A0F03D17B680122DA6207E07B682D
:1032E000DB6AB3F12A4F02D17B680822DA6200BFA1
:1032F0000C37BD4680BC704780B586B000AF7860A3
:103300007B68002B01D1012372E27B681B6803F00C
:103310000103002B00F08780924B5B6803F00C03E5
:10332000042B0CD08F4B5B6803F00C03082B12D1DD
:103330008C4B5B6803F48033B3F5803F0BD1894B32
:103340001B6803F40033002B6CD07B685B68002B98
:1033500068D101234CE27B685B68B3F5803F06D1FE
:10336000804B1B687F4A43F4803313602EE07B68F8
:103370005B68002B0CD17B4B1B687A4A23F48033AB
:103380001360784B1B68774A23F4802313601DE099
:103390007B685B68B3F5A02F0CD1724B1B68714A38
:1033A00043F4802313606F4B1B686E4A43F48033F1
:1033B00013600BE06B4B1B686A4A23F48033136085
:1033C000684B1B68674A23F4802313607B685B6843
:1033D000002B13D0FDF776FD386108E0FDF772FD94
:1033E00002463B69D31A642B01D9032300E25D4BEB
:1033F0001B6803F40033002BF0D014E0FDF762FDEE
:10340000386108E0FDF75EFD02463B69D31A642B84
:1034100001D90323ECE1534B1B6803F40033002B69
:10342000F0D100E000BF7B681B6803F00203002BB3
:1034300063D04C4B5B6803F00C03002B0BD0494B63
:103440005B6803F00C03082B1CD1464B5B6803F44C
:103450008033002B16D1434B1B6803F00203002B73
:1034600005D07B681B69012B01D00123C0E13D4BD6
:103470001B6823F0F8027B685B69DB003949134362
:103480000B603AE07B681B69002B20D0364B012291
:103490001A60FDF717FD386108E0FDF713FD0246DD
:1034A0003B69D31A022B01D90323A1E12D4B1B68E1
:1034B00003F00203002BF0D02A4B1B6823F0F80224
:1034C0007B685B69DB00274913430B6015E0264BE3
:1034D00000221A60FDF7F6FC386108E0FDF7F2FC07
:1034E00002463B69D31A022B01D9032380E11D4B0D
:1034F0001B6803F00203002BF0D17B681B6803F00C
:103500000803002B3AD07B689B69002B19D0174B1E
:1035100001221A60FDF7D6FC386108E0FDF7D2FC05
:1035200002463B69D31A022B01D9032360E10D4BFC
:103530005B6A03F00203002BF0D0012000F0CEFA0A
:103540001CE00A4B00221A60FDF7BCFC38610FE05A
:10355000FDF7B8FC02463B69D31A022B08D90323B6
:1035600046E100BF00100240000042428004424297
:10357000924B5B6A03F00203002BE9D17B681B6866
:1035800003F00403002B00F0A6800023FB758B4B97
:10359000DB6903F08053002B0DD1884BDB69874A30
:1035A00043F08053D361854BDB6903F08053BB60EC
:1035B000BB680123FB75824B1B6803F48073002BEF
:1035C00018D17F4B1B687E4A43F480731360FDF76C
:1035D00079FC386108E0FDF775FC02463B69D31AB7
:1035E000642B01D9032303E1754B1B6803F480733B
:1035F000002BF0D07B68DB68012B06D16F4B1B6A78
:103600006E4A43F0010313622DE07B68DB68002BF8
:103610000CD16A4B1B6A694A23F001031362674BA2
:103620001B6A664A23F0040313621CE07B68DB68B4
:10363000052B0CD1614B1B6A604A43F004031362F3
:103640005E4B1B6A5D4A43F0010313620BE05B4B68
:103650001B6A5A4A23F001031362584B1B6A574AEC
:1036600023F0040313627B68DB68002B15D0FDF7A1
:1036700029FC38610AE0FDF725FC02463B69D31AB4
:1036800041F28832934201D90323B1E04B4B1B6ACC
:1036900003F00203002BEED014E0FDF713FC3861B9
:1036A0000AE0FDF70FFC02463B69D31A41F288326B
:1036B000934201D903239BE0404B1B6A03F00203B2
:1036C000002BEED1FB7D012B05D13C4BDB693B4A46
:1036D00023F08053D3617B68DB69002B00F0878087
:1036E000364B5B6803F00C03082B61D07B68DB6909
:1036F000022B46D1334B00221A60FDF7E3FB386101
:1037000008E0FDF7DFFB02463B69D31A022B01D923
:1037100003236DE0294B1B6803F00073002BF0D1ED
:103720007B681B6AB3F5803F08D1244B5B6823F4A8
:1037300000327B689B68214913434B601F4B5B68D9
:1037400023F474127B68196A7B685B6A0B431B491C
:1037500013434B601B4B01221A60FDF7B3FB38612A
:1037600008E0FDF7AFFB02463B69D31A022B01D9F3
:1037700003233DE0114B1B6803F00073002BF0D0D6
:1037800035E0104B00221A60FDF79CFB386108E021
:10379000FDF798FB02463B69D31A022B01D903239C
:1037A00026E0064B1B6803F00073002BF0D11EE0EF
:1037B0007B68DB69012B07D1012319E0001002406F
:1037C00000700040600042420B4B5B68FB60FB688E
:1037D00003F480327B681B6A9A4206D1FB6803F4CB
:1037E00070127B685B6A9A4201D0012300E00023DB
:1037F00018461837BD4680BD0010024080B584B021
:1038000000AF786039607B68002B01D10123D0E0E4
:103810006A4B1B6803F007033A689A4210D9674B5A
:103820001B6823F0070265493B6813430B60634B39
:103830001B6803F007033A689A4201D00123B8E0FD
:103840007B681B6803F00203002B20D07B681B6899
:1038500003F00403002B05D0594B5B68584A43F42E
:10386000E06353607B681B6803F00803002B05D0FE
:10387000534B5B68524A43F460535360504B5B6850
:1038800023F0F0027B689B684D4913434B607B68D3
:103890001B6803F00103002B40D07B685B68012BA1
:1038A00007D1474B1B6803F40033002B15D10123CC
:1038B0007FE07B685B68022B07D1414B1B6803F0FC
:1038C0000073002B09D1012373E03D4B1B6803F00B
:1038D0000203002B01D101236BE0394B5B6823F01D
:1038E00003027B685B68364913434B60FDF7EAFAD5
:1038F000F8600AE0FDF7E6FA0246FB68D31A41F2E7
:103900008832934201D9032353E02D4B5B6803F0C7
:103910000C027B685B689B009A42EBD1274B1B68CB
:1039200003F007033A689A4210D2244B1B6823F035
:10393000070222493B6813430B60204B1B6803F0CE
:1039400007033A689A4201D0012332E07B681B6882
:1039500003F00403002B08D0194B5B6823F4E062EA
:103960007B68DB68164913434B607B681B6803F078
:103970000803002B09D0124B5B6823F460527B686C
:103980001B69DB000E4913434B6000F021F802462F
:103990000B4B5B681B0903F00F030A49CB5C22FA4F
:1039A00003F3094A1360094B1B681846FDF748FAF0
:1039B000002318461037BD4680BD00BF00200240DE
:1039C00000100240CC7D0008000000200400002010
:1039D00080B487B000AF0023FB600023BB600023EE
:1039E0007B6100237B6000233B611E4B5B68FB60B7
:1039F000FB6803F00C03042B02D0082B03D027E054
:103A0000194B3B6127E0FB689B0C03F00F03174A3F
:103A1000D35C7B60FB6803F48033002B10D0114B28
:103A20005B685B0C03F00103114AD35CBB607B68ED
:103A30000D4A03FB02F2BB68B2FBF3F37B6104E0C7
:103A40007B680C4A02FB03F37B617B693B6102E00C
:103A5000054B3B6100BF3B6918461C37BD4680BC27
:103A6000704700BF0010024000127A00E47D000899
:103A7000F47D000800093D0080B400AF024B1B68D4
:103A80001846BD4680BC70470000002080B500AFDE
:103A9000FFF7F2FF0246054B5B681B0A03F00703C2
:103AA0000349CB5C22FA03F3184680BD00100240A4
:103AB000DC7D000880B500AFFFF7DEFF0246054B56
:103AC0005B68DB0A03F007030349CB5C22FA03F3CC
:103AD000184680BD00100240DC7D000880B485B02F
:103AE00000AF78600A4B1B680A4AA2FB03235B0AFB
:103AF0007A6802FB03F3FB6000BFFB685A1EFA60A2
:103B0000002BF9D100BF00BF1437BD4680BC704701
:103B100000000020D34D621080B582B000AF786005
:103B20007B68002B01D1012341E07B6893F83D3095
:103B3000DBB2002B06D17B68002283F83C2078683A
:103B4000FDF770F87B68022283F83D207B681A68D5
:103B50007B6804331946104600F012FA7B68012294
:103B600083F846207B68012283F83E207B6801228F
:103B700083F83F207B68012283F840207B68012284
:103B800083F841207B68012283F842207B68012270
:103B900083F843207B68012283F844207B6801225C
:103BA00083F845207B68012283F83D2000231846D6
:103BB0000837BD4680BD80B584B000AF78607B68B3
:103BC0001B68DB68FB607B681B681B69BB60BB68AC
:103BD00003F00203002B20D0FB6803F00203002B4C
:103BE0001BD07B681B686FF002021A617B680122A0
:103BF0001A777B681B689B6903F00303002B03D0D3
:103C0000786800F0A1F905E0786800F094F9786828
:103C100000F0A3F97B6800221A77BB6803F0040365
:103C2000002B20D0FB6803F00403002B1BD07B6823
:103C30001B686FF004021A617B6802221A777B68A6
:103C40001B689B6903F44073002B03D0786800F075
:103C50007BF905E0786800F06EF9786800F07DF98E
:103C60007B6800221A77BB6803F00803002B20D082
:103C7000FB6803F00803002B1BD07B681B686FF008
:103C800008021A617B6804221A777B681B68DB696B
:103C900003F00303002B03D0786800F055F905E02A
:103CA000786800F048F9786800F057F97B680022DE
:103CB0001A77BB6803F01003002B20D0FB6803F0D9
:103CC0001003002B1BD07B681B686FF010021A6179
:103CD0007B6808221A777B681B68DB6903F44073F2
:103CE000002B03D0786800F02FF905E0786800F029
:103CF00022F9786800F031F97B6800221A77BB68F6
:103D000003F00103002B0CD0FB6803F00103002B30
:103D100007D07B681B686FF001021A61786800F0B9
:103D200001F9BB6803F08003002B0CD0FB6803F0A3
:103D30008003002B07D07B681B686FF080021A613C
:103D4000786800F088FABB6803F04003002B0CD0C1
:103D5000FB6803F04003002B07D07B681B686FF003
:103D600040021A61786800F001F9BB6803F0200393
:103D7000002B0CD0FB6803F02003002B07D07B68DE
:103D80001B686FF020021A61786800F05BFA00BFD0
:103D90001037BD4680BD80B584B000AF7860396013
:103DA0000023FB737B6893F83C30012B01D1022385
:103DB000B4E07B68012283F83C207B68022283F810
:103DC0003D207B681B689B68BB60BB6823F0770362
:103DD000BB60BB6823F47F43BB607B681B68BA6829
:103DE0009A603B681B68B3F5005F3ED0B3F5005F97
:103DF00000F28780B3F5805F00F08680B3F5805FC6
:103E00007FD8702B1AD0702B7BD8602B50D0602BB2
:103E100077D8502B3CD0502B73D8402B58D0402B08
:103E20006FD8302B64D0302B6BD8202B60D0202B58
:103E300067D8002B5CD0102B5AD062E07B681868E2
:103E40003B6899683B685A683B68DB6800F07DF91D
:103E50007B681B689B68BB60BB6843F07703BB60F3
:103E60007B681B68BA689A604FE07B6818683B689B
:103E700099683B685A683B68DB6800F066F97B68C4
:103E80001B689A687B681B6842F480429A603CE039
:103E90007B6818683B6859683B68DB681A4600F025
:103EA000DDF87B681B685021184600F034F92CE0DF
:103EB0007B6818683B6859683B68DB681A4600F005
:103EC000FBF87B681B686021184600F024F91CE0B1
:103ED0007B6818683B6859683B68DB681A4600F0E5
:103EE000BDF87B681B684021184600F014F90CE00F
:103EF0007B681A683B681B681946104600F00BF98E
:103F000003E00123FB7300E000BF7B68012283F81C
:103F10003D207B68002283F83C20FB7B184610374D
:103F2000BD4680BD80B483B000AF786000BF0C3761
:103F3000BD4680BC704780B483B000AF786000BFDE
:103F40000C37BD4680BC704780B483B000AF78604A
:103F500000BF0C37BD4680BC704780B483B000AF53
:103F6000786000BF0C37BD4680BC704780B483B01A
:103F700000AF786000BF0C37BD4680BC70470000C2
:103F800080B485B000AF786039607B681B68FB60E7
:103F90007B682F4A93420BD07B68B3F1804F07D0E8
:103FA0007B682C4A934203D07B682B4A934208D10A
:103FB000FB6823F07003FB603B685B68FA6813439F
:103FC000FB607B68224A93420BD07B68B3F1804F41
:103FD00007D07B681F4A934203D07B681E4A9342F6
:103FE00008D1FB6823F44073FB603B68DB68FA6828
:103FF0001343FB60FB6823F080023B685B6913435B
:10400000FB607B68FA681A603B689A687B68DA62D2
:104010003B681A687B689A627B680D4A934203D1B9
:104020003B681A697B681A637B6801225A617B6866
:104030001B6903F00103002B05D07B681B6923F08B
:1040400001027B681A6100BF1437BD4680BC70470F
:10405000002C0140000400400008004080B487B0FC
:1040600000AFF860B9607A60FB681B6A7B61FB682F
:104070001B6A23F00102FB681A62FB689B693B61C3
:104080003B6923F0F0033B617B681B013A691343F2
:104090003B617B6923F00A037B617A69BB68134348
:1040A0007B61FB683A699A61FB687A691A6200BFB2
:1040B0001C37BD4680BC704780B487B000AFF86045
:1040C000B9607A60FB681B6A7B61FB681B6A23F03E
:1040D0001002FB681A62FB689B693B613B6923F431
:1040E00070433B617B681B033A6913433B617B6907
:1040F00023F0A0037B61BB681B017A6913437B61DA
:10410000FB683A699A61FB687A691A6200BF1C37DA
:10411000BD4680BC704780B485B000AF7860396020
:104120007B689B68FB60FB6823F07003FB603A6868
:10413000FB68134343F00703FB607B68FA689A60EF
:1041400000BF1437BD4680BC704780B487B000AF55
:10415000F860B9607A603B60FB689B687B617B6953
:1041600023F47F437B613B681A027B681A43BB6878
:1041700013437A6913437B61FB687A699A6000BFD5
:104180001C37BD4680BC704780B485B000AF7860F6
:1041900039607B6893F83C30012B01D1022346E063
:1041A0007B68012283F83C207B68022283F83D2053
:1041B0007B681B685B68FB607B681B689B68BB60F7
:1041C000FB6823F07003FB603B681B68FA681343CD
:1041D000FB607B681B68FA685A607B681B68164A3C
:1041E00093420ED07B681B68B3F1804F09D07B6887
:1041F0001B68124A934204D07B681B68104A9342A2
:104200000CD1BB6823F08003BB603B685B68BA6875
:104210001343BB607B681B68BA689A607B680122A5
:1042200083F83D207B68002283F83C200023184659
:104230001437BD4680BC7047002C0140000400408C
:104240000008004080B483B000AF786000BF0C3736
:10425000BD4680BC704780B483B000AF786000BFBB
:104260000C37BD4680BC704780B582B000AF786027
:104270007B68002B01D1012342E07B6893F8413039
:10428000DBB2002B06D17B68002283F840207868DF
:10429000FCF7ECFC7B68242283F841207B681B68D8
:1042A000DA687B681B6822F40052DA60786800F0F4
:1042B000B7FD7B681B681A697B681B6822F4904213
:1042C0001A617B681B685A697B681B6822F02A02A6
:1042D0005A617B681B68DA687B681B6842F400528D
:1042E000DA607B6800225A647B68202283F84120D0
:1042F0007B68202283F842207B6800225A630023D7
:1043000018460837BD4680BD80B58AB002AFF86058
:10431000B9603B601346FB8000237B61FB6893F828
:104320004130DBB2202B75D1BB68002B02D0FB885B
:10433000002B01D101236EE0FB6800225A64FB6868
:10434000212283F84120FCF7BDFD7861FB68FA88E3
:104350009A84FB68FA88DA84FB689B68B3F5805F0F
:1043600008D1FB681B69002B04D10023FB61BB68EB
:10437000BB6103E0BB68FB610023BB612EE03B68CF
:1043800000937B6900228021F86800F01CFB034643
:10439000002B05D0FB68202283F8412003233AE05C
:1043A000FB69002B0BD1BB691B881A46FB681B6895
:1043B000C2F308025A60BB690233BB6107E0FB69C4
:1043C0001A78FB681B685A60FB690133FB61FB6864
:1043D000DB8C9BB2013B9AB2FB68DA84FB68DB8C16
:1043E0009BB2002BCBD13B6800937B69002240211C
:1043F000F86800F0E8FA0346002B05D0FB6820229D
:1044000083F84120032306E0FB68202283F8412043
:10441000002300E0022318462037BD4680BD80B54A
:1044200084B000AFF860B9601346FB80FB6893F876
:104430004230DBB2202B12D1BB68002B02D0FB88AC
:10444000002B01D101230BE0FB6800221A63FB88DB
:104450001A46B968F86800F00FFB034600E0022333
:1044600018461037BD4680BD80B5BAB000AF786041
:104470007B681B681B68C7F8E4307B681B68DB68D7
:10448000C7F8E0307B681B685B69C7F8DC30002345
:10449000C7F8D8300023C7F8D430D7F8E43003F099
:1044A0000F03C7F8D830D7F8D830002B0FD1D7F882
:1044B000E43003F02003002B09D0D7F8E03003F0FC
:1044C0002003002B03D0786800F0ECFB5BE2D7F808
:1044D000D830002B00F0DE80D7F8DC3003F0010389
:1044E000002B06D1D7F8E03003F49073002B00F0D6
:1044F000D180D7F8E43003F00103002B0BD0D7F8BC
:10450000E03003F48073002B05D07B685B6C43F0D4
:1045100001027B685A64D7F8E43003F00403002BEF
:104520000BD0D7F8DC3003F00103002B05D07B68FB
:104530005B6C43F002027B685A64D7F8E43003F006
:104540000203002B0BD0D7F8DC3003F00103002B63
:1045500005D07B685B6C43F004027B685A64D7F833
:10456000E43003F00803002B11D0D7F8E03003F05B
:104570002003002B05D1D7F8DC3003F00103002B1A
:1045800005D07B685B6C43F008027B685A647B68EB
:104590005B6C002B00F0F281D7F8E43003F02003CD
:1045A000002B08D0D7F8E03003F02003002B02D016
:1045B000786800F077FB7B681B685B6903F0400359
:1045C000002B14BF01230023DBB2C7F8D4307B6873
:1045D0005B6C03F00803002B03D1D7F8D430002B19
:1045E0004FD0786800F081FA7B681B685B6903F044
:1045F0004003002B41D07B681B681433C7F89C3004
:10460000D7F89C3053E8003FC7F89830D7F8983077
:1046100023F04003C7F8D0307B681B681433D7F809
:10462000D020C7F8A820C7F8A430D7F8A410D7F82E
:10463000A82041E80023C7F8A030D7F8A030002B0D
:10464000D9D17B68DB6B002B13D07B68DB6B7E4A98
:104650005A637B68DB6B1846FCF7AAFD0346002B08
:1046600016D07B68DB6B5B6B7A68D26B1046984721
:104670000EE0786800F093F90AE0786800F08FF9AE
:1046800006E0786800F08BF97B6800225A6475E1D7
:1046900000BF73E17B681B6B012B40F04F81D7F8A3
:1046A000E43003F01003002B00F04881D7F8E0302D
:1046B00003F01003002B00F041810023BB607B68F6
:1046C0001B681B68BB607B681B685B68BB60BB6862
:1046D0007B681B685B6903F04003002B00F0B68029
:1046E0007B68DB6B1B685B68A7F8BE30B7F8BE3031
:1046F000002B00F045817B689B8DB7F8BE209A4265
:1047000080F03E817B68B7F8BE20DA857B68DB6B82
:104710009B69202B00F088807B681B680C33C7F8EE
:104720008830D7F8883053E8003FC7F88430D7F88E
:10473000843023F48073C7F8B8307B681B680C336F
:10474000D7F8B820C7F89420C7F89030D7F8901061
:10475000D7F8942041E80023C7F88C30D7F88C3084
:10476000002BD9D17B681B6814337B677B6F53E8C0
:10477000003F3B673B6F23F00103C7F8B4307B6811
:104780001B681433D7F8B420C7F88020FB67F96F93
:10479000D7F8802041E80023BB67BB6F002BE1D135
:1047A0007B681B6814333B663B6E53E8003FFB6538
:1047B000FB6D23F04003C7F8B0307B681B681433EF
:1047C000D7F8B020FA66BB66B96EFA6E41E80023EE
:1047D0007B667B6E002BE3D17B68202283F842202E
:1047E0007B6800221A637B681B680C33FB64FB6CDC
:1047F00053E8003FBB64BB6C23F01003C7F8AC3038
:104800007B681B680C33D7F8AC20BA657B65796D83
:10481000BA6D41E800233B653B6D002BE3D17B681B
:10482000DB6B1846FCF789FC7B6802225A637B68C5
:104830009A8D7B68DB8D9BB2D31A9BB21946786840
:1048400000F0B6F89CE000BFAF4B00087B689A8D83
:104850007B68DB8D9BB2D31AA7F8CE307B68DB8DEB
:104860009BB2002B00F08E80B7F8CE30002B00F00A
:1048700089807B681B680C33BB63BB6B53E8003FCC
:104880007B637B6B23F49073C7F8C8307B681B682D
:104890000C33D7F8C8207A643B64396C7A6C41E8F1
:1048A0000023FB63FB6B002BE3D17B681B68143395
:1048B0007B627B6A53E8003F3B623B6A23F0010363
:1048C000C7F8C4307B681B681433D7F8C4203A6338
:1048D000FB62F96A3A6B41E80023BB62BB6A002BBA
:1048E000E3D17B68202283F842207B6800221A6390
:1048F0007B681B680C333B613B6953E8003FFB60FE
:10490000FB6823F01003C7F8C0307B681B680C33CA
:10491000D7F8C020FA61BB61B969FA6941E80023A0
:104920007B617B69002BE3D17B6802225A63B7F875
:10493000CE301946786800F03BF823E0D7F8E43031
:1049400003F08003002B09D0D7F8E03003F0800398
:10495000002B03D0786800F03EF914E0D7F8E4307B
:1049600003F04003002B0ED0D7F8E03003F04003F3
:10497000002B08D0786800F07DF904E000BF02E069
:1049800000BF00E000BFE837BD4680BD80B483B003
:1049900000AF786000BF0C37BD4680BC704780B464
:1049A00083B000AF786000BF0C37BD4680BC704755
:1049B00080B483B000AF78600B467B8000BF0C37BB
:1049C000BD4680BC704780B586B000AFF860B96066
:1049D0003B601346FB713BE03B6AB3F1FF3F37D0CE
:1049E000FCF770FA02463B68D31A3A6A9A4202D33D
:1049F0003B6A002B01D103233AE0FB681B68DB68AC
:104A000003F00403002B23D0BB68802B20D0BB68AD
:104A1000402B1DD0FB681B681B6803F00803082BA4
:104A200016D100237B61FB681B681B687B61FB68F8
:104A30001B685B687B617B69F86800F056F8FB686F
:104A400008225A64FB68002283F8402001230FE00B
:104A5000FB681B681A68BB681340BA689A420CBFAF
:104A600001230023DBB21A46FB799A42B4D000231B
:104A700018461837BD4680BD80B485B000AFF860D9
:104A8000B9601346FB80FB68BA689A62FB68FA88D3
:104A90009A85FB68FA88DA85FB6800225A64FB680D
:104AA000222283F84220FB681B69002B07D0FB6899
:104AB0001B68DA68FB681B6842F48072DA60FB6886
:104AC0001B685A69FB681B6842F001025A61FB6867
:104AD0001B68DA68FB681B6842F02002DA6000237A
:104AE00018461437BD4680BC704780B495B000AFFF
:104AF00078607B681B680C337B637B6B53E8003FFB
:104B00003B633B6B23F49073FB647B681B680C3343
:104B1000FA6C3A64FB63F96B3A6C41E80023BB63BF
:104B2000BB6B002BE5D17B681B6814333B623B6A8F
:104B300053E8003FFB61FB6923F00103BB647B6822
:104B40001B681433BA6CFA62BB62B96AFA6A41E84C
:104B500000237B627B6A002BE5D17B681B6B012BFA
:104B600019D17B681B680C33FB60FB6853E8003F7E
:104B7000BB60BB6823F010037B647B681B680C334D
:104B80007A6CBA617B617969BA6941E800233B615B
:104B90003B69002BE5D17B68202283F842207B68AB
:104BA00000221A6300BF5437BD4680BC704780B5F1
:104BB00084B000AF78607B685B6AFB60FB680022B2
:104BC000DA85FB680022DA84F868FFF7E8FE00BFA8
:104BD0001037BD4680BD80B485B000AF78607B687B
:104BE00093F84130DBB2212B3ED17B689B68B3F553
:104BF000805F14D17B681B69002B10D17B681B6A16
:104C0000FB60FB681B881A467B681B68C2F30802BE
:104C10005A607B681B6A9A1C7B681A6208E07B6892
:104C20001B6A591C7A6811621A787B681B685A6083
:104C30007B68DB8C9BB2013B9BB27A681946D184BE
:104C4000002B0FD17B681B68DA687B681B6822F039
:104C50008002DA607B681B68DA687B681B6842F058
:104C60004002DA60002300E0022318461437BD46F4
:104C700080BC704780B582B000AF78607B681B68ED
:104C8000DA687B681B6822F04002DA607B682022C9
:104C900083F841207868FFF779FE0023184608372B
:104CA000BD4680BD80B58CB000AF78607B6893F85E
:104CB0004230DBB2222B40F0AE807B689B68B3F5BC
:104CC000805F17D17B681B69002B13D10023FB6227
:104CD0007B689B6ABB627B681B685B689BB2C3F3A3
:104CE00008039AB2BB6A1A807B689B6A9A1C7B682D
:104CF0009A6226E07B689B6AFB620023BB627B684A
:104D00009B68B3F5805F07D07B689B68002B0AD156
:104D10007B681B69002B06D17B681B685B68DAB275
:104D2000FB6A1A7008E07B681B685B68DBB203F003
:104D30007F03DAB2FB6A1A707B689B6A5A1C7B6835
:104D40009A627B68DB8D9BB2013B9BB27A68194605
:104D5000D185002B5DD17B681B68DA687B681B6896
:104D600022F02002DA607B681B68DA687B681B68C7
:104D700022F48072DA607B681B685A697B681B6862
:104D800022F001025A617B68202283F842207B686E
:104D900000225A637B681B6B012B35D17B68002294
:104DA0001A637B681B680C337B617B6953E8003FA7
:104DB0003B613B6923F010037B627B681B680C330B
:104DC0007A6A3A62FB61F9693A6A41E80023BB6199
:104DD000BB69002BE5D17B681B681B6803F01003DF
:104DE000102B0AD10023FB607B681B681B68FB60EB
:104DF0007B681B685B68FB60FB687B689B8D194662
:104E00007868FFF7D5FD02E07868FBF745FB0023E3
:104E100002E0002300E0022318463037BD4680BD83
:104E200080B584B000AF78607B681B681B6923F491
:104E300040517B68DA687B681B680A431A617B68AB
:104E40009A687B681B691A437B685B691343BB6084
:104E50007B681B68DB6823F4B05323F00C037A688B
:104E60001268B9680B43D3607B681B685B6923F4E5
:104E700040717B689A697B681B680A435A617B684A
:104E80001B682C4A934203D1FEF714FEF86002E03F
:104E9000FEF7FCFDF860FA6813469B0013449A0085
:104EA0001A447B685B689B00B2FBF3F3224AA2FBC7
:104EB00003235B091901FA6813469B0013449A0007
:104EC0001A447B685B689B00B2FBF3F21A4BA3FBAE
:104ED00002035B09642000FB03F3D31A1B01323386
:104EE000154AA2FB03235B0903F0F0031944FA6897
:104EF00013469B0013449A001A447B685B689B002E
:104F0000B2FBF3F20C4BA3FB02035B09642000FB32
:104F100003F3D31A1B013233074AA2FB03235B09B5
:104F200003F00F027B681B680A449A6000BF1037C9
:104F3000BD4680BD003801401F85EB5180B483B071
:104F400000AF03463960FB7197F90730002B0ADB8D
:104F50003B68DAB20C4997F907301201D2B20B4420
:104F600083F800230AE03B68DAB20849FB7903F0D2
:104F70000F03043B1201D2B20B441A7600BF0C3768
:104F8000BD4680BC704700BF00E100E000ED00E0DE
:104F900080B500AF00216FF00400FFF7CFFF00BF26
:104FA00080BD000080B483B000AFEFF305833B60A9
:104FB0003B68002B03D06FF005037B600CE0094BCE
:104FC0001B68002B05D1074B01221A6000237B6070
:104FD00002E04FF0FF337B607B6818460C37BD461C
:104FE00080BC70472403002080B582B000AFEFF38F
:104FF00005833B603B68002B03D06FF005037B60AB
:1050000010E00B4B1B68012B09D1FFF7C1FF084BC8
:1050100002221A6001F072F800237B6002E04FF078
:10502000FF337B607B6818460837BD4680BD00BFF4
:105030002403002080B58EB004AFF860B9607A60B8
:1050400000233B61EFF305837B617B69002B7ED1FD
:10505000FB68002B7BD080233B621823FB6100237D
:105060007B624FF0FF33BB617B68002B45D07B68D0
:105070001B68002B02D07B681B687B627B689B6986
:10508000002B02D07B689B69FB61FB69002B08D079
:10509000FB69382B05D87B685B6803F00103002BA4
:1050A00001D0002354E07B685B69002B03D07B6850
:1050B0005B699B083B627B689B68002B0ED07B681A
:1050C000DB685B2B0AD97B681B69002B06D07B68E9
:1050D0005B69002B02D00123BB6110E07B689B68F9
:1050E000002B0CD17B68DB68002B08D17B681B6927
:1050F000002B04D10023BB6101E00023BB61BB692D
:10510000012B10D17B681B697A6892680292019327
:10511000FB690093BB683A6A796AF86800F012FE8E
:1051200003463B6113E0BB69002B10D13B6A9AB286
:1051300007F110030193FB690093BB68796AF86873
:1051400000F060FE0346012B01D000233B613B6968
:1051500018462837BD4680BD80B584B000AF786062
:10516000EFF30583BB60BB68002B03D06FF0050332
:10517000FB6007E00023FB607B68002B02D07868AF
:1051800000F086FFFB6818461037BD4680BD000062
:1051900080B485B000AFF860B9607A60FB68064AF9
:1051A0001A60BB68054A1A607B6880221A6000BFDB
:1051B0001437BD4680BC70472803002084030020BC
:1051C00080B485B000AFF860B9607A60FB68074AC8
:1051D0001A60BB68064A1A607B684FF480721A60D6
:1051E00000BF1437BD4680BC704700BF8405002057
:1051F000E005002080B483B000AF78607B6803F1E5
:1052000008027B685A607B684FF0FF329A607B68C7
:1052100003F108027B68DA607B6803F108027B68AF
:105220001A617B6800221A6000BF0C37BD4680BC43
:10523000704780B483B000AF78607B6800221A6149
:1052400000BF0C37BD4680BC704780B485B000AF4E
:10525000786039607B685B68FB603B68FA685A601D
:10526000FB689A683B689A60FB689B683A685A607A
:10527000FB683A689A603B687A681A617B681B68C9
:105280005A1C7B681A6000BF1437BD4680BC70474B
:1052900080B485B000AF786039603B681B68BB6044
:1052A000BB68B3F1FF3F03D17B681B69FB600CE077
:1052B0007B680833FB6002E0FB685B68FB60FB68AF
:1052C0005B681B68BA689A42F6D2FB685A683B680A
:1052D0005A603B685B683A689A603B68FA689A6013
:1052E000FB683A685A603B687A681A617B681B6899
:1052F0005A1C7B681A6000BF1437BD4680BC7047DB
:1053000080B485B000AF78607B681B69FB607B6808
:105310005B687A6892689A607B689B687A68526872
:105320005A60FB685B687A689A4203D17B689A6826
:10533000FB685A607B6800221A61FB681B685A1E72
:10534000FB681A60FB681B6818461437BD4680BCB2
:105350007047000080B584B000AF786039607B682A
:10536000FB60FB68002B0BD14FF0500383F31188D7
:10537000BFF36F8FBFF34F8FBB6000BF00BFFDE770
:1053800002F034F8FB681A68FB68DB6BF968096C9B
:1053900001FB03F31A44FB689A60FB6800229A63DE
:1053A000FB681A68FB685A60FB681A68FB68DB6B6D
:1053B000013BF968096C01FB03F31A44FB68DA60EE
:1053C000FB68FF2283F84420FB68FF2283F8452016
:1053D0003B68002B14D1FB681B69002B1AD0FB68BB
:1053E0001033184601F016F90346002B12D00D4B6E
:1053F0004FF080521A60BFF34F8FBFF36F8F09E0F9
:10540000FB6810331846FFF7F5FEFB682433184697
:10541000FFF7F0FE02F01AF8012318461037BD46D8
:1054200080BD00BF04ED00E080B58EB002AFF86033
:10543000B9607A603B60FB68002B0BD14FF05003E2
:1054400083F31188BFF36F8FBFF34F8FBB6200BF31
:1054500000BFFDE73B68002B0BD14FF0500383F3F7
:105460001188BFF36F8FBFF34F8F7B6200BF00BF08
:10547000FDE77B68002B02D0BB68002B01D0012325
:1054800000E00023002B0BD14FF0500383F3118871
:10549000BFF36F8FBFF34F8F3B6200BF00BFFDE7CD
:1054A0007B68002B02D1BB68002B01D1012300E0F7
:1054B0000023002B0BD14FF0500383F31188BFF36F
:1054C0006F8FBFF34F8FFB6100BF00BFFDE750231D
:1054D0007B617B69502B0BD04FF0500383F3118815
:1054E000BFF36F8FBFF34F8FBB6100BF00BFFDE7FE
:1054F0007B693B68FB62FB6A002B0DD0FB6A0122D3
:1055000083F8462097F83820FB6A009313467A68A0
:10551000B968F86800F005F8FB6A18463037BD46F0
:1055200080BD80B584B000AFF860B9607A60FB7070
:10553000BB68002B03D1BB69BA691A6002E0BB6982
:105540007A681A60BB69FA68DA63BB69BA681A6478
:105550000121B869FFF7FEFEBB69FA7883F84C2099
:1055600000BF1037BD4680BD80B58EB000AFF8607B
:10557000B9607A603B6000237B63FB683B633B6BF5
:10558000002B0BD14FF0500383F31188BFF36F8FC3
:10559000BFF34F8FBB6200BF00BFFDE7BB68002BAE
:1055A00003D13B6B1B6C002B01D1012300E00023D6
:1055B000002B0BD14FF0500383F31188BFF36F8F93
:1055C000BFF34F8F7B6200BF00BFFDE73B68022B3C
:1055D00003D13B6BDB6B012B01D1012300E00023E6
:1055E000002B0BD14FF0500383F31188BFF36F8F63
:1055F000BFF34F8F3B6200BF00BFFDE701F0CAF968
:105600000346002B02D17B68002B01D1012300E06F
:105610000023002B0BD14FF0500383F31188BFF30D
:105620006F8FBFF34F8FFB6100BF00BFFDE701F03D
:10563000DDFE3B6B9A6B3B6BDB6B9A4202D33B68A4
:10564000022B29D13A68B968386B00F00FFAF8627A
:105650003B6B5B6A002B10D03B6B2433184600F089
:10566000D9FF0346002B13D03F4B4FF080521A60F6
:10567000BFF34F8FBFF36F8F0AE0FB6A002B07D099
:10568000394B4FF080521A60BFF34F8FBFF36F8FCB
:1056900001F0DCFE012363E07B68002B03D101F005
:1056A000D5FE00235CE07B6B002B06D107F11403D1
:1056B000184601F013F801237B6301F0C7FE00F0E8
:1056C00085FD01F093FE3B6B93F844305BB2B3F180
:1056D000FF3F03D13B6B002283F844203B6B93F8E0
:1056E00045305BB2B3F1FF3F03D13B6B002283F83F
:1056F000452001F0ABFE3A1D07F114031146184690
:1057000001F002F80346002B24D1386B00F0A6FA12
:105710000346002B18D03B6B10337A6811461846AD
:1057200000F026FF386B00F031FA00F05DFD034613
:10573000002B7FF47CAF0C4B4FF080521A60BFF30C
:105740004F8FBFF36F8F72E7386B00F01FFA00F0D6
:105750004BFD6CE7386B00F019FA00F045FD0023B3
:1057600018463837BD4680BD04ED00E080B590B0E6
:1057700000AFF860B9607A603B60FB68BB63BB6BED
:10578000002B0BD14FF0500383F31188BFF36F8FC1
:10579000BFF34F8FBB6200BF00BFFDE7BB68002BAC
:1057A00003D1BB6B1B6C002B01D1012300E0002354
:1057B000002B0BD14FF0500383F31188BFF36F8F91
:1057C000BFF34F8F7B6200BF00BFFDE73B68022B3A
:1057D00003D1BB6BDB6B012B01D1012300E0002364
:1057E000002B0BD14FF0500383F31188BFF36F8F61
:1057F000BFF34F8F3B6200BF00BFFDE701F0B8FE73
:10580000EFF311824FF0500383F31188BFF36F8FD2
:10581000BFF34F8FFA61BB61FB697B63BB6B9A6B14
:10582000BB6BDB6B9A4202D33B68022B2FD1BB6B65
:1058300093F8453087F83330BB6B9B6BFB623A685B
:10584000B968B86B00F012F997F93330B3F1FF3F44
:1058500012D1BB6B5B6A002B16D0BB6B243318468E
:1058600000F0D8FE0346002B0ED07B68002B0BD037
:105870007B6801221A6007E097F833300133DBB20E
:105880005AB2BB6B83F845200123FB6301E0002380
:10589000FB637B6B7B617B6983F3118800BFFB6BD0
:1058A00018464037BD4680BD80B58CB000AFF8606B
:1058B000B9607A600023FB62FB68BB62BB6A002BA5
:1058C0000BD14FF0500383F31188BFF36F8FBFF3F9
:1058D0004F8F3B6200BF00BFFDE7BB68002B03D1C9
:1058E000BB6A1B6C002B01D1012300E00023002BBD
:1058F0000BD14FF0500383F31188BFF36F8FBFF3C9
:105900004F8FFB6100BF00BFFDE701F043F8034686
:10591000002B02D17B68002B01D1012300E0002382
:10592000002B0BD14FF0500383F31188BFF36F8F1F
:10593000BFF34F8FBB6100BF00BFFDE701F056FD15
:10594000BB6A9B6B7B627B6A002B1FD0B968B86A0D
:1059500000F0F6F87B6A5A1EBB6A9A63BB6A1B6941
:10596000002B0FD0BB6A1033184600F053FE0346DD
:10597000002B07D03C4B4FF080521A60BFF34F8F83
:10598000BFF36F8F01F062FD012369E07B68002B9C
:1059900003D101F05BFD002362E0FB6A002B06D11E
:1059A00007F11003184600F099FE0123FB6201F095
:1059B0004DFD00F00BFC01F019FDBB6A93F844307B
:1059C0005BB2B3F1FF3F03D1BB6A002283F84420EE
:1059D000BB6A93F845305BB2B3F1FF3F03D1BB6ABA
:1059E000002283F8452001F031FD3A1D07F1100334
:1059F0001146184600F088FE0346002B23D1B86AF2
:105A000000F016F90346002B17D0BB6A24337A68DE
:105A10001146184600F0ACFDB86A00F0B7F800F087
:105A2000E3FB0346002B89D10F4B4FF080521A60E5
:105A3000BFF34F8FBFF36F8F80E7B86A00F0A6F80F
:105A400000F0D2FB7AE7B86A00F0A0F800F0CCFBD7
:105A5000B86A00F0EDF80346002B3FF46FAF002367
:105A600018463037BD4680BD04ED00E080B586B0F5
:105A700000AFF860B9607A6000237B61FB689B6BC4
:105A80003B61FB681B6C002B0DD1FB681B68002B76
:105A90004DD1FB689B68184600F09AFF7861FB685F
:105AA00000229A6043E07B68002B19D1FB6858689C
:105AB000FB681B6C1A46B96801F0B2FFFB685A68B4
:105AC000FB681B6C1A44FB685A60FB685A68FB68E9
:105AD0009B689A422BD3FB681A68FB685A6026E0E1
