:020000040800F2
:1000000000500020212C0008B12B0008B32B000861
:10001000B52B0008B72B0008B92B00080000000022
:10002000000000000000000000000000716E0008E9
:10003000BB2B000800000000016F0008BD2B00086A
:10004000692C0008692C0008692C0008692C00083C
:10005000692C0008D52B0008692C0008692C0008C1
:10006000692C0008692C0008692C0008692C00081C
:10007000692C0008692C0008692C0008692C00080C
:10008000692C0008692C0008692C0008692C0008FC
:10009000692C0008692C0008692C0008692C0008EC
:1000A000D92B0008E52B0008692C0008E92B000873
:1000B000692C0008ED2B0008692C0008F92B0008BA
:1000C000052C0008692C0008692C0008692C000820
:1000D000692C0008692C0008112C0008692C000804
:1000E000692C0008692C0008692C00080000000039
:1000F0000000000000000000000000000000000000
:0C01000000000000000000005FF808F1A3
:1001100010B5054C237833B9044B13B10448AFF341
:1001200000800123237010BD880000200000000023
:100130002C74000808B5034B1BB103490348AFF307
:10014000008008BD000000008C0000202C74000816
:1001500070B54FF0FF0C4CF4E06C1CEA11541DBF5D
:100160001CEA135594EA0C0F95EA0C0F00F0DEF828
:100170002C4481EA030621EA4C5123EA4C5350EA0D
:10018000013518BF52EA033541F4801143F480135E
:1001900038D0A0FB02CE4FF00005E1FB02E506F0EF
:1001A0000042E0FB03E54FF00006E1FB03569CF044
:1001B000000F18BF4EF0010EA4F1FF04B6F5007F4A
:1001C00064F5407404D25FEA4E0E6D4146EB0606BC
:1001D00042EAC62141EA55514FEAC52040EA5E5045
:1001E0004FEACE2EB4F1FD0C88BFBCF5E06F1ED8EF
:1001F000BEF1004F08BF5FEA500E50F1000041EB26
:10020000045170BD06F0004646EA010140EA0200D2
:1002100081EA0301B4EB5C04C2BFD4EB0C0541EAF4
:10022000045170BD41F480114FF0000E013C00F309
:10023000AB8014F1360FDEBF002001F0004170BD2D
:10024000C4F10004203C35DA0C341BDC04F1140446
:10025000C4F1200500FA05F320FA04F001FA05F2D2
:1002600040EA020001F0004221F0004110EBD3709F
:1002700021FA04F642EB06015EEA430E08BF20EACB
:10028000D37070BDC4F10C04C4F1200500FA04F36E
:1002900020FA05F001FA04F240EA020001F0004100
:1002A00010EBD37041F100015EEA430E08BF20EA73
:1002B000D37070BDC4F1200500FA05F24EEA020EBB
:1002C00020FA04F301FA05F243EA020321FA04F0EA
:1002D00001F0004121FA04F220EA020000EBD370A1
:1002E0005EEA430E08BF20EAD37070BD94F0000FA1
:1002F0000FD101F00046400041EB010111F4801FD5
:1003000008BF013CF7D041EA060195F0000F18BF85
:10031000704703F00046520043EB030313F4801FC1
:1003200008BF013DF7D043EA0603704794EA0C0F7B
:100330000CEA135518BF95EA0C0F0CD050EA410691
:1003400018BF52EA4306D1D181EA030101F000410E
:100350004FF0000070BD50EA410606BF1046194636
:1003600052EA430619D094EA0C0F02D150EA013642
:1003700013D195EA0C0F05D152EA03361CBF104683
:1003800019460AD181EA030101F0004141F0FE4122
:1003900041F470014FF0000070BD41F0FE4141F4A6
:1003A000780170BD81F0004102E000BF83F000439E
:1003B00030B54FEA41044FEA430594EA050F08BF00
:1003C00090EA020F1FBF54EA000C55EA020C7FEAC4
:1003D000645C7FEA655C00F0E2804FEA5454D4EB41
:1003E0005555B8BF6D420CDD2C4480EA020281EA0B
:1003F000030382EA000083EA010180EA020281EA43
:100400000303362D88BF30BD11F0004F4FEA013194
:100410004FF4801C4CEA113102D0404261EB4101A3
:1004200013F0004F4FEA03334CEA133302D0524229
:1004300063EB430394EA050F00F0A780A4F10104E5
:10044000D5F1200E0DDB02FA0EFC22FA05F280181F
:1004500041F1000103FA0EF2801843FA05F3594105
:100460000EE0A5F120050EF1200E012A03FA0EFC84
:1004700028BF4CF0020C43FA05F3C01851EBE371AE
:1004800001F0004507D54FF0000EDCF1000C7EEBCB
:1004900000006EEB0101B1F5801F1BD3B1F5001F09
:1004A0000CD349085FEA30004FEA3C0C04F1010428
:1004B0004FEA445212F5800F80F09A80BCF1004F51
:1004C00008BF5FEA500C50F1000041EB045141EAD3
:1004D000050130BD5FEA4C0C404141EB0101013C9C
:1004E00028BFB1F5801FE9D291F0000F04BF01468B
:1004F0000020B1FA81F308BF2033A3F10B03B3F15D
:1005000020020CDA0C3208DD02F1140CC2F10C02EC
:1005100001FA0CF021FA02F10CE002F11402D8BF4A
:10052000C2F1200C01FA02F120FA0CFCDCBF41EA16
:100530000C019040E41AA2BF01EB0451294330BDE5
:100540006FEA04041F3C1CDA0C340EDC04F11404C2
:10055000C4F1200220FA04F001FA02F340EA030099
:1005600021FA04F345EA030130BDC4F10C04C4F1DF
:10057000200220FA02F001FA04F340EA03002946BF
:1005800030BD21FA04F0294630BD94F0000F83F409
:10059000801306BF81F480110134013D4EE77FEAEC
:1005A000645C18BF7FEA655C29D094EA050F08BF38
:1005B00090EA020F05D054EA000C04BF1946104619
:1005C00030BD91EA030F1EBF0021002030BD5FEA5D
:1005D000545C05D14000494128BF41F0004130BD85
:1005E00014F580043CBF01F5801130BD01F00045D9
:1005F00045F0FE4141F470014FF0000030BD7FEA4C
:10060000645C1ABF194610467FEA655C1CBF0B4646
:10061000024650EA013406BF52EA033591EA030F5D
:1006200041F4002130BD00BF90F0000F04BF002155
:10063000704730B54FF4806404F132044FF0000588
:100640004FF0000150E700BF90F0000F04BF002101
:10065000704730B54FF4806404F1320410F0004567
:1006600048BF40424FF000013EE700BF42004FEA62
:10067000E2014FEA31014FEA02701FBF12F07F43DF
:1006800093F07F4F81F06051704732F07F4208BF96
:10069000704793F07F4F04BF41F40021704730B59D
:1006A0004FF4607401F0004521F000411CE700BFE9
:1006B00050EA010208BF704730B54FF000050AE06C
:1006C00050EA010208BF704730B511F0004502D56D
:1006D000404261EB41014FF4806404F132045FEA6F
:1006E000915C3FF4D8AE4FF003025FEADC0C18BF18
:1006F00003325FEADC0C18BF033202EBDC02C2F10A
:10070000200300FA03FC20FA02F001FA03FE40EA9B
:100710000E0021FA02F11444BDE600BF4A0011D2D6
:1007200012F5001211D20DD56FF47873B3EB62524B
:100730000ED44FEAC12343F0004343EA505323FA57
:1007400002F070474FF00000704750EA013002D1CC
:100750004FF0FF3070474FF0000070474FEA410202
:10076000B2F1E04324BFB3F5001CDCF1FE5C0DD90F
:1007700001F0004C4FEAC0024CEA5070B2F1004F59
:1007800040EB830008BF20F00100704711F0804F5C
:1007900021D113F13872BCBF01F00040704741F421
:1007A00080114FEA5252C2F11802C2F1200C10FA25
:1007B0000CF320FA02F018BF40F001004FEAC12309
:1007C0004FEAD32303FA0CFC40EA0C0023FA02F3AD
:1007D0004FEA4303CCE77FEA625307D150EA013383
:1007E0001EBF4FF0FE4040F44000704701F0004053
:1007F00040F0FE4040F40000704700BF80F0004031
:1008000002E000BF81F0004142001FBF5FEA4103E8
:1008100092EA030F7FEA226C7FEA236C6AD04FEAE8
:100820001262D2EB1363C1BFD2184140484041402D
:10083000B8BF5B42192B88BF704710F0004F40F4DF
:10084000000020F07F4018BF404211F0004F41F4FB
:10085000000121F07F4118BF494292EA030F3FD0C7
:10086000A2F1010241FA03FC10EB0C00C3F12003DA
:1008700001FA03F100F0004302D5494260EB400069
:10088000B0F5000F13D3B0F1807F06D340084FEAD4
:10089000310102F10102FE2A51D2B1F1004F40EBC9
:1008A000C25008BF20F0010040EA03007047490031
:1008B00040EB0000013A28BFB0F5000FEDD2B0FACE
:1008C00080FCACF1080CB2EB0C0200FA0CF0AABFF1
:1008D00000EBC25052421843BCBFD040184370478F
:1008E00092F0000F81F4000106BF80F40000013295
:1008F000013BB5E74FEA41037FEA226C18BF7FEA6C
:10090000236C21D092EA030F04D092F0000F08BFAD
:100910000846704790EA010F1CBF0020704712F094
:100920007F4F04D1400028BF40F00040704712F1D3
:1009300000723CBF00F50000704700F0004343F038
:10094000FE4040F4000070477FEA226216BF08466E
:100950007FEA23630146420206BF5FEA412390EA31
:10096000010F40F4800070474FF0000304E000BF27
:1009700010F0004348BF40425FEA000C08BF7047D8
:1009800043F0964301464FF000001CE050EA01029C
:1009900008BF70474FF000030AE000BF50EA0102B1
:1009A00008BF704711F0004302D5404261EB41019E
:1009B0005FEA010C02BF84460146002043F0B643C3
:1009C00008BFA3F18053A3F50003BCFA8CF2083AE8
:1009D000A3EBC25310DB01FA02FC634400FA02FCF1
:1009E000C2F12002BCF1004F20FA02F243EB0200F8
:1009F00008BF20F00100704702F1200201FA02FC5A
:100A0000C2F1200250EA4C0021FA02F243EB02004C
:100A100008BF20EADC7070474FF0FF0C1CEAD05290
:100A20001EBF1CEAD15392EA0C0F93EA0C0F6FD051
:100A30001A4480EA010C400218BF5FEA41211ED02F
:100A40004FF0006343EA501043EA5111A0FB01311B
:100A50000CF00040B1F5000F3EBF490041EAD371F0
:100A60005B0040EA010062F17F02FD2A1DD8B3F16C
:100A7000004F40EBC25008BF20F00100704790F0DB
:100A8000000F0CF0004C08BF49024CEA502040EA2D
:100A900051207F3AC2BFD2F1FF0340EAC2507047F3
:100AA00040F400004FF00003013A5DDC12F1190F31
:100AB000DCBF00F000407047C2F10002410021FAA3
:100AC00002F1C2F1200200FA02FC5FEA310040F1BB
:100AD000000053EA4C0308BF20EADC70704792F034
:100AE000000F00F0004C02BF400010F4000F013A6C
:100AF000F9D040EA0C0093F0000F01F0004C02BF67
:100B0000490011F4000F013BF9D041EA0C018FE7D5
:100B10000CEAD15392EA0C0F18BF93EA0C0F0AD0DB
:100B200030F0004C18BF31F0004CD8D180EA010001
:100B300000F00040704790F0000F17BF90F0004F9A
:100B4000084691F0000F91F0004F14D092EA0C0F7C
:100B500001D142020FD193EA0C0F03D14B0218BF0F
:100B6000084608D180EA010000F0004040F0FE4055
:100B700040F40000704740F0FE4040F440007047F1
:100B80004FF0FF0C1CEAD0521EBF1CEAD15392EA70
:100B90000C0F93EA0C0F69D0A2EB030280EA010C60
:100BA00049024FEA402037D04FF0805343EA1111F9
:100BB00043EA10130CF000408B4238BF5B0042F157
:100BC0007D024FF4000C8B4224BF5B1A40EA0C00FC
:100BD000B3EB510F24BFA3EB510340EA5C00B3EB2E
:100BE000910F24BFA3EB910340EA9C00B3EBD10F1C
:100BF00024BFA3EBD10340EADC001B0118BF5FEA6E
:100C00001C1CE0D1FD2A3FF650AF8B4240EBC25096
:100C100008BF20F0010070470CF0004C4CEA502057
:100C20007F32C2BFD2F1FF0340EAC250704740F4A6
:100C300000004FF00003013A37E792F0000F00F098
:100C4000004C02BF400010F4000F013AF9D040EA16
:100C50000C0093F0000F01F0004C02BF490011F4AA
:100C6000000F013BF9D041EA0C0195E70CEAD153A2
:100C700092EA0C0F08D142027FF47DAF93EA0C0F89
:100C80007FF470AF084676E793EA0C0F04D14B026D
:100C90003FF44CAF08466EE730F0004C18BF31F01F
:100CA000004CCAD130F000427FF45CAF31F0004319
:100CB0007FF43CAF5FE700BF4FF0FF3C06E000BFB2
:100CC0004FF0010C02E000BF4FF0010C4DF804CDD5
:100CD0004FEA40024FEA41037FEA226C18BF7FEAE5
:100CE000236C11D001B052EA530C18BF90EA010FE7
:100CF00058BFB2EB030088BFC81738BF6FEAE17076
:100D000018BF40F0010070477FEA226C02D15FEA11
:100D1000402C05D17FEA236CE4D15FEA412CE1D07D
:100D20005DF8040B704700BF844608466146FFE744
:100D30000FB5FFF7C9FF002848BF10F1000F0FBD26
:100D40004DF808EDFFF7F4FF0CBF012000205DF81F
:100D500008FB00BF4DF808EDFFF7EAFF34BF0120A4
:100D600000205DF808FB00BF4DF808EDFFF7E0FF3D
:100D700094BF012000205DF808FB00BF4DF808ED8E
:100D8000FFF7D2FF94BF012000205DF808FB00BFF1
:100D90004DF808EDFFF7C8FF34BF012000205DF8D3
:100DA00008FB00BF4FEA40024FEA41037FEA226C92
:100DB00002D15FEA402C08D17FEA236C02D15FEABE
:100DC000412C02D14FF0000070474FF001007047F6
:100DD00042000ED2B2F1FE4F0BD34FF09E03B3EBA5
:100DE000126209D44FEA002343F0004323FA02F0D1
:100DF00070474FF00000704712F1610F01D14202BD
:100E000002D14FF0FF3070474FF00000704700BF35
:100E1000034B024658700821024802F099B900BFFE
:100E2000A4000020000C0140064AB2F88030003BCC
:100E300018BF01230370B2F88230003B18BF0123B2
:100E400043707047720100200278034BA3F88020A2
:100E50004278A3F8822070477201002001280A46D8
:100E600005D1064B06481970102102F071B902280D
:100E700002D10846FFF7CCBF704700BFA400002096
:100E8000000C014010B5094CE3880BB9E18C01B1AD
:100E900001210120FFF7E2FFB4F90032BDE8104064
:100EA000002BB4BF01200020FFF7B2BF7201002069
:100EB000642238B5104B00245A804FF496720F4DBF
:100EC000214628461A811C741C809C80DC805C8131
:100ED0009C81DC8103F047FB00222B6808495C629F
:100EE000084B1A605A61012259609C811C829C60E7
:100EF00083F8202038BD00BFA60000207C0500201C
:100F000000000C4200000020164B10B51C688388BE
:100F1000012B154B06D1002262629A60028082800A
:100F2000DA600BE0626A998992B2914207D8511A4D
:100F300089B2C8290AD99A6901329A6110BDD96962
:100F4000C82A01F10101D96102D811460129F2D064
:100F5000B2F5FA4F9A81DA810280EFD30022626201
:100F60000280DDE77C05002000000020084BB3F87C
:100F70004E204280B3F850208280B3F85220C280C5
:100F8000B3F854200281B3F856304381704700BF54
:100F90007201002002880E4BA3F84C20C289A3F8EE
:100FA0005A208289A3F85820027CA3F85C2042884A
:100FB000A3F84E208288A3F85020C288A3F85220BC
:100FC0000289A3F854204289A3F85620704700BF35
:100FD00072010020000000002DE9F041384C208A09
:100FE000E789D4F81480874232BF3846381A80B275
:100FF00028B94046FFF7ECFE80B2BDE8F081314BE6
:101000001B79022B14BF01234FF0FF335843A36811
:101010000344A360FFF7ACFC4FF07651FFF7FCFCF4
:1010200005466068FFF722FB23A3D3E90023FFF7FF
:101030008FF8FFF793FB01462846FFF7EDFC216888
:10104000FFF7E2FB00210546FFF784FE00282FD1C1
:1010500028461D49FFF79CFE00B11B4D1A49284642
:101060002560FFF78DFD1949FFF7D6FC01461848AA
:10107000FFF7C8FB06F050F916490646FFF76AFE6F
:10108000C0B930461449FFF783FE00B1124E28461E
:1010900012496660FFF7C0FC114905464046FFF75C
:1010A000BBFC01462846FFF7AFFB27826061A1E742
:1010B0000025D3E7074EEAE7182D4454FB211940D9
:1010C000000000203601002000803B4500A08C4439
:1010D000002099440000204100000C429A99193EDA
:1010E0009A99593F064B074A00215A60DA891960DC
:1010F0009A811A8200225961C3E906229A607047D8
:101100000000002000000C42034A116800224A62DD
:101110000280C281FFF7E6BF7C05002010B52021C8
:101120000446064802F00EF830B10123204623742D
:10113000BDE81040FFF7E8BF207410BD0008014073
:1011400010B50446FFF7EAFF2046FFF7DDFEFFF784
:1011500043FF0A23B0FBF3F0E08110BD38B5002453
:101160000B4D224610210B482C7101F0F1FF224655
:101170000221094801F0ECFFEC70084D2146284699
:1011800003F082FD2846BDE83840042103F07CBD11
:101190003601002000080140000C01403405002009
:1011A0000128024608B50ED10D4B4FF4007118719D
:1011B0000C4801F0CDFF0022BDE808404FF48051FB
:1011C000094801F0C5BF022809D1054B002218715A
:1011D0004FF40071034801F0BBFF0122ECE708BDAA
:1011E0002401002000080140000C0140234B33F88B
:1011F000112002704A1C33F8122042708A1C33F806
:1012000012208270CA1C33F81220C2700A1D33F8F3
:10121000122002714A1D33F8122042718A1D33F8E0
:1012200012208271CA1D33F81220C27101F1080226
:1012300033F81220027201F1090233F812204272CF
:1012400001F10A0233F81220827201F10B0233F825
:101250001220C27201F10C0233F81220027301F164
:101260000D0233F81220427301F10E0233F81220FE
:101270000F31C28133F811300382704772010020B0
:101280000F4BB3F800220280B3F802224281B3F878
:1012900004228281B3F80622C281B3F808220282B6
:1012A000B3F80A224280B3F80C224282B3F80E222D
:1012B0008280B3F81022C280B3F8123203817047E3
:1012C000720100200278244B10B523F811204478D5
:1012D0004A1C23F8124084788A1C23F81240C478F0
:1012E000CA1C23F8124004790A1D23F812404479DD
:1012F0004A1D23F8124084798A1D23F81240C479CC
:10130000CA1D23F81240047A01F1080223F81240A2
:10131000447A01F1090223F81240847A01F10A02A9
:1013200023F81240C47A01F10B0223F81240047B27
:1013300001F10C0223F81240447B01F10D0223F865
:101340001240C48901F10E0223F81240028A0F31C3
:1013500023F8112010BD00BF7201002002880F4B3E
:10136000A3F800224288A3F80A228288A3F80E225A
:10137000C288A3F810220289A3F812224289A3F896
:1013800002228289A3F80422C289A3F80622028AD3
:10139000A3F80822428AA3F80C22704772010020A9
:1013A000024608B9FFF7DABE012805D1064B1871CD
:1013B0001021064801F0CCBE022803D1024B0022C6
:1013C0001871F5E7704700BF3601002000080140A2
:1013D00038B50446C0B90E4D024628714FF400716D
:1013E0000C4801F0B5FE22464FF480510A4801F046
:1013F000AFFE21460948EC7003F046FCBDE83840DA
:101400000821064803F040BCBDE83840FFF7C8BEDD
:101410002401002000080140000C0140C405002008
:1014200038B5074D2B682846DC6A64234C43B4FB6F
:10143000F3F4002103F0ECFB2B685C6338BD00BFC4
:101440003405002038B5114C2368DD6A64234D4310
:10145000B5FBF3F50379012B0AD10821204603F0EF
:1014600013FC0021204603F0D3FB23685D6338BDE5
:10147000022BFCD10021204603F006FC0821204667
:1014800003F0C6FB2368DD63F1E700BFC40500205D
:1014900038B5174A4178904214BF0222012201292F
:1014A0000346144D0FD104796CB1017329838478FC
:1014B000012A2146C47003D1FFF7B2FF204638BD90
:1014C000FFF7C0FFFAE70024012A1C7321462C8392
:1014D00018461C71DC7005D1FFF7A2FFFFF73EFE36
:1014E0000024EBE7FFF7AEFF2046FFF771FFF7E7B9
:1014F00036010020720100202DE9F041644F43784D
:10150000B84214BF02270127012B0446614A40F06C
:10151000A5800179002900F0A1805F4E0373138339
:1015200033788578052B00F29080DFE803F0031C08
:1015300039516B80022303712846FFF785F852A3C7
:10154000D3E90023FEF704FEFFF7E8F8C5B25348DD
:10155000037CC3B1FFF7D8FD0123337003F090FF84
:101560004F4B18600FE00023037103F089FF4C4DCF
:101570002B6803F5FA73984204D30223337003F007
:101580007FFF28600025012F29462046E5705FD1A6
:10159000FFF746FF2079FFF703FF2846BDE8F081FB
:1015A000012303712846FFF74FF837A3D3E900233F
:1015B000FEF7CEFDFFF7B2F8DFF8E080C5B2404697
:1015C000FFF70AFDB8F808308342DCD80323C4E7EC
:1015D0000023037103F054FFDFF8C480D8F8003013
:1015E00003F5FA739842CDD301232C4D2846AB81E5
:1015F000FFF7F2FC04232881337003F041FFC8F8A1
:101600000000BFE7022303712846FFF71DF81EA361
:10161000D3E90023FEF79CFDFFF780F8C5B21F4811
:10162000037C002BAFD0FFF76FFD052395E7002566
:10163000057103F025FF1A4B1B6803F57A73984276
:10164000A0D30123357023809CE7002333709AE7F1
:10165000FFF7F8FE2079FFF7BBFE9EE70025012F7C
:1016600025732946158320462571E57005D1FFF7BE
:10167000D7FEFFF773FD00258FE7FFF7E3FE28464F
:10168000FFF7A6FEF7E700BF5C8FC2F5285CEF3FCF
:101690003601002072010020CC000020A6000020AE
:1016A000C8000020F8B51E46114B0128114C08BF98
:1016B0001C464FF00005104B084623610F4B256078
:1016C00063610F4B6560A3610E4BA560E560174633
:1016D0000D4C08BF1C46FFF77BFBE0713846FFF757
:1016E00077FB20723046FFF773FB6072F8BD00BFD6
:1016F000F0000020D000002000007A4400002041CB
:101700000000C84236010020240100202DE9F74FD7
:1017100081465A4BB9F1010F594E08BF1E46594B2D
:1017200008461146584C08BF1C46FFF76BF80546A3
:10173000E060307AFFF718F95449FFF721FA0746BD
:10174000707AFFF711F95149FFF71AFA8246F079DA
:10175000FFF70AF94D49FFF713FA2946FFF75CF93D
:101760004B4983462846FFF757F92168FFF74CF8A5
:101770000021804620603846A669FFF7E1FA00287C
:1017800062D139463046FFF7FBF9014640460191E8
:10179000FFF7FEFA0199002858D0216038462168E9
:1017A000FFF73AF9616801902846FFF72BF83849AE
:1017B000FFF7E6F9B9F1010F36490CBF364F374F45
:1017C000FFF72AF9D7F80080814635494046FFF7F0
:1017D00023F901464846FFF717F80199814638601A
:1017E00065605846FFF710F8514605464846FFF732
:1017F00013F901462846FFF707F8254905466069B1
:10180000FFF70AF9D4F80890074649462846FEF73C
:10181000F9FF804601463846FFF79CFA00B3394687
:101820004846FEF7F1FF054631462846FFF7B0FA75
:1018300028B900212846FFF78DFAE8B92E46304630
:10184000A66003B0BDE8F08F21699FE701F1004178
:1018500040460191FFF77EFA00289FD001999CE74E
:10186000414607F10040FFF793FA0028DCD03946E3
:101870004846FEF7C7FFD6E70026E0E7360100201E
:1018800024010020F0000020D00000200000C84209
:101890000AD7233CCDCCCC3DC4000020C0000020A2
:1018A0006666663F0000000070B5354B354D9842C6
:1018B000354B044608BF1D46437814BF0226012657
:1018C00023B10378022B01D1037913BB00232B60D2
:1018D0006B60AB60EB60EB610025012EE5700ED113
:1018E000294A29462046D361FFF79AFDFFF736FCC7
:1018F0002946264803F0C8F90025284670BD214A2C
:1019000020462946D361FFF79DFD2846FFF760FD7D
:10191000F2E7807AFFF728F86861E078FFF724F8AB
:101920000546A078FFF720F82A4601463046FFF723
:10193000EDFEFFF74DFAC3B26079E370984228BF1D
:101940001846A379834202D9002818BF1846FEF72B
:101950007BFE09A3D3E90023FEF7FAFBFEF7DEFEC8
:10196000012EC5B22946204602D1FFF759FDC4E732
:10197000FFF768FDC1E700BF5C8FC2F5285CEF3F51
:1019800036010020D0000020F000002034050020A7
:101990002DE9F04F8146614BB9F1010F604E08BF50
:1019A0001E46604B85B0084611465F4D08BF1D4678
:1019B000FEF728FF0021E8600746FFF7E9F9002855
:1019C00040F0908007F10048307AFEF7CDFF57498C
:1019D000FFF7D6F88346707AFEF7C6FF5349FFF744
:1019E000CFF80190B078FEF7BFFF0446F079FEF71C
:1019F000BBFF4E49FFF7C4F84146FFF70DF84C49CD
:101A000002903846FFF708F82968FEF7FDFE4949BD
:101A10008246FFF7BDF9002866D150464649FFF7D8
:101A200099F9002863D151465846C5F800A0FEF741
:101A3000F3FF696883463846FEF7E4FE3C49FFF74A
:101A40009FF8B9F1010F0CBF3C4B3D4B3D49D3F81A
:101A500000900393FEF7E0FF3B4982464846FEF7BD
:101A6000DBFF01465046FEF7CFFE039B8146186020
:101A700059466F600298FEF7C7FE0199074648462F
:101A8000FEF7CAFF01463846FEF7BEFE074601468E
:101A90002046FFF75FF900B93C4677793846FEF7F4
:101AA00067FF2146FFF756F918B13846FEF75CFF8D
:101AB000044600212046FFF76BF90027D0B1B67924
:101AC0003046FEF755FF2146FFF762F918B1304660
:101AD000FEF74AFF04464FF07E514046FFF744F9B7
:101AE00080B10DE0B8466FE7DFF848A09BE7DFF86C
:101AF00048A098E74FF07E514046FFF735F930B1E6
:101B00002F6000242046AC6005B0BDE8F08F394658
:101B10002046FFF71FF90028F3D1F3E73601002034
:101B200024010020F0000020D00000200000C84266
:101B30000AD7233C00004842000048C2BC000020F5
:101B4000B8000020CDCCCC3D6666663F00000000AA
:101B50002DE9F041464B474E9842474B044608BF9B
:101B60001E46437814BF0225012513B10378032BC9
:101B70001ED0002333607360B360F3600026012D34
:101B8000E6700DD131462046FFF74AFCFFF7E6FA32
:101B900031463A4803F078F800263046BDE8F08137
:101BA00020460021FFF74EFC0020FFF711FCF3E771
:101BB000B0F80E80078AA7EB08031BB283EAE37232
:101BC000A2EBE37292B2012A09D80021012D017122
:101BD000C170E5D1FFF724FCFFF7C0FADCE7002B6A
:101BE00035DD01208542207136D12846FFF7D8FB2C
:101BF000A07AFEF7B9FE70614046FEF7B5FE0646D4
:101C00003846FEF7B1FE324601462846FFF7C0FED1
:101C1000FFF7DEF8C3B26079E370984228BF184638
:101C2000A379834202D9002818BF1846FEF70CFD9D
:101C30000DA3D3E90023FEF78BFAFEF76FFD012D0C
:101C4000C6B2314620460AD1FFF7EAFBA5E7CFD05E
:101C50000220012D2071C9D0FFF7A2FAC8E7FFF7D3
:101C6000F1FB9AE7AFF300805C8FC2F5285CEF3F91
:101C700036010020D0000020F000002034050020B4
:101C800038B5204B204DDB89204A4178C381204B59
:101C90000446A84208BF1346012918D10378013B26
:101CA000092B08D8DFE803F0050A0D070707070727
:101CB0000710FFF7EDFBAC421FD117E0FFF7F4FD73
:101CC000F9E7FFF745FFF6E7FFF716FCF3E7002912
:101CD000F1D1104A017311830022A8421A605A60A0
:101CE0009A60DA60C17006D1FFF79AFB2879BDE8E7
:101CF0003840FFF755BBFFF7A5FB2079BDE838401A
:101D0000FFF766BBA600002036010020F00000208F
:101D1000D00000207201002070B500F029F80021E9
:101D20000D48FFF763FA0D4E0D4D0E4C10210E4875
:101D3000FFF75CFA0D48FFF7A3FA214633462A461F
:101D40000120FFF7AFFC33462A462146BDE870402C
:101D50000220FFF7A7BC00BF360100200000A04012
:101D6000000020410000C842240100201001002092
:101D700003213A4B002270B505200124A3F800127C
:101D8000A3F808120A2664210425D9815981A3F8F1
:101D90000202A3F80422A3F80642A3F80A42A3F819
:101DA0000C42A3F80E22A3F81022A3F812221C80E2
:101DB0005A809A80DA801A811E8258821A835A8346
:101DC0009A819882DD829A83DA831C845A849A8469
:101DD000DA841A85D9855985A3F84E104FF4967187
:101DE0001E8658861A875A879A859886DD869A872E
:101DF000DA87A3F84020A3F84220A3F84420A3F8F0
:101E00004620A3F84820A3F84A20A3F84C20A3F8C2
:101E10005020A3F85220A3F85410A3F85620A3F89A
:101E20005820A3F85A20A3F85C20A3F86020A3F858
:101E30006220A3F86420A3F86620A3F86820084B6A
:101E40001A805A809A80DA801A81064B1A605A608A
:101E5000054B1A705A709A70DA7070BD72010020CA
:101E600068010020600100205C01002070B50022A4
:101E700004464FF6FF70084E8A4200DB70BD08250D
:101E8000A35C584040F30003334083EA5003013D14
:101E900098B2F7D10132EFE701A0FFFF02681D4BB6
:101EA00010B59A4234D100F023FF1B4B1B49186038
:101EB0000B78FF2B28D01A4C5A1CD2B21948247820
:101EC000022A0A70C45418D94378062B03D00BD8C1
:101ED000033B012B18D808239A420ED30123124A40
:101EE0001370124A137008E0102B0DD1062A04D982
:101EF0008379093313F0FF03EED1BDE810400122CE
:101F000007490B4803F07FBA0023074A0B70E9E743
:101F100010BD00BF00440040CC030020D1030020CE
:101F2000CA030020D2030020D00300204C0100206F
:101F3000EC04002008B50268094B9A420ED1002338
:101F4000084A09481370094A137003F026F8BDE8DF
:101F5000084001220649044803F055BA08BD00BFF5
:101F600000440040D1030020EC040020D0030020F6
:101F7000CA03002010B5084C204603F00EF80023D9
:101F8000064A20461370064A06491370BDE8104001
:101F9000012203F038BA00BFEC040020D103002076
:101FA000D0030020CA0300202DE9F0417B4DC0B0D2
:101FB0002F78052F23D97A4E7A4CB6F8003294F850
:101FC0000080984504D00023774A2B70137016E0E8
:101FD000B91E2046FFF74AFF625CC3B29A4206D19F
:101FE000274417F8013CC0F30F2083420AD0002396
:101FF0006D4A2B7013706D4A13680133136040B043
:10200000BDE8F08163788DF80080062B8DF80130F3
:1020100000F09F8007D8032B2DD0042B6FD0012216
:1020200043F0800389E0102BF9D16288A38852BA6B
:102030005BBA92B29BB202EB0308B8F5967F94F8B4
:1020400002E094F803C027796079A1797FDCB1EBD5
:10205000430F7CD106EB42060022934204F10204B6
:1020600040F3918094F80580A179013241EA08217A
:1020700026F8021BF1E76288A08852BA40BA92B2F1
:1020800080B21118B1F5967F55DC002441008DF81F
:10209000021006EB42025F1C1E46A04203F102033F
:1020A000FFB2DBB221DC0331C9B26846FFF7DEFEC6
:1020B0008C1C0DF801003E4E0131000AC9B20DF82A
:1020C00001003068E4B218B14FF0FF3103F072FA4A
:1020D000642322466946374802F011FF3068002821
:1020E0003FF471AF03F089FA6DE732F802CB0134A7
:1020F0004FEA1C2E0DF806E00DF807C0CBE762880A
:10210000A38852BA5BBA92B29BB2D11805291ADCE5
:102110002948002400EB42006A4659008DF802105D
:10212000A34202F10202BEDD30F8026B0134370A2D
:1021300057709670F4E78323022203218DF8013053
:102140008DF80220B1E78423F6E78623F4E7902395
:10215000F2E7618894F802E04BBA9BB2B3F5967F40
:1021600094F803C0A28827796079EED254BA26F891
:10217000134040F60113994205D1B2F5807F02D198
:102180000023A6F8103206218DF802E08DF803C076
:102190008DF804708DF8050087E700BFD10300209B
:1021A00072010020D2030020D00300205001002043
:1021B000D4040020EC0400206801002070B51F4CFE
:1021C0001F4E2278B6F802329A4236D01D4D28684A
:1021D00018B14FF0FF3103F0EDF9B6F80232013BD0
:1021E000032B22D8DFE803F02502191D02224FF449
:1021F00096432270144C2046636002F066FE20462F
:1022000002F034FE01222046104903F0FCF8286851
:1022100098B1BDE8704003F0F0B903224FF41643C3
:10222000E7E704224FF46143E3E705224FF4E1338B
:10223000DFE701224FF41653DBE770BD24000020D6
:1022400072010020D4040020EC040020CA03002006
:1022500038B500F04DFD094A04461368C31AB3F5BA
:102260007A7F0AD3106047F23052054D2B68C31AAB
:10227000934202D9FFF77EFE2C6038BD4801002052
:10228000CC03002008B500F033FD054B0122186097
:10229000044B054918600548BDE8084003F0B3B891
:1022A000CC03002048010020CA030020EC040020D9
:1022B000F8B503F0E5F804460C4D0D4F0D4E2846D9
:1022C000FEF7B2FD2846FEF7DDFD2846FEF7BCFD11
:1022D0003B6804F5FA7401333B60338000F008FD7D
:1022E0007080204603F017F9E9E700BFA400002042
:1022F00058010020680100202DE9F04142F6F82441
:10230000FFF7C0FF194B1A4F5B681A4EB4FBF3F48A
:1023100003F0B6F8A400052C054638BF05243B6839
:1023200001333B6033785BB9DFF84C8098F80030BC
:1023300063B90A35FFF78CFF284603F0ECF8EEE7A7
:10234000FFF732FE3378002BF3D1EDE700F0D0FC3D
:102350000A4B1B68C01AA042EBD90023084A88F830
:1023600000303370136801331360E2E7EC0400209F
:1023700054010020D0030020D1030020CC03002012
:1023800050010020F8B503F07BF81C4B1C4A1D4996
:1023900004460120FFF786F90220184B184A194914
:1023A000FFF780F9184E194D194F00213046FEF7FE
:1023B0001DFF10212846FEF719FF1548FEF760FFA4
:1023C0003B89012B01D1FFF7A7FCFFF7F7FE304651
:1023D000FFF756FC2846FFF753FC30460021FEF776
:1023E00071FF10212846FEF76DFF1E343846FEF7B8
:1023F000B5FF204603F08FF8D7E700BF0000A040EC
:10240000000020410000C8423601002024010020C5
:102410001001002070B503F033F804460A4E0B4D4E
:102420004FF40041084800F098FE2B78012B06D1AC
:102430004FF48041304600F090FE00232B70FA34B8
:10244000204603F068F8EBE7001001404C01002043
:1024500038B503F015F80446074D2846FEF786FD0B
:102460002846FEF76DFE0A342846FEF793FD204607
:1024700003F051F8F1E700BFA600002010B590B0BE
:102480001422002108A804F007FF1422002101A84B
:1024900004F002FF02244FF480330122CDE90D4302
:1024A000CDE906234FF4E01306A80A920F9301F03A
:1024B00067FD08B172B6FEE70F23CDE901344FF492
:1024C00080630390CDE90430214601A801F01AFF92
:1024D00008B172B6FEE710B010BD0000102680B53E
:1024E0009AB000F0E7FBFFF7C9FF3246002111A8C0
:1024F00004F0D2FEAB4B4FF460419A69AA483243D4
:102500009A619A69002432400092009A9A690125E2
:1025100042F020029A619A694FF0020802F020020C
:102520000192019A9A69202742F004029A619A69FD
:1025300002F004020292029A9A6942F008029A6139
:102540009B69002203F008030393039B00F000FE45
:1025500000224FF40471954800F0FAFD002241F288
:102560001A01934800F0F4FD4FF460438E4811A91E
:10257000CDE91135CDE9134800F0A2FC4FF4047306
:102580008A4811A9CDE91135CDE9134800F098FC2E
:10259000864811A9CDE91174139400F091FC41F221
:1025A0001A03834811A9CDE91135CDE9134800F08C
:1025B00087FC4FF4C0437E4811A9CDE91134139430
:1025C00000F07EFC7B48DFF8F0C17C4BC0E90244A0
:1025D000C0E900C34FF48043C0E90644C0E90434B5
:1025E000046200F0C3FD044608B172B6FEE701467E
:1025F0003A4612A804F050FE4FF08043DFF8C09135
:102600004FF6FF78C9E900340A23484611A9CDE9FD
:102610000A44C9E90384C9F80860C9F8184011954B
:1026200013951593179502F01BF908B172B6FEE7E2
:10263000CDE90A000AA9484602F028FB034608B182
:1026400072B6FEE74FF4E1325E485F49C0E90233FB
:10265000C0E900120C220361C0E90523C36102F046
:1026600005FC054608B172B6FEE70146324606A8EB
:1026700004F012FE1C2229460AA8544CCDE9045548
:1026800004F00AFE3A46294611A804F005FE504B14
:102690002046C4E90035C4E90258C4E90455A561DF
:1026A00002F086F808B172B6FEE74FF48053204678
:1026B00006A9069302F0B6F908B172B6FEE7204605
:1026C00002F0A2F808B172B6FEE7CDE9040004A951
:1026D000204602F0DBFA024608B172B6FEE760233C
:1026E000CDE90C00CDE90A30CDE90E0010900AA921
:1026F000204602F035F908B172B6FEE708222046FE
:102700000AA902F02DF908B172B6FEE700234FF4D2
:1027100000522E4811A9CDE91133CDE91333159399
:102720001692189302F0E0FA054608B172B6FEE779
:10273000264800F0A7F9102229460AA804F0ACFDAB
:102740001C22294611A8234CCDE9065504F0A4FD0E
:10275000214B2046C4E900354FF6FF73A560C4E95C
:102760000335A56102F024F808B172B6FEE74FF414
:10277000805320460AA90A9302F054F908B172B6B0
:10278000FEE7204602F040F808B172B6FEE7CDE958
:10279000060006A9204602F079FA0246F0B172B6A8
:1027A000FEE700BF00100240001001400008014099
:1027B000000C01400C06002000540040A0860100DF
:1027C0007C050020EC04002000440040C4050020EB
:1027D000002C0140340500200004004060231390C9
:1027E000CDE91130159011A9204602F0B9F808B1D1
:1027F00072B6FEE70422204611A902F0B1F80546A0
:1028000008B172B6FEE7204600F03CF9FFF7B0FAD7
:10281000FEF74EFB02F008FE174B11A81193CDE90D
:102820001255149502F08EFE144B29461860144A76
:10283000144802F02CFE144B29461860134A144821
:1028400002F025FE134B29461860134A134802F084
:102850001EFE134B29461860124A134802F017FE59
:10286000124B29461860124A124802F010FE124B11
:10287000186002F0EBFDFEE744740008D404002069
:1028800028750008B1220008E8040020047500083B
:10289000F9220008E4040020E07400088523000801
:1028A000E0040020BC74000815240008DC040020AB
:1028B0009874000851240008D8040020154B07B56F
:1028C0009A690F2142F001029A619A696FF0010042
:1028D00002F001020092009ADA6942F08052DA6155
:1028E000DB69002203F080530193019B00F018FA8A
:1028F00005210022084600F013FA052000F040FAF6
:10290000054A536823F0E06343F00073536003B05B
:102910005DF804FB001002400000014010B50446C1
:1029200086B01022002102A804F0B6FC2268194BE0
:102930009A422CD1184CC022A369184843F00803CE
:10294000A361A36902A903F008030093009B12236B
:10295000CDE902230323059300F0B2FAE3690022D4
:1029600043F40013E361E369052103F400131F201E
:102970000193019B00F0D4F91F2000F001FA202000
:102980000022052100F0CCF9202000F0F9F906B072
:1029900010BD00BF0054004000100240000C014078
:1029A00007B503681F4A934224D11F4B05219A693A
:1029B000182042F400629A619B69002203F40063CC
:1029C0000093009B00F0ACF9182000F0D9F9002228
:1029D0000521192000F0A4F9192000F0D1F91B20DD
:1029E0000022052100F09CF91B2003B05DF804EBE8
:1029F00000F0C6B90D4A934210D10B4B1D20DA6985
:102A0000052142F00202DA61DB69002203F00203D1
:102A10000193019B00F084F91D20E6E703B05DF807
:102A200004FB00BF002C01400010024000040040E5
:102A300010B5044686B01022002102A804F02CFC38
:102A40002368B3F1804F19D103F50433DA690C48D8
:102A500042F00102DA61DA6902A902F00102009291
:102A6000009A9A6942F004029A619B6903F0040398
:102A70000193019B0323029300F022FA06B010BDDC
:102A80000008014010B5044686B01022002102A8BB
:102A900004F002FC2368144A934215D1134B9A693F
:102AA00042F004029A619B6903F004030093009BC7
:102AB0004FF4A063029302230D4802A903930593E8
:102AC00000F0FEF906B010BD0A4A9342FAD1074B56
:102AD0009A6942F004029A619B6903F0040301932E
:102AE000019BC023E6E700BF002C0140001002401C
:102AF000000801400004004010B5044686B01022D2
:102B0000002102A804F0C8FB22681A4B9A422FD178
:102B100003F5E633DA69184842F40032DA61DA691B
:102B200002A902F400320092009A9A69002442F04D
:102B300004029A619B69042203F004030193019B40
:102B40000223CDE902230323059300F0B9F90823FA
:102B500009480DEB0301CDE90234049400F0B0F90B
:102B600026202246052100F0DBF8262000F008F997
:102B700006B010BD004400400008014008B50268DE
:102B8000084B9A420DD1084A0848D3690C2123F416
:102B90000033D36100F068FABDE80840262000F059
:102BA000FDB808BD0044004000100240000801408C
:102BB000FEE7FEE7FEE7FEE7FEE7704708B500F038
:102BC0008BF803F03DFE012803D0BDE8084004F077
:102BD000B9B908BD70470000014801F022BD00BF2F
:102BE000C4050020FFF7F8BFFFF7F6BF014801F06A
:102BF00018BD00BF34050020014800F0C9BC00BF6B
:102C00000C060020014801F01BB900BF0C06002093
:102C1000014802F095BA00BFEC04002070470000A4
:102C2000FFF7FCFF0B480C490C4A002302E0D45884
:102C3000C4500433C4188C42F9D3094A094C002308
:102C400001E013600432A242FBD304F033FBFFF730
:102C500045FC7047000000208800002088750008AF
:102C600088000020E8240020FEE7000038B50E4B65
:102C700005461A784FF47A73B3FBF2F30B4A1068E7
:102C8000B0FBF3F000F09CF8044658B90F2D09D8BA
:102C9000024629464FF0FF3000F042F82046044B30
:102CA0001D6038BD0120FCE72C000020280000201A
:102CB00030000020074A08B51368032043F01003D2
:102CC000136000F01BF80F20FFF7D0FFFFF7F6FDB1
:102CD000002008BD00200240034A044B11681B7805
:102CE0000B441360704700BF600600202C000020DA
:102CF000014B1868704700BF6006002007490302B7
:102D0000CA6803F4E06322F4E0621204120C134375
:102D100043F0BF6343F40033CB60704700ED00E045
:102D2000154B30B5DC68C4F30224C4F10703251D3C
:102D3000042B28BF0423062D4FF0FF3594BF002439
:102D4000033C05FA03F321EA0303A54022EA050246
:102D5000A340002843EA0203ACBF00F16040074AE9
:102D60004FEA0313DBB2ABBF00F5614000F00F0088
:102D700080F80033135430BD00ED00E014ED00E0A6
:102D8000002807DB01234109034A00F01F008340AC
:102D900042F82130704700BF00E100E000280CDB62
:102DA00001220649430900F01F008240203341F808
:102DB0002320BFF34F8FBFF36F8F704700E100E018
:102DC0000138B0F1807F0BD24FF0E023F021054AAB
:102DD000586182F823100020072298611A61704719
:102DE0000120704700ED00E090F821200346022A00
:102DF00006D0042282630120002283F8202070473D
:102E00000268C06B116821F00E011160116821F099
:102E10000101116001211A6C01FA02F242600020E6
:102E200083F82110E8E7000008B590F82130022B64
:102E300003D004238363012008BD03681A6822F0CD
:102E40000E021A601A6822F001021A60174A9342B1
:102E50001FD0143293421ED0143293421DD014322C
:102E600093421DD0143293421DD01432934214BFAA
:102E70004FF080734FF480130D4A5360012380F8A4
:102E80002130002380F82030436B03B198470020A5
:102E9000D2E70123F0E71023EEE74FF48073EBE76E
:102EA0004FF48053E8E74FF48033E5E70800024031
:102EB0000000024090F821007047806B70470000CE
:102EC0002DE9F74F00244FF00F0E2646DFF884C19E
:102ED000614B00F104080A6832FA06F502D103B02A
:102EE000BDE8F08F012505FA06F702EA070537EA83
:102EF000020276D14A68032A07D8013A022A00F270
:102F00008380DFE802F091969C00122A00F0948002
:102F100069D8112A00F08A80FF2D94BF8146C146EE
:102F20004FEA8602D9F8007088BF203A0EFA02FAFA
:102F300027EA0A0704FA02F21743C9F80070D1F829
:102F4000049019F0805F4CD0DCF8182026F00307BD
:102F500042F00102CCF81820DCF8182007F1804775
:102F600002F00102019207F5803706F0030A019A88
:102F70004FEA8A0ABA680EFA0AFB22EA0B0B374AB2
:102F8000904260D002F5806290425ED002F580628D
:102F900090425CD002F58062904214BF042203226A
:102FA00002FA0AF242EA0B02BA609A6819F4801F28
:102FB00014BF2A43AA439A60DA6819F4001F14BFA9
:102FC0002A43AA43DA605A6819F4003F14BF2A431F
:102FD000AA435A601A6819F4803F14BF2A43AA43CF
:102FE0001A60013677E7DFF878904A450CD014D89C
:102FF000A9F580194A4507D009F570294A4503D03B
:10300000A9F580194A4587D18A68D2B1012A4FF0C3
:1030100008040CBF076147617EE7DFF848904A4526
:10302000F2D009F58039EDE7CC6875E7CC68043457
:1030300072E7CC6808346FE7CC680C346CE7002486
:103040006AE7042468E70022AAE70122A8E702222F
:10305000A6E700BF00100240000401400008014044
:1030600000002210000031102DE9F74F4FF0040B43
:1030700000224FF0010A4FF00F0800EB0B03019301
:103080002E4B31FA02F402D103B0BDE8F08F0AFAF8
:1030900002F70F4049D022F0030404F1804404F504
:1030A000803402F0030CA5684FEA8C0C08FA0CF986
:1030B00009EA050E224DA84239D005F58065A842DF
:1030C00037D005F58065A84235D005F58065A84262
:1030D00014BF0425032505FA0CF575456FEA0706AC
:1030E0000FD11D6835401D605D6835405D60DD684D
:1030F0003540DD609D6835409D60A56825EA09057D
:10310000A560FF2F94BF0746019F4FEA82043D68E8
:1031100088BF203C08FA04FC25EA0C050BFA04F4ED
:1031200025433D60C4683440C4600132A9E70025EE
:10313000D1E70125CFE70225CDE700BF000401401C
:10314000000801408368194214BF01200020704725
:103150000AB1016170470904FBE7C36801EA030291
:1031600021EA030141EA02410161704770B504465A
:1031700008B9012070BD90F83D3003F0FF021BB983
:1031800080F83C20FFF7CAFB242384F83D302368F5
:103190001A6822F001021A601A6842F400421A60AA
:1031A0001A6822F400421A6001F048F93F4B656842
:1031B0009D4294BF3E4B3F4B98428CBF002301235E
:1031C000002BD6D1394E3C4BB542B0FBF3F388BF50
:1031D0004FF496762268516821F03F0141EA0301DD
:1031E00082BF73434FF47A76B3FBF6F35160116AF2
:1031F000013321F03F010B431362D169431E2B4879
:1032000021F44F41854221F0FF0132D86D00B3FB1C
:10321000F5F340F6FC700133034242D0C3F30B03D5
:103220001943D1611168D4E9073021F0C00103438B
:103230000B4313609168D4E9030321F40341034372
:1032400021F0FF010B439360D168D4E9053021F0F0
:10325000FF0103430B43D3601368002043F00103D5
:1032600013602023206484F83D30206384F83E00FE
:1032700080E7A06850B905EB4505B3FBF5F30133D2
:10328000C3F30B037BB143F40043C9E71920684340
:10329000B3FBF0F30133C3F30B0323B143F4404317
:1032A000BEE70423BCE70123BAE700BFA086010004
:1032B0007F841E00FF083D0040420F0070477047AA
:1032C0007047704770477047704790F83D2008B5C9
:1032D000036DD2B283B9C36C0268012B836C05D134
:1032E000DBB21361036D0233036508BDC3F307232B
:1032F0001361036D0133F7E7036D012B03D1836C79
:103300000268DBB2F4E7036D022B2FD1222A05D12C
:103310000268136843F480731360EAE7438D9BB23D
:1033200063B1212A0AD1436A026813F8011B1161B3
:103330004362438D013B9BB24385D6E7438D9BB2ED
:10334000002BD2D1212AD0D10268516821F4E0614A
:103350005160116841F4007111602022036380F80C
:103360003D2080F83E30FFF7AFFFBEE703685A69A3
:10337000120644BF00221A61B7E7704770477047D2
:10338000002337B546F2A81101932C4B406A1B6805
:1033900090F83D20B3FBF1F323214B4301930368E5
:1033A000D2B2019941BB016C41F020010164446B30
:1033B0000CB10021A162816B09B100258D621D68ED
:1033C00025F480651D600025458504B1656301B164
:1033D0004D63196821F00101196090F83D106029D2
:1033E00011D1202380F83D30002380F83E30036463
:1033F000FFF7C5FF03B030BD01990139019119688C
:103400008905CED4D3E702F02802282A0ED1196804
:1034100041F001011960196841F4806119600023CD
:10342000036380F83D20FFF7A9FFE3E7202380F83E
:103430003D30002380F83E30F5E700BF2800002033
:1034400010B590F83D2090F83E300446102BD9B2CC
:10345000D2B2036801D0402913D1222A11D11968B0
:1034600021F400611960596811F4006106D1602AE5
:103470001EBF202284F83D2084F83E1000222263E3
:1034800007E002F028012829EDD10022226384F808
:103490003D105A6812F400624FD05A68606B22F4F3
:1034A00000625A6090F82130012B374B2BD04363D8
:1034B000FFF7BAFC50B12268606B136823F0010378
:1034C0001360202384F83D30436B9847236C190721
:1034D0001FBF2268536823F4E063536094F83D30C3
:1034E000226CDBB252070DD5282B0BD1274B2022A3
:1034F000E36200232046236384F83D2084F83E30B5
:10350000FFF7E1FE10BDA06B4363FFF78DFC0028C1
:10351000DCD023685A69510605D51A69636A1A70A6
:10352000636A013363622268A06B136823F00103AE
:103530001360202384F83D30C6E794F83D106029DD
:1035400015D1202184F83D1022645A69520605D510
:103550001A69636A1A70636A0133636222682046DB
:10356000136823F001031360FFF709FFAEE75A6900
:10357000500605D51A69636A1A70636A013363627B
:103580002046FFF7FBFEA1E7813300080000FFFFA4
:10359000F0B5044603688FB05A68C66A90F83E00DA
:1035A00094F83D101028C5B2C9B202D0402D40F0A9
:1035B000E5829F69586910F0010F07D1B6F52A0F0F
:1035C00002D0B6F12A4F51D10FB0F0BD96054DD5BE
:1035D000E26AB2F52A0F0CD10122E26294F83E2091
:1035E000402A11D1226D52B9626C02F0FE021A61BA
:1035F000EAE7E26AB2F12A4FF0D10822EDE7626C05
:1036000042F00102D2B2F2E72269B2F5804F1AD13C
:1036100094F83D20212A626C11D102F0FE021A6159
:10362000626B0AB1926A2AB9A26B002ACCD0926A64
:10363000002AC9D05A6842F400625A60C4E742F0D6
:103640000102D2B2EBE7226D32B9626CD21102F004
:10365000060242F0F002CAE7226D012AB4D1626C80
:10366000D21102F0060242F0F102C0E7060703D5CC
:10367000960501D5626CE4E7860740F1F080960577
:1036800040F1ED8094F83E10E26A256B94F83D001D
:10369000C9B2222840F0DB80206D40B9402906D114
:1036A00000905A6900929B690093009B8CE7216D02
:1036B00089B92069B0F5404F0DD101915A69019245
:1036C0009A690192019A1A6842F480721A60236D15
:1036D0000133236578E7618D89B251B902915A6946
:1036E00002929A690292029A1A6842F400721A606F
:1036F00019E0618D89B2012949D112F5803F1BD1B2
:103700001A6822F480621A605A6812F400620CD0BF
:103710001A6822F480621A60002203925A690392A6
:103720009B690393039B0023D3E704925A69049295
:103730009A690492049AD7E7082A1CD0202A1AD042
:10374000122D0DD1012A16D11A6822F480621A6056
:10375000002205925A6905929B690593059BE2E751
:10376000102AF1D8864941FA02F2D707ECD41A6838
:1037700042F48062EBE71A6822F480621A60002249
:1037800006925A6906929A690692069AACE7618D8A
:1037900089B2022938D1102A03D87A49D140CE07FC
:1037A00018D4196841F40061196000210791596922
:1037B0000791996907910799196821F48061196047
:1037C00059680D05AFD5202A1BD8072A0ED8012A23
:1037D000A9D111E0196841F48061196000210891B4
:1037E00059690891996908910899E9E7A2F10801D6
:1037F000654ACA40D00796D55A6842F480525A604A
:1038000091E712F5803FE3E7196841F480611960A0
:103810005968090510D5202A16D8072A06D8012A82
:103820000AD15A6842F480525A6005E0A2F10801B8
:10383000554ACA40D207F4D4002209925A69099223
:103840009B690993099B6EE712F5803FE8E7002228
:103850000A925A690A929B690A930A9BB4E67F0707
:1038600040F194805E6836053FF5AEAE070600F085
:1038700004063ED550053CD5002E3DD194F83D20A0
:10388000258D94F83E10D2B2E06AC9B2C5B9212A9A
:1038900018D1082858D0202856D010F5803F53D092
:1038A0005A6822F4E0625A6011232363002384F8EB
:1038B0003E302023204684F83D30FFF7FFFC83E6AE
:1038C000212A05D040297FF47FAE222A7FF47CAEE6
:1038D000628D92B21AB95A6822F48062ADE694F809
:1038E0003E20402A16D120460FB0BDE8F040FFF739
:1038F000ECBC002E3FF468AE97057FF565AE21293C
:1039000039D1E16A94F83D20212A7FF45DAE628DC1
:1039100092B24AB1626A12F8011B19616262638D48
:10392000013B9BB263854FE608290DD020290BD0BF
:1039300011F5803F08D0596821F4E06159601123E6
:10394000236384F83E20B4E75A68204622F4E062FC
:103950005A601A6842F400721A600023202223631E
:1039600084F83D2094F83E2084F83E30402AA4D1CB
:10397000FFF7AAFC28E6402D7FF426AEB3E700BF90
:10398000EBFFFEFF140001000101000159680E0564
:103990003FF51AAE450600F0040140F1868050055F
:1039A00040F18380002940F0838094F83D20222A52
:1039B0007FF40AAEE06A628D92B2032A14D91A69C2
:1039C000636A1A70636A01336362638D013B9BB261
:1039D0006385638D9BB2032B7FF4F6AD2268536839
:1039E00023F480635360EFE5E56A022D3FF473AF83
:1039F000012A3FF670AF0B9146F2A811784A12687F
:103A0000B2FBF1F202EB82020B920B9A013A0B929B
:103A10000B99D1B9226C204642F0200222645A68E8
:103A200022F4E0625A601A69636A1A70636A0133A9
:103A30006362638D013B9BB26385202384F83D3034
:103A400084F83E10FFF79AFCBEE51A6812F4007283
:103A5000DBD1196821F480611960596821F4E061B3
:103A600059601969636A1970636A01336362638D0F
:103A7000013B9BB26385202384F83D3094F83E30AF
:103A800084F83E20402B04D122632046FFF775FCCA
:103A90009AE5082801D0202801D1002300E0122354
:103AA00020462363FFF70BFC8EE500293FF48CAD25
:103AB00092057FF589ADE26A608D616A80B2042863
:103AC00009D15A6822F480625A601B690B70636ADC
:103AD0000133636223E7608D80B203280CD15868FC
:103AE000042A20F480605860EFD0022AEDD01A68D2
:103AF00022F480621A60E8E7608D80B20228E4D187
:103B0000042A33D007D8012A07D0022A2ED01868F9
:103B100040F4007004E0102AF9D1186820F48060A5
:103B200018601B690B70616A4B1C6362638D013BFB
:103B30009BB2638523681B694B70636A21680133FC
:103B40006362638D013B9BB263854B6823F44073D2
:103B50004B60202384F83D3094F83E30402B4FF0EA
:103B6000000384F83E3005D123638EE7186840F4E3
:103B70008060D5E7082A90D0202A8DE7206C10B30A
:103B80000025586987072DD596052BD5226C02B1E3
:103B90009D6994F83D2002F02802282A16D15A681F
:103BA0002F0622F480625A604FF0000385F0040172
:103BB000204654BFA289228BC1F3800184F83C3097
:103BC000FFF780FB00E59D695869DBE700220C9256
:103BD00059690C919B6984F83C200C930C9BF3E48D
:103BE00028000020C60640F1B180950540F1AE8066
:103BF00094F83D505A68EDB222F4E0625A60002217
:103C00000D925A690D921A6842F001021A600D9ADB
:103C10001A6822F480621A605A68100520D505F0EF
:103C2000F702222A4AD1A06B0268526892B26285DA
:103C3000628D92B21AB1226C42F0040222645A6878
:103C400022F400625A60FFF735F9012808D0A06B12
:103C5000794B4363FFF7E8F810B1A06B436B9847CB
:103C6000638D9BB213B323685A69510709D51A694A
:103C7000636A1A70636A01336362638D013B9BB2AE
:103C8000638523685A69520609D51A69636A1A70EE
:103C9000636A01336362638D013B9BB26385638D0D
:103CA0009BB21BB1236C43F004032364236C13B356
:103CB00020460FB0BDE8F040FFF7C2BB606B026862
:103CC000526892B26285628D92B21AB1226C42F051
:103CD000040222645A6822F400625A60FFF7EAF88C
:103CE0000128BDD0606B544B4363FFF79DF800285B
:103CF000B6D0606BB2E72A2D06D123632823204675
:103D000084F83D30FFF7DDFA94F83D30282B0CD1D4
:103D10004A4B2022E36200232046236384F83D209F
:103D200084F83E30FFF7CFFA4EE4236B222B02D00B
:103D3000222D7FF449AC00232022236384F83D2008
:103D400084F83E302046FFF7BCFA3DE401F0F7016D
:103D5000212900F0040535D1070627D5560525D5BC
:103D60003DBB94F83D00628DC0B292B2002A3FF490
:103D70002BAC626A12F8015B1D616262628D013ACE
:103D800092B26285628D92B2002A7FF41DAC29281E
:103D90007FF41AAC5A68204622F480625A602823C5
:103DA000216384F83D30FFF78BFA0DE4002D3FF4DA
:103DB0000BAC95057FF508AC628D92B2002A3FF4FA
:103DC00003ACA7E5400627D5510525D53DBB94F8A2
:103DD0003D20618DD2B289B200293FF4F5AB19695B
:103DE000636A1970636A01336362638D013B9BB23E
:103DF0006385638D9BB2002B7FF4E6AB2A2A7FF4A8
:103E0000E3AB2268536823F4806353602223236367
:103E1000282384F83D3095E7002D3FF4D5AB92057B
:103E20007FF5D2AB628D92B2002A3FF4CDAB1A6916
:103E3000636A1A704BE600BF813300080000FFFF81
:103E4000F8B5036804465F695E6890F83E2017F491
:103E50008075D2B20AD016F4807507D06FF48071E5
:103E600001255961196841F400411960B80506D56A
:103E7000F10542BF6FF4007145F002055961780504
:103E800036D5F10534D5608D94F83D10202AD4F84C
:103E900030C080B2C9B25FD100285DD101F0F70017
:103EA000212804D0282957D1BCF1210F54D194F8EE
:103EB0003D20E16AD2B2082901D020292AD1282A3E
:103EC00028D12E4A2046E2625A6822F4E0625A6003
:103ED0006FF480625A611A6822F480621A600023CB
:103EE0002022236384F83D2084F83E30FFF7EBF96D
:103EF0003A053FD5F3053DD56FF40062236845F0E0
:103F000008055A61236C20462B432364BDE8F84022
:103F1000FFF796BA212A1BD11849E16222630021DA
:103F2000202284F83D2084F83E105A6822F4E06292
:103F30005A606FF480625A611A6822F480621A60D3
:103F40005A69100648BF19612046FFF7B9F9CFE753
:103F50006FF480625A61CBE76FF48061102A596177
:103F600045F0040501D0402AC2D11A6842F400721B
:103F70001A60BDE7002DC5D1F8BD00BF0000FFFFEE
:103F80002DE9F341054638B30368DB0710D42B68ED
:103F90009F075ED42B68190700F195802B685A079C
:103FA00000F1C180EB69002B40F02C81002029E05A
:103FB000904C636803F00C03042B07D0636803F094
:103FC0000C03082B0AD16368DE0307D523689C0322
:103FD000DDD56B68002BDAD1012013E06B68B3F5F7
:103FE000803F12D1236843F480332360FEF780FEC4
:103FF000064623689803CAD4FEF77AFE801B64281D
:10400000F7D9032002B0BDE8F0819BB9236823F4FF
:1040100080332360236823F480232360FEF768FE47
:10402000064623689903B2D5FEF762FE801B64281A
:10403000F7D9E6E7B3F5A02F236803D143F4802333
:104040002360CFE723F480332360236823F48023A5
:10405000CBE7684C636813F00C0F07D0636803F07C
:104060000C03082B10D16368DA030DD423689B0777
:1040700002D52B69012BAFD123686A6923F0F803BD
:1040800043EAC203236085E72A695B4B6AB10122D8
:104090001A60FEF72DFE064623689F07ECD4FEF754
:1040A00027FE801B0228F7D9ABE71A60FEF720FE37
:1040B0000646236898077FF56DAFFEF719FE801B53
:1040C0000228F6D99DE7AA694A4E4B4BE2B101227C
:1040D000C3F88024FEF70CFE0446736A9B070DD5D7
:1040E0004FF4FA52454B1B68B3FBF2F3019300BF48
:1040F000019B5A1E0192002BF9D14FE7FEF7F8FD04
:10410000001B0228E9D97CE7C3F88024FEF7F0FD04
:104110000446736A9F077FF541AFFEF7E9FD001B78
:104120000228F6D96DE7334CE369D80024D401277F
:10413000E36943F08053E361E36903F08053009344
:10414000009B2F4E3368D90518D5EB68012B26D17B
:10415000236A43F001032362FEF7CAFD41F2883867
:104160000646236A9B073FD5002F3FF41BAFE36948
:1041700023F08053E36115E70027E2E7336843F457
:1041800080733360FEF7B4FD80463368DA05DCD413
:10419000FEF7AEFDA0EB08006428F6D931E7ABB915
:1041A000236A41F2883823F001032362236A23F053
:1041B00004032362FEF79CFD0646236A9807D3D5C5
:1041C000FEF796FD801B4045F7D91AE7052B236AB9
:1041D00003D143F004032362BAE723F0010323620F
:1041E000236A23F00403B6E7FEF782FD801B4045F7
:1041F000B7D906E700100240000042422800002024
:10420000007000402A4C626802F00C02082A3ED07E
:104210000022022B274B1A662CD1FEF769FD0646B9
:104220002368990120D42B6AB3F5803F05D16268D9
:10423000A96822F400320A436260696A62680B432B
:1042400022F474121343012263601A4B1A66FEF7BC
:104250004FFD054623689A013FF5A8AEFEF748FDDD
:10426000401B0228F6D9CCE6FEF742FD801B02284F
:10427000D6D9C6E6FEF73CFD054623689B017FF5CF
:1042800095AEFEF735FD401B0228F6D9B9E6012BA5
:104290003FF4A2AE60682B6A00F480329A427FF449
:1042A0009BAE6B6A00F47010C01A18BF0120A9E61B
:1042B00000100240000042420D4A536803F00C0116
:1042C000082912D10B48C3F38341DB03405C09D5B5
:1042D0005368094AC3F340435043084AD35CB0FBD8
:1042E000F3F07047064B584370470348704700BFD0
:1042F000001002406675000800127A00647500081C
:1043000000093D002DE9F0410D46044610B9012099
:10431000BDE8F081444A136803F007038B4228D3B9
:1043200021688E0730D4CA0743D43F4A136803F08C
:104330000703AB4265D822683C4D12F0040F6CD1E4
:10434000130706D56B68226923F4605343EAC2035E
:104350006B60FFF7B1FF6B68354AC3F30313D35C9F
:10436000D840344B1860344B1868FEF77FFC0020AF
:10437000CEE7136823F007030B431360136803F0C1
:1043800007038B42C3D1CBE7284B11F0040F1EBFAC
:104390005A6842F4E0625A60080742BF5A6842F421
:1043A00060525A605A68A06822F0F00202435A60D4
:1043B000B9E762681D4E012A33681AD113F4003F31
:1043C000A5D0736841F2883823F003031343736068
:1043D000FEF78EFC07467368626803F00C03B3EBCC
:1043E000820FA2D0FEF784FCC01B4045F3D9032006
:1043F0008EE7022A02D113F0007FE1E713F0020FEB
:10440000DEE7136823F007032B431360136803F000
:104410000703AB427FF47BAF8DE76B68E16823F461
:10442000E0630B436B608BE700200240001002400A
:10443000547500082800002030000020044B054A75
:104440005B68C3F30223D35C034A1068D84070470B
:10445000001002404C75000828000020044B054A5B
:104460005B68C3F3C223D35C034A1068D84070472B
:10447000001002404C75000828000020036A026A00
:1044800070B522F001020262446882690D6822F070
:1044900073022A438D6823F002032B430A4DA8427E
:1044A0000BD1CD6823F008032B4324F44074D1E9E9
:1044B0000556354323F004032C43446082614A6867
:1044C0004263036270BD00BF002C0140036A026AB0
:1044D00070B522F4807202624468C2690D6822F0ED
:1044E00073022A438D6823F4007343EA05230B4DBE
:1044F000A8420DD1CD6823F4006343EA052324F4D8
:104500004054D1E90556354323F4806344EA051449
:104510004460C2614A68C263036270BD002C0140FE
:10452000036A026A30B522F4805202624468C269AA
:104530000D6822F4E64242EA05228D6823F4005316
:1045400043EA0533064DA84202BF4D6924F4804476
:1045500044EA85144460C2614A680264036230BD63
:10456000002C01407047034630B590F83E0093F8A8
:104570003F2093F8425093F84340C0B2D2B2EDB21C
:10458000E4B2C1B9012845D1012D13D1022283F82B
:104590003E2083F842201A68116A21F0010111625D
:1045A000116A41F00101002011621A68136843F09A
:1045B0000103136030BD042911D1012A2AD1012C35
:1045C00028D1022283F83F2083F843201A68116A19
:1045D00021F010011162116A41F01001E3E7012896
:1045E00018D1012AE6D1012DE4D1012CE2D1022219
:1045F00083F83E2083F83F2083F8422083F843204D
:104600001A68116A21F001011162116A41F0010179
:104610001162DCE70120CDE77047704770477047B3
:104620007047036870B5DD681E690446B1070DD593
:10463000AA070BD56FF002021A61012202779B696B
:104640009B0769D0FFF7EAFF00232377710710D596
:104650006A070ED56FF00402236820461A61022211
:1046600022779B6913F4407F5CD0FFF7D7FF0023CC
:10467000237733070FD528070DD56FF0080223687D
:1046800020461A6104222277DB69990750D0FFF790
:10469000C5FF00232377F20610D5EB060ED56FF089
:1046A0001002236820461A6108222277DB6913F47E
:1046B000407F43D0FFF7B2FF00232377F00708D5F0
:1046C000E90706D56FF00102236820461A61FFF75B
:1046D000A3FF320608D52B0606D56FF080022368AB
:1046E00020461A6100F027FB700608D5690606D53A
:1046F0006FF04002236820461A61FFF791FFB2066F
:1047000022D5AB0620D56FF0200223682046BDE8F5
:1047100070401A6100F00EBBFFF77FFF2046FFF7E5
:104720007EFF91E7FFF779FF2046FFF778FF9EE7CE
:10473000FFF773FF2046FFF772FFAAE7FFF76DFF51
:104740002046FFF76CFFB7E770BD0000174A03680B
:1047500090420AD0B0F1804F07D0A2F59432904237
:1047600003D002F58062904207D14A6823F07003BB
:104770001343CA6823F4407313434A6923F0800348
:10478000134303608B68C3620B688362074B9842D4
:1047900004BF0B690363012343610369DB0742BF65
:1047A000036923F001030361704700BF002C01403F
:1047B00010B5044630B390F83D3003F0FF021BB94A
:1047C00080F83C20FEF7ECF80223206884F83D30A6
:1047D000211DFFF7BBFF0123002084F8463084F839
:1047E0003E3084F83F3084F8403084F8413084F81B
:1047F000423084F8433084F8443084F8453084F8FB
:104800003D3010BD0120FCE710B5044630B390F8F0
:104810003D3003F0FF021BB980F83C20FFF7A2FEF9
:104820000223206884F83D30211DFFF78FFF01230C
:10483000002084F8463084F83E3084F83F3084F815
:10484000403084F8413084F8423084F8433084F8B2
:10485000443084F8453084F83D3010BD0120FCE739
:10486000F8B50D46044600284CD090F83D3003F0D2
:10487000FF021BB980F83C20FEF7DAF8022321463C
:1048800084F83D3051F8040B836823F4804323F00F
:1048900007038360FFF75AFF81682A688369AE695E
:1048A0001143AA6823F4407323F0030342EA06226B
:1048B0001A432B69EE691B0143EA0623EE6822F4D2
:1048C0007C4233432E6A22F0FC0243EA0633076A35
:1048D0006E6913436A6827F0220742EA0612816074
:1048E0001743836101230762002084F8463084F86F
:1048F0003E3084F83F3084F8423084F8433084F806
:104900003D30F8BD0120FCE7036A026A70B522F071
:1049100010020262446882690D6822F4E64242EAAB
:1049200005228D6823F0200343EA05130B4DA842AE
:104930000DD1CD6823F0800343EA051324F44064CD
:10494000D1E90556354323F0400344EA8504446029
:1049500082614A688263036270BD00BF002C01401F
:1049600038B590F83C300446012B4FD00120082A7E
:1049700084F83C003AD006D8BAB1042A26D00023E5
:1049800084F83C3038BD0C2AF9D12068FFF7C8FD07
:10499000C3690A6943F40063C361C36923F4806394
:1049A000C361C36943EA02232EE02068FFF766FD76
:1049B00083690A6943F008038361836923F0040370
:1049C00083618369134383610020D8E72068FFF780
:1049D0009BFF83690A6943F400638361836923F45D
:1049E00080638361836943EA0223ECE72068FFF771
:1049F0006DFDC3690A6943F00803C361C36923F00D
:104A00000403C361C3691343C361DDE70220B9E74F
:104A100010B584680A4324F47F4442EA0322224307
:104A2000826010BD38B590F83C300446012B4FF041
:104A3000020000F08E80012284F83D00206884F896
:104A40003C20836823F47F4323F0770383600B6863
:104A5000602B4FD032D8402B64D016D8202B0DD0ED
:104A60000AD833F0100109D0012384F83D30002327
:104A700084F83C30104638BD302BF5D1826822F0E6
:104A80007002134343F0070328E0502BECD14A682F
:104A9000CD68016A036A21F00A0123F00103036271
:104AA00083690A4323F0F00343EA0513836102623A
:104AB000836823F0700343F057030FE0B3F5805F82
:104AC0000DD0B3F5005F0CD0702BCDD1CB68D1E900
:104AD0000121FFF79DFF836843F077038360002285
:104AE000C2E7CB68D1E90121FFF792FF836843F465
:104AF0008043F3E7036A026A4D6822F01002C96836
:104B00000262826923F0A00322F4704243EA051393
:104B100042EA013282610362836823F0700343F04A
:104B20006703DBE74A68CD68016A036A21F00A017E
:104B300023F00103036283690A4323F0F00343EA8D
:104B4000051383610262836823F0700343F0470317
:104B5000C4E702468EE710B50124036A01F01F0185
:104B60008C4023EA04030362036A8A401A43026208
:104B700010BD000008B529B990F83E30012B1DD0BA
:104B800001202EE0042907D190F83F30012BF7D106
:104B9000022380F83F3014E0082907D190F8403014
:104BA000012BEDD1022380F840300AE090F841302B
:104BB000012BE5D1022380F8413002E0022380F886
:104BC0003E3000680122FFF7C6FF0F4B984209D024
:104BD000B0F1804F0BD1836803F00703062B0DD192
:104BE000002008BD436C43F400434364F3E7074BE4
:104BF0009842F0D003F580639842ECD0036843F00C
:104C000001030360ECE700BF002C014000040040FA
:104C1000FFF7B0BF38B50022044600680D46FFF725
:104C20009AFF184B98420DD141F21113026A1A42B1
:104C300008D140F24443026A1A4202BF436C23F493
:104C40000043436441F21113026A1A4208D140F250
:104C50004443026A1A4202BF036823F0010303605F
:104C600001231DB984F83E30002038BD042D02D147
:104C700084F83F30F8E7082D0CBF84F8403084F802
:104C80004130F1E7002C0140FFF7C4BF30B590F888
:104C90003C300246012B4FF0020022D0136882F80C
:104CA0003D005C680D6824F070042C4398685C60DB
:104CB0000C4CA3420AD0B3F1804F07D0A4F5943432
:104CC000A34203D004F58064A34204D1496820F0D4
:104CD0008000014399600123002082F83D3082F872
:104CE0003C0030BD002C014090F83C300246012BC6
:104CF0001ED0CB68886823F440730343486823F4CC
:104D000080630343086823F400630343086923F4C2
:104D100080530343486923F4005303430020C969C7
:104D200023F480430B4311684B6482F83C007047C6
:104D30000220704770477047026802F10C0353E885
:104D4000003F23F490730C3242E8003102680029DE
:104D5000F2D102F1140353E8003F23F0010302F102
:104D6000140C4CE800310029F3D1036B012B0BD15B
:104D700002F10C0353E8003F23F0100302F10C0C86
:104D80004CE800310029F3D1202380F84230002381
:104D90000363704710B504460368C1681A6922F4BA
:104DA00040520A431A6182680069D9680243606907
:104DB00021F4B05121F00C0102430A43DA605A6930
:104DC000A16922F440720A435A610E4A934215D1F6
:104DD000FFF744FB19234343626820689200B3FB4A
:104DE000F2F36422B3FBF2F102FB11331B01323305
:104DF000B3FBF2F303EB0113836010BDFFF71EFB5F
:104E0000E8E700BF00380140F7B505460C461746F5
:104E10001E462A68136834EA030301D1002021E00A
:104E2000701CF7D0FDF764FFC01B86421CD3DEB1B7
:104E30002B68DA685107ECD5802CEAD0402CE8D0FA
:104E40001A681207E5D5002401941A6828460192D1
:104E50005B680193019BFFF76FFF082301206B64E0
:104E600085F8404003B0F0BD0320FBE710B50446D1
:104E700048B390F8413003F0FF021BB980F840209E
:104E8000FDF73AFE2423226884F84130D368204697
:104E900023F40053D360FFF77DFF236800201A69D5
:104EA00022F490421A615A6922F02A025A61DA68A1
:104EB00042F40052DA602023606484F8413084F8C0
:104EC0004230606310BD0120FCE710B50446A0B17C
:104ED0002423026880F84130D36823F40053D36060
:104EE000FDF74CFE0020606484F8400084F8410027
:104EF00084F842002063606310BD0120FCE72DE9C7
:104F0000F843984690F841300446202B0E46174649
:104F10003FD100293FD0002A3DD021230025456400
:104F200080F84130FDF7E4FEA3688146B3F5805F69
:104F3000A784E78403D123690BB935461E46E38C69
:104F40009BB253B943464A4640212046FFF75CFFD7
:104F5000202350B984F841300AE043464A46802174
:104F60002046FFF751FF28B12023032084F8413069
:104F7000BDE8F88322684EB935F8023BC3F3080355
:104F80005360E18C013989B2E184D8E716F8013B1E
:104F9000F6E70220ECE70120EAE710B504462268B4
:104FA00002F10C0353E8003F23F4F0730C3242E8A3
:104FB000003123680029F2D103F1140252E8002FD6
:104FC00022F0010203F1140040E800210029F3D18E
:104FD000226B012A0BD103F10C0252E8002F22F0C0
:104FE000100203F10C0040E800210029F3D15A69B6
:104FF00012061AD503F1140252E8002F22F08002A3
:1050000003F1140040E800210029F3D1A06B60B146
:105010004163FDF7E9FE40B1A06BFDF74EFF20288C
:1050200003D110230320636410BD226853695B061B
:1050300016D502F1140353E8003F23F0400302F1B8
:10504000140040E800310029F3D1E06B40B1416326
:10505000FDF7CAFE20B1E06BFDF72FFF2028E0D05E
:1050600000202023E084E085606484F8423084F8E6
:1050700041302063D8E7704708B50023406AC385F4
:10508000C384FCF757FF08BD704790F8423007B55E
:10509000222B42D181680268B1F5805F836A3FD1DB
:1050A000016900293FD15268C2F3080223F8022B9C
:1050B0008362C38D013B9BB2C385002B2DD1026857
:1050C000D16821F02001D160D16821F48071D160D4
:1050D000516921F001015161202280F8422043638F
:1050E000026B012A026828D1036302F10C0353E822
:1050F000003F23F0100302F10C0C4CE800310029B2
:10510000F3D11368DB0605D5019113680193536849
:105110000193019B818DFFF7B7FF03B05DF804FB9E
:1051200039B9016929B95268D2B21A70836A013358
:10513000BEE7526802F07F02F7E7FCF7AFFEECE74C
:10514000036873B51A6804461607D9685D6908D103
:10515000960668D58D0666D502B0BDE87040FFF7AB
:1051600094BF05F0010001F4907505435BD0D607AC
:1051700005D5CD0542BF636C43F00103636453075B
:1051800004D518B1636C43F002036364960704D539
:1051900018B1636C43F004036364150707D501F08D
:1051A000200303431EBF636C43F008036364636C16
:1051B000002B32D0920604D58B0602D52046FFF78D
:1051C00064FF266820467369626C03F0400302F0B6
:1051D000080253EA020522D0FFF7AEFD73695E06AE
:1051E00018D5226802F1140353E8003F23F040036E
:1051F000143242E800310029F3D1E06B50B1744B16
:105200004363FDF711FE40B1E06B436B02B0BDE8B4
:10521000704018472046FCF78DFE02B070BDFCF7C9
:1052200089FE6564F9E7206B012840F09480D5067B
:1052300040F19180C80640F18E80002201921A68E8
:1052400001925A680192019A5A6952064DD5E16B52
:105250000A68526892B2002ADFD0A08D9042DCD951
:10526000E2858A69202A36D003F10C0252E8002F29
:1052700022F4807203F10C0040E800210029F3D1F0
:1052800003F1140252E8002F22F0010203F114008E
:1052900040E800210029F3D103F1140252E8002F65
:1052A00022F0400203F1140040E800210029F3D16C
:1052B000202284F84220216303F10C0252E8002FDF
:1052C00022F0100203F10C0040E800210029F3D184
:1052D000E06BFDF789FD02236363E38DA18DC91A9D
:1052E00089B22046FFF7D0FE97E7E28DE08DA18DD1
:1052F00080B292B2002890D0891A89B200298CD04D
:1053000003F10C0252E8002F22F4907203F10C0515
:1053100045E800200028F3D103F1140252E8002FE1
:1053200022F0010203F1140545E800200028F3D122
:10533000202284F84220206303F10C0252E8002F5F
:1053400022F0100203F10C0545E800200028F3D1FB
:1053500002236363C5E7160628D50D0626D594F803
:105360004120212A7FF459AFA168226AB1F5805FFC
:1053700017D12169A9B932F8021BC1F3080159609C
:105380002262E28C013A92B2E284002A7FF445AFB5
:10539000DA6822F08002DA60DA6842F04002DA600D
:1053A0003BE7511C216212785A60EAE750067FF50C
:1053B00034AF4A067FF531AFDA68204622F040026A
:1053C000DA60202384F84130FFF755FE25E700BF5F
:1053D000795000080023C285436422238285026934
:1053E00080F84230816203681AB1DA6842F4807250
:1053F000DA605A69002042F001025A61DA6842F02C
:105400002002DA60704770B490F84260202E06D116
:1054100041B13AB10024046370BCFFF7DBBF022046
:1054200070BC70470120FBE7EFF305832BB9064BF7
:10543000186828B901221A6070476FF0050070479C
:105440004FF0FF30704700BF1C0D002010B5EFF388
:1054500005845CB9084B1A68012A0AD1074AD47737
:1054600002221A6000F030FF204610BD6FF00500E8
:10547000FBE74FF0FF30F8E71C0D002000ED00E0E7
:10548000EFF305830BB100F073BF00F06BBFF0B515
:105490001446002287B00B460592EFF30582FAB955
:1054A000F0B154B3A56925B1691E372902D900208E
:1054B00017E018256268D207F9D466699EB1B20870
:1054C0002168D4E9027C87B1BCF15B0F08D924695B
:1054D00034B12EB1CDE90147009500F08EFE059064
:1054E000059807B0F0BD8022EAE7BCF1000FF7D1C4
:1054F0002469002CF4D10C4601E01825802205A96E
:10550000CDE9005192B2214600F0AFFE01281CBF48
:1055100000230593E4E737B50546EFF305845CB94E
:1055200000F020FF291A0029019008DD01A801F0F0
:1055300033F8204603B030BD6FF00500FAE76FF096
:105540000300F7E7F8B50546EFF3058717B1002428
:105550002046F8BD20B346683307F8D4D0E90213DB
:1055600006F0010699B14F2BF1D9BEB1042000F02D
:1055700082FA04460028EAD037462D68294620469C
:1055800000F0A4FC002FE3D044F00104E0E7002B7E
:10559000DDD12EB1042000F0A2FAEAE70120E6E70F
:1055A000012000F09CFA04460028D0D0002DE5D060
:1055B0000026E1E738B503460C4620F0010003F071
:1055C0000102EFF3058595B9012B13D962B100F003
:1055D0005BFC012801D1002038BD002C14BF6FF006
:1055E00001006FF00200F7E700F091FBF1E76FF0C8
:1055F0000500F1E76FF00300EEE7024608B520F082
:10560000010002F00103EFF3058179B9012A10D9F5
:105610003BB100F045FA01280CBF00206FF00200FA
:1056200008BD1A46194600F074F9F4E76FF005005A
:10563000F6E76FF00300F3E7034B0360034B0B60E7
:1056400080231360704700BFC00C0020C00A0020F8
:10565000034B0360034B0B604FF480731360704780
:10566000640A0020640600204FF0FF3200F10803B6
:10567000C0E90223436003610023036070470023F5
:105680000361704743689A684B608A605160996013
:105690000368086101330360704730B50C68631C10
:1056A0000AD103695A684A6091608B605960036847
:1056B00008610133036030BD00F1080213465268EF
:1056C0001568A542FAD9EDE70369D0E901128A60AD
:1056D00051605968814208BF5A60002202611A680D
:1056E000013A1A601868704710B5044601F0D2FB01
:1056F000A46B01F0EFFBB4FA84F0400910BD70B563
:105700001646026C0446856B42B906689EB98068ED
:1057100001F0E4F8A6600135A56370BD6EB940687C
:1057200001F0ECFD6368226C1344A268636093424D
:1057300024BF236863600020EDE7C06801F0DEFD50
:10574000226CE36851429B1A2268E36093423EBF99
:10575000A3685B18E360022EEDD10DB1013DEAE7CD
:105760002846D8E703461A6C084610B462B1DC68D4
:10577000996814448C4228BF1968DC6028BFD9603E
:10578000D96810BC01F0BABD10BC704770B50446B2
:1057900001F080FB94F8455004F124066DB2002D11
:1057A00001DD636AB3B9FF2384F8453001F092FB51
:1057B00001F070FB94F8445004F110066DB2002D16
:1057C00001DD23697BB9FF2384F84430BDE87040D4
:1057D00001F080BB304600F09FFF08B101F024F8D3
:1057E000013D6DB2DBE7304600F096FF08B101F0F5
:1057F0001BF8013D6DB2E2E738B50D46044640B9ED
:105800004FF0500383F31188BFF36F8FBFF34F8FB7
:10581000FEE701F03FFBD4E90F314B432268D0187B
:105820005B1AA060626000201A44FF23A063E2605C
:1058300084F8443084F84530A5B9236973B104F184
:10584000100000F069FF48B14FF0E0234FF08052A4
:10585000C3F8042DBFF34F8FBFF36F8F01F03AFBF6
:10586000012038BD04F11000FFF7FEFE04F1240012
:10587000FFF7FAFEF2E737B50D461C4640B94FF088
:10588000500383F31188BFF36F8FBFF34F8FFEE791
:1058900043B94FF0500383F31188BFF36F8FBFF309
:1058A0004F8FFEE74AB191B94FF0500383F311884F
:1058B000BFF36F8FBFF34F8FFEE741B14FF050033F
:1058C00083F31188BFF36F8FBFF34F8FFEE7502331
:1058D0000193019B502B08D04FF0500383F31188A4
:1058E000BFF36F8FBFF34F8FFEE70121002D08BF7D
:1058F0002246C4E90F0584F8461020462260019B29
:10590000FFF77AFF20469DF8183084F84C3003B03A
:1059100030BD2DE9FF410F461E460446019240B9B5
:105920004FF0500383F31188BFF36F8FBFF34F8F96
:10593000FEE751B9036C43B14FF0500383F3118874
:10594000BFF36F8FBFF34F8FFEE7022E0BD1E36BD8
:10595000012B08D04FF0500383F31188BFF36F8FF2
:10596000BFF34F8FFEE700F06BFF054620B3002525
:105970004FF0000801F08EFAA26BE36B9A4227D237
:10598000324639462046FFF7BAFE636A1BB104F17E
:10599000240000F0C1FE48B14FF0E0234FF08052E8
:1059A000C3F8042DBFF34F8FBFF36F8F01F092FA4E
:1059B000012004B0BDE8F081019B002BD8D04FF04E
:1059C000500383F31188BFF36F8FBFF34F8FFEE750
:1059D000022ED5D0019B1BB901F07CFA0020E8E72C
:1059E00015B902A800F0D8FE01F074FA00F0B2FC7C
:1059F00001F050FA94F84430FF2B08BF84F844803B
:105A000094F84530FF2B08BF84F8458001F062FA16
:105A100001A902A800F0CCFE38BB01F03BFAA26B52
:105A2000E36B9A420ED101F055FA019904F110008E
:105A300000F038FE2046FFF7A9FE00F039FD48B11E
:105A4000012597E701F046FA2046FFF79FFE00F098
:105A50002FFDF5E74FF0E0234FF08052C3F8042DFF
:105A6000BFF34F8FBFF36F8FEAE72046FFF78EFE3D
:105A700000F01EFDB2E7002213B50B460090114660
:105A80000120FFF7F8FE044638B100231A461946F4
:105A900083600360C360FFF73CFF204602B010BD87
:105AA00038B5044640B94FF0500383F31188BFF373
:105AB0006F8FBFF34F8FFEE7856800F0BBFE854216
:105AC0000BD1E368013BE3600BB1012038BD1A46FE
:105AD00019462046FFF71DFFF7E70020F6E770B5EF
