:020000040800F2
:1000000000500020F92400087D2400087F24000807
:1000100081240008832400088524000800000000D3
:10002000000000000000000000000000F16C00086B
:100030008724000800000000816D00088924000862
:1000400041250008412500084125000841250008F8
:1000500041250008A1240008412500084125000889
:1000600041250008412500084125000841250008D8
:1000700041250008412500084125000841250008C8
:1000800041250008412500084125000841250008B8
:1000900041250008412500084125000841250008A8
:1000A000A5240008B124000841250008B524000853
:1000B000B9240008C524000841250008D1240008FF
:1000C000DD240008412500084125000841250008DD
:1000D0004125000841250008E924000841250008C1
:1000E00041250008412500084125000800000000C6
:1000F0000000000000000000000000000000000000
:0C01000000000000000000005FF808F1A3
:1001100010B5054C237833B9044B13B10448AFF341
:1001200000800123237010BD140000200000000097
:100130008C71000808B5034B1BB103490348AFF3AA
:10014000008008BD00000000180000208C7100082D
:1001500070B54FF0FF0C4CF4E06C1CEA11541DBF5D
:100160001CEA135594EA0C0F95EA0C0F00F0DEF828
:100170002C4481EA030621EA4C5123EA4C5350EA0D
:10018000013518BF52EA033541F4801143F480135E
:1001900038D0A0FB02CE4FF00005E1FB02E506F0EF
:1001A0000042E0FB03E54FF00006E1FB03569CF044
:1001B000000F18BF4EF0010EA4F1FF04B6F5007F4A
:1001C00064F5407404D25FEA4E0E6D4146EB0606BC
:1001D00042EAC62141EA55514FEAC52040EA5E5045
:1001E0004FEACE2EB4F1FD0C88BFBCF5E06F1ED8EF
:1001F000BEF1004F08BF5FEA500E50F1000041EB26
:10020000045170BD06F0004646EA010140EA0200D2
:1002100081EA0301B4EB5C04C2BFD4EB0C0541EAF4
:10022000045170BD41F480114FF0000E013C00F309
:10023000AB8014F1360FDEBF002001F0004170BD2D
:10024000C4F10004203C35DA0C341BDC04F1140446
:10025000C4F1200500FA05F320FA04F001FA05F2D2
:1002600040EA020001F0004221F0004110EBD3709F
:1002700021FA04F642EB06015EEA430E08BF20EACB
:10028000D37070BDC4F10C04C4F1200500FA04F36E
:1002900020FA05F001FA04F240EA020001F0004100
:1002A00010EBD37041F100015EEA430E08BF20EA73
:1002B000D37070BDC4F1200500FA05F24EEA020EBB
:1002C00020FA04F301FA05F243EA020321FA04F0EA
:1002D00001F0004121FA04F220EA020000EBD370A1
:1002E0005EEA430E08BF20EAD37070BD94F0000FA1
:1002F0000FD101F00046400041EB010111F4801FD5
:1003000008BF013CF7D041EA060195F0000F18BF85
:10031000704703F00046520043EB030313F4801FC1
:1003200008BF013DF7D043EA0603704794EA0C0F7B
:100330000CEA135518BF95EA0C0F0CD050EA410691
:1003400018BF52EA4306D1D181EA030101F000410E
:100350004FF0000070BD50EA410606BF1046194636
:1003600052EA430619D094EA0C0F02D150EA013642
:1003700013D195EA0C0F05D152EA03361CBF104683
:1003800019460AD181EA030101F0004141F0FE4122
:1003900041F470014FF0000070BD41F0FE4141F4A6
:1003A000780170BD81F0004102E000BF83F000439E
:1003B00030B54FEA41044FEA430594EA050F08BF00
:1003C00090EA020F1FBF54EA000C55EA020C7FEAC4
:1003D000645C7FEA655C00F0E2804FEA5454D4EB41
:1003E0005555B8BF6D420CDD2C4480EA020281EA0B
:1003F000030382EA000083EA010180EA020281EA43
:100400000303362D88BF30BD11F0004F4FEA013194
:100410004FF4801C4CEA113102D0404261EB4101A3
:1004200013F0004F4FEA03334CEA133302D0524229
:1004300063EB430394EA050F00F0A780A4F10104E5
:10044000D5F1200E0DDB02FA0EFC22FA05F280181F
:1004500041F1000103FA0EF2801843FA05F3594105
:100460000EE0A5F120050EF1200E012A03FA0EFC84
:1004700028BF4CF0020C43FA05F3C01851EBE371AE
:1004800001F0004507D54FF0000EDCF1000C7EEBCB
:1004900000006EEB0101B1F5801F1BD3B1F5001F09
:1004A0000CD349085FEA30004FEA3C0C04F1010428
:1004B0004FEA445212F5800F80F09A80BCF1004F51
:1004C00008BF5FEA500C50F1000041EB045141EAD3
:1004D000050130BD5FEA4C0C404141EB0101013C9C
:1004E00028BFB1F5801FE9D291F0000F04BF01468B
:1004F0000020B1FA81F308BF2033A3F10B03B3F15D
:1005000020020CDA0C3208DD02F1140CC2F10C02EC
:1005100001FA0CF021FA02F10CE002F11402D8BF4A
:10052000C2F1200C01FA02F120FA0CFCDCBF41EA16
:100530000C019040E41AA2BF01EB0451294330BDE5
:100540006FEA04041F3C1CDA0C340EDC04F11404C2
:10055000C4F1200220FA04F001FA02F340EA030099
:1005600021FA04F345EA030130BDC4F10C04C4F1DF
:10057000200220FA02F001FA04F340EA03002946BF
:1005800030BD21FA04F0294630BD94F0000F83F409
:10059000801306BF81F480110134013D4EE77FEAEC
:1005A000645C18BF7FEA655C29D094EA050F08BF38
:1005B00090EA020F05D054EA000C04BF1946104619
:1005C00030BD91EA030F1EBF0021002030BD5FEA5D
:1005D000545C05D14000494128BF41F0004130BD85
:1005E00014F580043CBF01F5801130BD01F00045D9
:1005F00045F0FE4141F470014FF0000030BD7FEA4C
:10060000645C1ABF194610467FEA655C1CBF0B4646
:10061000024650EA013406BF52EA033591EA030F5D
:1006200041F4002130BD00BF90F0000F04BF002155
:10063000704730B54FF4806404F132044FF0000588
:100640004FF0000150E700BF90F0000F04BF002101
:10065000704730B54FF4806404F1320410F0004567
:1006600048BF40424FF000013EE700BF42004FEA62
:10067000E2014FEA31014FEA02701FBF12F07F43DF
:1006800093F07F4F81F06051704732F07F4208BF96
:10069000704793F07F4F04BF41F40021704730B59D
:1006A0004FF4607401F0004521F000411CE700BFE9
:1006B00050EA010208BF704730B54FF000050AE06C
:1006C00050EA010208BF704730B511F0004502D56D
:1006D000404261EB41014FF4806404F132045FEA6F
:1006E000915C3FF4D8AE4FF003025FEADC0C18BF18
:1006F00003325FEADC0C18BF033202EBDC02C2F10A
:10070000200300FA03FC20FA02F001FA03FE40EA9B
:100710000E0021FA02F11444BDE600BF4A0011D2D6
:1007200012F5001211D20DD56FF47873B3EB62524B
:100730000ED44FEAC12343F0004343EA505323FA57
:1007400002F070474FF00000704750EA013002D1CC
:100750004FF0FF3070474FF00000704780F00040CE
:1007600002E000BF81F0004142001FBF5FEA410389
:1007700092EA030F7FEA226C7FEA236C6AD04FEA89
:100780001262D2EB1363C1BFD218414048404140CE
:10079000B8BF5B42192B88BF704710F0004F40F480
:1007A000000020F07F4018BF404211F0004F41F49C
:1007B000000121F07F4118BF494292EA030F3FD068
:1007C000A2F1010241FA03FC10EB0C00C3F120037B
:1007D00001FA03F100F0004302D5494260EB40000A
:1007E000B0F5000F13D3B0F1807F06D340084FEA75
:1007F000310102F10102FE2A51D2B1F1004F40EB6A
:10080000C25008BF20F0010040EA030070474900D1
:1008100040EB0000013A28BFB0F5000FEDD2B0FA6E
:1008200080FCACF1080CB2EB0C0200FA0CF0AABF91
:1008300000EBC25052421843BCBFD040184370472F
:1008400092F0000F81F4000106BF80F40000013235
:10085000013BB5E74FEA41037FEA226C18BF7FEA0C
:10086000236C21D092EA030F04D092F0000F08BF4E
:100870000846704790EA010F1CBF0020704712F035
:100880007F4F04D1400028BF40F00040704712F174
:1008900000723CBF00F50000704700F0004343F0D9
:1008A000FE4040F4000070477FEA226216BF08460F
:1008B0007FEA23630146420206BF5FEA412390EAD2
:1008C000010F40F4800070474FF0000304E000BFC8
:1008D00010F0004348BF40425FEA000C08BF704779
:1008E00043F0964301464FF000001CE050EA01023D
:1008F00008BF70474FF000030AE000BF50EA010252
:1009000008BF704711F0004302D5404261EB41013E
:100910005FEA010C02BF84460146002043F0B64363
:1009200008BFA3F18053A3F50003BCFA8CF2083A88
:10093000A3EBC25310DB01FA02FC634400FA02FC91
:10094000C2F12002BCF1004F20FA02F243EB020098
:1009500008BF20F00100704702F1200201FA02FCFA
:10096000C2F1200250EA4C0021FA02F243EB0200ED
:1009700008BF20EADC7070474FF0FF0C1CEAD05231
:100980001EBF1CEAD15392EA0C0F93EA0C0F6FD0F2
:100990001A4480EA010C400218BF5FEA41211ED0D0
:1009A0004FF0006343EA501043EA5111A0FB0131BC
:1009B0000CF00040B1F5000F3EBF490041EAD37191
:1009C0005B0040EA010062F17F02FD2A1DD8B3F10D
:1009D000004F40EBC25008BF20F00100704790F07C
:1009E000000F0CF0004C08BF49024CEA502040EACE
:1009F00051207F3AC2BFD2F1FF0340EAC250704794
:100A000040F400004FF00003013A5DDC12F1190FD1
:100A1000DCBF00F000407047C2F10002410021FA43
:100A200002F1C2F1200200FA02FC5FEA310040F15B
:100A3000000053EA4C0308BF20EADC70704792F0D4
:100A4000000F00F0004C02BF400010F4000F013A0C
:100A5000F9D040EA0C0093F0000F01F0004C02BF07
:100A6000490011F4000F013BF9D041EA0C018FE776
:100A70000CEAD15392EA0C0F18BF93EA0C0F0AD07C
:100A800030F0004C18BF31F0004CD8D180EA0100A2
:100A900000F00040704790F0000F17BF90F0004F3B
:100AA000084691F0000F91F0004F14D092EA0C0F1D
:100AB00001D142020FD193EA0C0F03D14B0218BFB0
:100AC000084608D180EA010000F0004040F0FE40F6
:100AD00040F40000704740F0FE4040F44000704792
:100AE0004FF0FF0C1CEAD0521EBF1CEAD15392EA11
:100AF0000C0F93EA0C0F69D0A2EB030280EA010C01
:100B000049024FEA402037D04FF0805343EA111199
:100B100043EA10130CF000408B4238BF5B0042F1F7
:100B20007D024FF4000C8B4224BF5B1A40EA0C009C
:100B3000B3EB510F24BFA3EB510340EA5C00B3EBCE
:100B4000910F24BFA3EB910340EA9C00B3EBD10FBC
:100B500024BFA3EBD10340EADC001B0118BF5FEA0E
:100B60001C1CE0D1FD2A3FF650AF8B4240EBC25037
:100B700008BF20F0010070470CF0004C4CEA5020F8
:100B80007F32C2BFD2F1FF0340EAC250704740F447
:100B900000004FF00003013A37E792F0000F00F039
:100BA000004C02BF400010F4000F013AF9D040EAB7
:100BB0000C0093F0000F01F0004C02BF490011F44B
:100BC000000F013BF9D041EA0C0195E70CEAD15343
:100BD00092EA0C0F08D142027FF47DAF93EA0C0F2A
:100BE0007FF470AF084676E793EA0C0F04D14B020E
:100BF0003FF44CAF08466EE730F0004C18BF31F0C0
:100C0000004CCAD130F000427FF45CAF31F00043B9
:100C10007FF43CAF5FE700BF4FF0FF3C06E000BF52
:100C20004FF0010C02E000BF4FF0010C4DF804CD75
:100C30004FEA40024FEA41037FEA226C18BF7FEA85
:100C4000236C11D001B052EA530C18BF90EA010F87
:100C500058BFB2EB030088BFC81738BF6FEAE17016
:100C600018BF40F0010070477FEA226C02D15FEAB2
:100C7000402C05D17FEA236CE4D15FEA412CE1D01E
:100C80005DF8040B704700BF844608466146FFE7E5
:100C90000FB5FFF7C9FF002848BF10F1000F0FBDC7
:100CA0004DF808EDFFF7F4FF0CBF012000205DF8C0
:100CB00008FB00BF4DF808EDFFF7EAFF34BF012045
:100CC00000205DF808FB00BF4DF808EDFFF7E0FFDE
:100CD00094BF012000205DF808FB00BF4DF808ED2F
:100CE000FFF7D2FF94BF012000205DF808FB00BF92
:100CF0004DF808EDFFF7C8FF34BF012000205DF874
:100D000008FB00BF42000ED2B2F1FE4F0BD34FF0F2
:100D10009E03B3EB126209D44FEA002343F0004371
:100D200023FA02F070474FF00000704712F1610F94
:100D300001D1420202D14FF0FF3070474FF0000066
:100D4000704700BF38B5084C204601F0A5FD0A21C8
:100D5000204601F03FFC204601F0E0FC054620461D
:100D600001F0A0FEA8B238BDC80500202DE9F04171
:100D700064250024DFF84C80134F144EFFF7E2FF88
:100D8000FFF7A6FD4146FFF7F7FD3946FFF7EAFCFE
:100D90003146FFF7A5FE01462046FFF7E5FC044675
:100DA000012004F0CAFA013DE8D109492046FFF7C5
:100DB000E3FDFFF7A7FF074B80B2A3F84A00BDE8A9
:100DC000F08100BFD044D83CF628584100007A4456
:100DD0000000C842DE000020034B02465870082184
:100DE000024802F09DB800BF30000020000C014016
:100DF000064AB2F88030003B18BF01230370B2F8F6
:100E00008230003B18BF012343707047DE00002092
:100E10000278034BA3F880204278A3F88220704721
:100E2000DE00002001280A4605D1064B064819704D
:100E3000102102F075B8022802D10846FFF7CCBF96
:100E4000704700BF30000020000C014010B5094C75
:100E5000E3880BB9E18C01B101210120FFF7E2FF2A
:100E6000B4F90032BDE81040002BB4BF01200020CF
:100E7000FFF7B2BFDE00002038B500240B4D22463C
:100E800010210B482C7102F04BF822460221094830
:100E900002F046F8EC70084D2146284603F006FEA5
:100EA0002846BDE83840042103F000BEA60000201B
:100EB00000080140000C01409C040020264B10B5A6
:100EC00033F81120541E012C98BF02704A1C33F8CD
:100ED0001220012A98BF42708A1C33F812201AB1DE
:100EE000632A8CBF6422D2B28270CA1C33F81220EB
:100EF000C2700A1D33F81220012A01D91C8804B1DE
:100F000002714A1D33F8122042718A1D33F81220F3
:100F10008271CA1D33F81220C27101F1080233F840
:100F20001220027201F1090233F81220427201F11B
:100F30000A0233F81220827201F10B0233F81220F8
:100F4000C27201F10C0233F812200D31027333F832
:100F50001130437310BD00BFDE0000200F4BB3F80B
:100F600000220280B3F802224281B3F80422828177
:100F7000B3F80622C281B3F808220282B3F80A222B
:100F80004280B3F80C224282B3F80E228280B3F87A
:100F90001022C280B3F8123203817047DE000020B5
:100FA00002781F4B10B523F8112044784A1C23F80F
:100FB000124084788A1C23F81240C478CA1C23F893
:100FC000124004790A1D23F8124044794A1D23F87F
:100FD000124084798A1D23F81240C479CA1D23F86F
:100FE0001240047A01F1080223F81240447A01F118
:100FF000090223F81240847A01F10A0223F8124010
:10100000C47A01F10B0223F81240047B01F10C02B7
:1010100023F81240427B0D3123F8112010BD00BF90
:10102000DE00002002880F4BA3F800224288A3F8BC
:101030000A228288A3F80E22C288A3F8102202890D
:10104000A3F812224289A3F802228289A3F804227B
:10105000C289A3F80622028AA3F80822428AA3F8CA
:101060000C227047DE000020024608B9FFF704BFDB
:10107000012805D1064B18711021064801F050BF18
:10108000022803D1024B00221871F5E7704700BF18
:10109000A60000200008014038B50446C0B91C4D28
:1010A000024628714FF400711A4801F039FF2246B8
:1010B0004FF48051184801F033FF21461748EC7077
:1010C00003F0F4FCBDE838400821144803F0EEBCFE
:1010D00001280FD10E4B024618714FF400710D48D4
:1010E00001F01EFF0022BDE838404FF480510A484D
:1010F00001F016BF022809D1054B002218714FF4E8
:101100000071044801F00CFF0122ECE738BD00BF7C
:101110009800002000080140000C01402C05002030
:1011200038B5074D2B682846DC6A64234C43B4FB72
:10113000F3F4002103F07EFC2B685C6338BD00BF34
:101140009C04002038B5114C2368DD6A64234D43AC
:10115000B5FBF3F50379012B0AD10821204603F0F2
:10116000A5FC0021204603F065FC23685D6338BDC3
:10117000022BFCD10021204603F098FC08212046D8
:1011800003F058FC2368DD63F1E700BF2C05002065
:1011900038B5174A4178904214BF02220122012932
:1011A0000346144D0FD104796CB1017329838478FF
:1011B000012A2146C47003D1FFF7B2FF204638BD93
:1011C000FFF7C0FFFAE70024012A1C7321462C8395
:1011D00018461C71DC7005D1FFF7A2FFFFF74CFE2B
:1011E0000024EBE7FFF7AEFF2046FFF755FFF7E7D8
:1011F000A6000020DE000020F8B51E46114B012895
:10120000114C08BF1C464FF00005104B08462361E7
:101210000F4B256063610F4B6560A3610E4BA560AA
:10122000E560E56117460D4C08BF1C46FFF76AFDF7
:10123000E0713846FFF766FD20723046FFF762FD29
:101240006072F8BD640000204400002000007A4471
:101250000000FA430000C842A600002098000020C9
:101260002DE9F74F0646784B012E0846774908BF0F
:101270009846774B18BF88461146764D08BF1D46E5
:10128000FFF770FA0446E86098F80800FFF71CFBC7
:101290007149FFF725FC074698F80900FFF714FB92
:1012A0006D49FFF71DFC824698F80700FFF70CFB1D
:1012B0006949FFF715FC2146FFF75EFB6749834646
:1012C0002046FFF759FB2968FFF74EFA00218046B8
:1012D00028603846D5F81890FFF7E2FC002840F067
:1012E000838039464846FFF7FBFB014640460091A4
:1012F000FFF7FEFC0099002878D02960384629685D
:10130000FFF73AFB696800902046FFF72BFA534934
:10131000FFF7E6FB012E0CBF514B524B52491F68A1
:101320000193FFF729FB514980463846FFF724FB1C
:1013300001464046FFF718FA019B80461860009965
:101340006C605846FFF710FA514604464046FFF7D6
:1013500013FB01462046FFF707FA012E0CBF444C51
:10136000444C0746266801463046FFF7A3FC002898
:1013700047D031463846FFF7F5F94FF08041074630
:10138000FFF7B6FC08B14FF0804739463046FFF70B
:10139000EBF9206031496869FFF7EEFAD5F808806B
:1013A000064641462068FFF7DDF90746014630460C
:1013B000FFF780FC00283BD031464046FFF7D4F9C8
:1013C000206049462068FFF793FC08B1C4F80090FC
:1013D000002620683146FFF76DFC00B126602068CA
:1013E000A86003B0BDE8F08F29697FE701F10041F3
:1013F00040460091FFF75EFC00283FF47FAF009964
:101400007BE739463046FFF773FC0028C2D03946E7
:101410003046FFF7A7F94FF080410746FFF768FC19
:1014200008B14FF0804739463046FFF79BF9B0E7E7
:10143000394606F10040FFF75BFC0028C1D0314679
:101440004046FFF78FF9BBE7A60000209800002078
:1014500064000020440000200000C8420AD7233C5A
:10146000400000203C000020CDCCCC3D6666663FAD
:10147000380000203400002070B5334B334D9842C3
:10148000334B044608BF1D46437814BF022601268D
:1014900023B10378022B01D10379EBB90023012E8C
:1014A0002B606B60AB60EB60EB610CD1284A0021D4
:1014B0002046D361FFF734FE0021264803F0F6FAF8
:1014C0000025284670BD214A00212046D361FFF740
:1014D00039FE08212048F1E7807AFFF7F5F96861C5
:1014E000E078FFF7F1F90546A078FFF7EDF92A4615
:1014F00001463046FFF7B4FEFFF704FCC3B2607943
:10150000E370984228BF1846A379834202D9002885
:1015100018BF1846FFF798F809A3D3E90023FEF790
:1015200017FEFFF7FBF8012EC5B22946204602D16F
:10153000FFF7F6FDC5E7FFF705FEC2E7AFF3008052
:101540005C8FC2F5285CEF3FA6000020440000201D
:10155000640000209C0400202C05002038B5194AA6
:10156000194D1A4B4178A84208BF13460129044679
:101570000DD10378012B04D0022B05D0AC421CD135
:1015800014E0FFF705FEF9E7FFF776FFF6E700291D
:10159000F4D10F4A017311830022A8421A605A60E5
:1015A0009A60DA60C17006D1FFF7BAFD2879BDE80C
:1015B0003840FFF759BDFFF7C5FD2079BDE8384039
:1015C000FFF76ABD64000020A60000204400002050
:1015D000DE00002070B500F025F800210C48FFF770
:1015E0006DFC0C4C0C4D10210C48FFF767FC0C48AF
:1015F000FFF7B4FC2946234622460120FFF7FCFDF5
:10160000234622462946BDE870400220FFF7F4BD7C
:10161000A60000200000A04000002041980000200B
:1016200084000020F0B503242E4B00220521012068
:10163000A3F80042A3F808420A2764260E250C24CA
:10164000A3F80212A3F80422A3F80602A3F80A02E0
:10165000A3F80C02A3F80E22A3F81022A3F812227A
:1016600018805A809A80DA801A81DF811982598223
:101670001A835A835E819A819D82DC8218845A84FF
:101680009A84DA841A85DF85198659861A875A87DB
:101690005E859A859D86DC86A3F84020A3F84220CB
:1016A000A3F84420A3F84620A3F84820A3F84A2032
:1016B000A3F86020A3F86220A3F86420A3F86620B2
:1016C000A3F86820084B1A805A809A80DA801A8121
:1016D000064B1A605A60064B1A705A709A70DA708C
:1016E000F0BD00BFDE000020D4000020CC000020B0
:1016F000C800002070B5002204464FF6FF70084E67
:101700008A4200DB70BD0825A35C584040F300030B
:10171000334083EA5003013D98B2F7D10132EFE73D
:1017200001A0FFFF02681D4B10B59A4234D100F0B2
:101730004BFF1B4B1B4918600B78FF2B28D01A4C12
:101740005A1CD2B219482478022A0A70C45418D9F3
:101750004378062B03D00BD8033B012B18D8082362
:101760009A420ED30123124A1370124A137008E0F2
:10177000102B0DD1062A04D98379093313F0FF0306
:10178000EED1BDE81040012207490B4803F04DBDE2
:101790000023074A0B70E9E710BD00BF004400407A
:1017A000380300203D030020360300203E030020C4
:1017B0003C030020B80000205404002008B5026853
:1017C000094B9A420ED10023084A09481370094A6E
:1017D000137003F0F4FABDE80840012206490448FA
:1017E00003F023BD08BD00BF004400403D030020BE
:1017F000540400203C0300203603002010B5084CA0
:10180000204603F0DCFA0023064A20461370064AFD
:1018100006491370BDE81040012203F006BD00BF69
:10182000540400203D0300203C0300203603002028
:101830002DE9F0417B4DC0B02F78052F23D97A4E8A
:101840007A4CB6F8003294F80080984504D0002312
:10185000774A2B70137016E0B91E2046FFF74AFF37
:10186000625CC3B29A4206D1274417F8013CC0F328
:101870000F2083420AD000236D4A2B7013706D4AEB
:1018800013680133136040B0BDE8F08163788DF8D0
:101890000080062B8DF8013000F09F8007D8032BC5
:1018A0002DD0042B6FD0012243F0800389E0102B50
:1018B000F9D16288A38852BA5BBA92B29BB202EBAA
:1018C0000308B8F5967F94F802E094F803C02779EE
:1018D0006079A1797FDCB1EB430F7CD106EB420646
:1018E0000022934204F1020440F3918094F80580B1
:1018F000A179013241EA082126F8021BF1E762884A
:10190000A08852BA40BA92B280B21118B1F5967F4F
:1019100055DC002441008DF8021006EB42025F1CEA
:101920001E46A04203F10203FFB2DBB221DC033109
:10193000C9B26846FFF7DEFE8C1C0DF801003E4E72
:101940000131000AC9B20DF801003068E4B218B1E3
:101950004FF0FF3103F04CFD6423224669463748BF
:1019600003F0DFF9306800283FF471AF03F063FD46
:101970006DE732F802CB01344FEA1C2E0DF806E079
:101980000DF807C0CBE76288A38852BA5BBA92B25F
:101990009BB2D11805291ADC2948002400EB42002B
:1019A0006A4659008DF80210A34202F10202BEDD20
:1019B00030F8026B0134370A57709670F4E78323CE
:1019C000022203218DF801308DF80220B1E7842333
:1019D000F6E78623F4E79023F2E7618894F802E0C3
:1019E0004BBA9BB2B3F5967F94F803C0A2882779CF
:1019F0006079EED254BA26F8134040F601139942AA
:101A000005D1B2F5807F02D10023A6F8103206215D
:101A10008DF802E08DF803C08DF804708DF8050094
:101A200087E700BF3D030020DE0000203E030020CA
:101A30003C030020BC00002040040020540400208F
:101A4000D400002070B51F4C1F4E2278B6F8023229
:101A50009A4236D01D4D286818B14FF0FF3103F07F
:101A6000C7FCB6F80232013B032B22D8DFE803F0B3
:101A70002502191D02224FF496432270144C204671
:101A8000636003F034F9204603F002F90122204696
:101A9000104903F0CAFB286898B1BDE8704003F014
:101AA000CABC03224FF41643E7E704224FF4614314
:101AB000E3E705224FF4E133DFE701224FF4165349
:101AC000DBE770BD00000020DE00002040040020A5
:101AD000540400203603002038B500F075FD094A93
:101AE00004461368C31AB3F57A7F0AD3106047F22D
:101AF0003052054D2B68C31A934202D9FFF77EFE80
:101B00002C6038BDB40000203803002008B500F078
:101B10005BFD054B01221860044B05491860054820
:101B2000BDE8084003F081BB38030020B40000206A
:101B30003603002054040020F8B503F0B3FB04463C
:101B40000D4D0E4F0E4E2846FFF752F92846FFF76F
:101B50007DF92846FFF75CF93B6804F5FA74013318
:101B60003B60338000F030FD7080FFF7FFF82046C7
:101B700003F0EFFBE7E700BF30000020C4000020C7
:101B8000D40000202DE9F04142F6F824FFF7BEFF13
:101B9000194B1A4F5B681A4EB4FBF3F403F082FB47
:101BA000A400052C054638BF05243B6801333B6083
:101BB00033785BB9DFF84C8098F8003063B90A35A8
:101BC000FFF78AFF284603F0C4FBEEE7FFF730FE7D
:101BD0003378002BF3D1EDE700F0F6FC0A4B1B68DD
:101BE000C01AA042EBD90023084A88F800303370AD
:101BF000136801331360E2E754040020C0000020A2
:101C00003C0300203D03002038030020BC000020DE
:101C1000F8B503F047FB1C4B1C491A46044601204B
:101C2000FFF7EAFA184B02201A461849FFF7E4FAC0
:101C3000174E184D184F00213046FFF73FF910217D
:101C40002846FFF73BF91448FFF788F93B89012B39
:101C500001D1FFF7BFFCFFF7F5FE3046FFF77EFC32
:101C60002846FFF77BFC30460021FFF799F9102149
:101C70002846FFF795F91E343846FFF7D3F920467A
:101C800003F067FBD7E700BF0000A0400000204141
:101C9000A6000020980000208400002070B503F00A
:101CA00001FB04460A4E0B4D4FF40041084801F079
:101CB0003CF92B78012B06D14FF48041304601F0DE
:101CC00034F900232B70FA34204603F042FBEBE793
:101CD00000100140B800002010B594B0142200217B
:101CE0000CA805F019FA142200210DEB020005F0F2
:101CF00013FA1022002101A805F00EFA02244FF475
:101D000080330122CDE91143CDE90A234FF4E013DA
:101D10000AA80E92139302F01BF808B172B6FEE700
:101D20000F23CDE905344FF480630790CDE90830E7
:101D3000214605A802F0CEF908B172B6FEE703907D
:101D400001A8019402F082FA08B172B6FEE714B05D
:101D500010BD000080B59AB000F018FCFFF7BCFF82
:101D60001022002112A805F0D7F9A64B41F21A0162
:101D70009A69A54842F010029A619A69002402F01B
:101D800010020192019A9A69022542F020029A619A
:101D90009A69012702F020020292029A9A6920268B
:101DA00042F004029A619A6902F004020392039AD3
:101DB0009A6942F008029A619B69002203F00803C5
:101DC0000493049B01F0ACF84FF460438F4812A9D0
:101DD000CDE91445CDE9123700F060FF40F212233F
:101DE0008B4812A9CDE91237CDE9144500F056FF12
:101DF000874812A9CDE91264149400F04FFF41F214
:101E00001A03814812A9CDE91445CDE9123700F033
:101E100045FF4FF4C8437C4812A9CDE9123414940D
:101E20007C4D00F03BFF7C487C4BC0E90244C0E99C
:101E300000534FF48043C0E90644C0E9043404620F
:101E400001F07CF8044608B172B6FEE701461022A4
:101E500012A805F061F94FF08043714DCDE90B44B4
:101E6000C5E900344FF6FF732846C5E90334AC607A
:101E7000AC6102F003FC08B172B6FEE74FF4805784
:101E8000284612A9129702F0DFFC08B172B6FEE7ED
:101E9000CDE90B000BA9284602F00AFE034608B163
:101EA00072B6FEE74FF4E1325E485F4CC0E90233A0
:101EB000C0E900420C220361C0E90523C36102F0BE
:101EC000E7FE054608B172B6FEE70146102207A8F4
:101ED00005F022F91C2229460BA8CDE9055505F08D
:101EE0001BF92946324612A805F016F907234F4C74
:101EF0004F492046C4E9001340F28333C4E9055535
:101F0000C4E90335A56002F0B9FB08B172B6FEE77B
:101F1000204607A9079702F097FC08B172B6FEE7C2
:101F2000204602F0D7FB08B172B6FEE7CDE9050006
:101F300005A9204602F0BCFD024608B172B6FEE7D4
:101F40006023CDE90D00CDE90B30CDE90F001190F4
:101F50000BA9204602F016FC08B172B6FEE7082273
:101F600032480BA902F00EFC08B172B6FEE74FF43E
:101F70000053CDE91200CDE914001690199012A972
:101F80002A48179302F0C2FD054608B172B6FEE773
:101F9000264800F0DDF9102229460BA805F0BCF810
:101FA0001C22294612A8CDE9075505F0B5F80723EC
:101FB000204C214A2046C4E9002340F28333A56027
:101FC000C4E90335A56102F059FB08B172B6FEE71A
:101FD0004FF4805320460BA90B9302F035FC08B157
:101FE00072B6FEE7204602F075FB08B172B6FEE756
:101FF000CDE9070007A9204602F05AFD0246E8B1E4
:1020000072B6FEE700100240000C014000100140D3
:10201000000801400054004074050020A086010023
:10202000E404002054040020004400402C0500205B
:10203000002C01409C040020000400406023149008
:10204000CDE91230169012A9204602F09BFB08B190
:1020500072B6FEE70422204612A902F093FB054661
:1020600008B172B6FEE7204600F072F9294C2A4BFF
:10207000CDE9125514952360A5604FF460232573B4
:102080002575656001252046E361256100F08CFC23
:1020900008B172B6FEE7CDE91205149012A92046E8
:1020A00000F040FB08B172B6FEE70024FFF7BAFA71
:1020B00003F0CCF8194B12A81293CDE913441594F0
:1020C00003F05EF9164B21461860164A164803F0D5
:1020D000F0F8164B21461860154A164803F0E9F847
:1020E000154B21461860154A154803F0E2F8154BC8
:1020F0002146154A1860154803F0DBF8144B1860A8
:1021000003F0B6F822464FF40041124800F008FFF1
:10211000FEE700BFC805002000240140A4710008AC
:102120004004002058720008391B000850040020A9
:1021300034720008851B00084C040020107200084F
:10214000111C000848040020EC7100089D1C0008C8
:102150004404002000100140154B07B59A690F2177
:1021600042F001029A619A696FF0010002F00102E7
:102170000092009ADA6942F08052DA61DB6900224B
:1021800003F080530193019B00F0B8FC052100226D
:10219000084600F0B3FC052000F0E0FC054A536857
:1021A00023F0E06343F00073536003B05DF804FB79
:1021B000001002400000014010B5044686B0102215
:1021C000002102A804F0A8FF2268104B9A421BD1FC
:1021D00003F56C439A690E4842F400729A619A6959
:1021E00002A902F400720092009A9A6942F0040275
:1021F0009A619B69012203F004030193019B03236D
:10220000CDE9022300F04AFD06B010BD00240140D4
:102210000008014010B5044686B01022002102A833
:1022200004F07AFF2268194B9A422CD1184CC02234
:10223000A369184843F00803A361A36902A903F046
:1022400008030093009B1223CDE902230323059387
:1022500000F024FDE369002243F40013E361E36925
:10226000052103F400131F200193019B00F046FC9D
:102270001F2000F073FC20200022052100F03EFC0E
:10228000202000F06BFC06B010BD00BF00540040E1
:1022900000100240000C01401FB50368294A934218
:1022A00024D1294B05219A69182042F400629A61D1
:1022B0009B69002203F400630193019B00F01EFC64
:1022C000182000F04BFC00220521192000F016FC1C
:1022D000192000F043FC1B200022052100F00EFC19
:1022E0001B2005B05DF804EB00F038BCB3F1804F63
:1022F00011D103F50433DA691C2042F00102DA61DE
:10230000DB69002203F0010302930521029B00F028
:10231000F5FB1C20E5E70D4A934210D10A4B1D2026
:10232000DA69052142F00202DA61DB69002203F07A
:1023300002030393039B00F0E1FB1D20D1E705B0EE
:102340005DF804FB002C0140001002400004004036
:1023500010B5044686B01022002102A804F0DCFE6D
:102360002368144A934215D1134B9A6942F0040230
:102370009A619B6903F004030093009B4FF4A063F0
:10238000029302230D4802A90393059300F086FCF3
:1023900006B010BD0A4A9342FAD1074B9A6942F03F
:1023A00004029A619B6903F004030193019BC0231B
:1023B000E6E700BF002C0140001002400008014089
:1023C0000004004010B5044686B01022002102A887
:1023D00004F0A2FE22681A4B9A422FD103F5E6338D
:1023E000DA69184842F40032DA61DA6902A902F4C3
:1023F00000320092009A9A69002442F004029A6125
:102400009B69042203F004030193019B0223CDE99D
:1024100002230323059300F041FC082309480DEB38
:102420000301CDE90234049400F038FC2620224652
:10243000052100F063FB262000F090FB06B010BDE4
:10244000004400400008014008B50268084B9A4269
:102450000DD1084A0848D3690C2123F40033D36115
:1024600000F0F0FCBDE80840262000F085BB08BD68
:10247000004400400010024000080140FEE7FEE773
:10248000FEE7FEE7FEE7704708B500F091F804F0BC
:1024900019F9012803D0BDE8084004F093BC08BD39
:1024A00070470000014802F023B800BF2C0500204F
:1024B000FFF7F8BFFFF7F6BF014802F019B800BFF9
:1024C000E4040020014802F013B800BF9C0400207F
:1024D000014800F045BF00BF74050020014801F02D
:1024E00097BB00BF74050020014802F03BBD00BF50
:1024F0005404002070470000FFF7FCFF0B480C4914
:102500000C4A002302E0D458C4500433C4188C424F
:10251000F9D3094A094C002301E013600432A242B6
:10252000FBD304F001FEFFF715FC7047000000200C
:1025300014000020C072000814000020481F002072
:10254000FEE7000038B50E4B05461A784FF47A7353
:10255000B3FBF2F30B4A1068B0FBF3F000F01EFB84
:10256000044658B90F2D09D8024629464FF0FF30CE
:1025700000F0C4FA2046044B1D6038BD0120FCE782
:1025800008000020040000200C000020074A08B5C5
:102590001368032043F01003136000F09DFA0F202E
:1025A000FFF7D0FFFFF7D8FD002008BD0020024054
:1025B000034A044B11681B780B441360704700BF3B
:1025C000F805002008000020014B1868704700BF84
:1025D000F8050020F7B5002604460D460196FFF7E2
:1025E000F3FF236807469A68D10508D50120A36A3E
:1025F00084F8246043F02003A36203B0F0BD5A685E
:10260000D20503D4DB6A13F4700F3DD03D4B02209A
:102610001E6801F095FE23683B4A1969B6FBF0F687
:1026200011423A4A51D1D868394908424DD1196905
:1026300011425BD1DA68374B1A420CBF14232923AD
:102640005E43019BB34223D26A1C04D0002D53D1B8
:10265000019BB3420AD3019B01330193F1E76E1C46
:1026600013D065B923681B6898070DD4A36A0320AB
:1026700043F00403A362002384F82430BDE7FFF78E
:10268000A3FFC01BA842EDD8226813689907E6D5BE
:102690006FF0120322681360A36A43F40073A3620D
:1026A000936803F46023B3F5602F0CD1237B53B9F7
:1026B000A36A23F48073A362A36ADB0403D4A36A2E
:1026C00043F00103A362002097E71969114203D187
:1026D000D968104A11420BD019690F4A114209D129
:1026E000DB6813420CBF5423FC23A9E72923A7E787
:1026F0005423A5E7FC23A3E7FFF766FFC01BA8420E
:10270000A6D8A8E704000020244992249224491264
:102710002449920092244900499224000368D86C0D
:1027200070470000002373B5019390F824300446ED
:10273000012B6CD0012380F824304D680268062DEF
:10274000086805EB850322D81F26556B053B9E4084
:1027500025EA060500FA03F32B43536309288B6827
:1027600000EB40054FF0070129D9D6681E3DA9406E
:1027700026EA0101AB400B43D360A0F11003012B0B
:1027800025D90020002384F8243002B070BD0C2D20
:102790004FF01F0509D8166B233B9D4026EA05051F
:1027A00000FA03F32B431363D8E7D66A413B9D40FD
:1027B00026EA050500FA03F32B43D362CEE710693E
:1027C000A94020EA0101AB400B431361D9E7114B4B
:1027D0009A4216D193681B02D3D49368102843F40D
:1027E00000039360CDD10C4B0C4A1B68B3FBF2F392
:1027F0000A2253430193019B002BC2D0019B013B52
:10280000F8E7A36A012043F02003A362BAE702209D
:10281000BBE700BF002401400400002040420F003D
:10282000002337B50193036804469A68D20702D59E
:10283000002003B030BD9A6842F001029A60144B48
:10284000144A1B68B3FBF2F30193019BE3B9FFF752
:10285000BBFE054623689B68DB07E9D4FFF7B4FE9F
:10286000401B0228F6D923689B6813F00103F1D1BD
:10287000A26A012042F01002A262E26A84F82430C7
:1028800042F00102E262D4E7019B013BDCE700BFBA
:102890000400002040420F0010B590F82430044698
:1028A000012B54D0012380F82430FFF7B9FF002812
:1028B00049D1A36A274A23F4407323F0010343F468
:1028C0008073A3622368934204D123494A6812F4B7
:1028D000702F2ED1A26A22F48012A2625A68520589
:1028E00041BFA26A22F4405242F48052A262A26A1C
:1028F00012F480521CBFE26A22F00602E262002259
:1029000084F824206FF002021A609A6802F46022B0
:10291000B2F5602F13D10F4A934205D1A2F5806220
:10292000526812F4702F0AD19A6842F4A0029A6099
:1029300010BDA26A42F48012A2624A68CFE79A6888
:1029400042F48012F3E7002384F82430F0E70220F9
:10295000EEE700BF002801400024014038B50368BD
:1029600004469A68D10701D4002038BD9A6822F045
:1029700001029A60FFF728FE054623689B68DB0783
:10298000F2D5FFF721FE401B0228F6D923689B6889
:10299000DA07F2D5A36A012043F01003A362E36AC9
:1029A00043F00103E362E0E7F8B5044600286DD088
:1029B000836A23B9C36280F82430FFF7FDFB204609
:1029C000FFF7CCFFA36A13F0100361D100285FD199
:1029D000A26A616822F4885222F0020242F00202E6
:1029E000E569A668A262227B2943B6F5807F41EAA9
:1029F000420136D0771E7D427D412D02277D012F79
:102A000006D182BBA269013A45EA423242F400652E
:102A10002268B6F5807F576827F4694745EA0705BD
:102A2000556097681D4D05EA070545EA0105956063
:102A300001D0012E02D12369013B1B05D56A25F483
:102A400070052B43D3629268154B1340994213D102
:102A50000023E362A36A23F0030343F00103A362AC
:102A6000F8BD3546CAE7A26A42F02002A262E26AD5
:102A700042F00102E262CBE7A36A23F0120343F0C3
:102A80001003A362E36A43F00103E3620120E7E776
:102A9000A36A43F01003A362F8E700BFFDF7E1FF6C
:102AA000FE0E1FFF10B590F824300446012B11D004
:102AB000012380F82430FFF751FF38B9A36A23F4CB
:102AC000885323F0010343F00103A362002384F839
:102AD000243010BD0220FCE707490302CA6803F452
:102AE000E06322F4E0621204120C134343F0BF636C
:102AF00043F40033CB60704700ED00E0154B30B578
:102B0000DC68C4F30224C4F10703251D042B28BF8D
:102B10000423062D4FF0FF3594BF0024033C05FA33
:102B200003F321EA0303A54022EA0502A34000289B
:102B300043EA0203ACBF00F16040074A4FEA0313C7
:102B4000DBB2ABBF00F5614000F00F0080F800334E
:102B5000135430BD00ED00E014ED00E0002807DB69
:102B600001234109034A00F01F00834042F821304D
:102B7000704700BF00E100E000280CDB012206499D
:102B8000430900F01F008240203341F82320BFF3A7
:102B90004F8FBFF36F8F704700E100E00138B0F155
:102BA000807F0BD24FF0E023F021054A586182F874
:102BB00023100020072298611A6170470120704796
:102BC00000ED00E090F821200346022A06D00422FE
:102BD00082630120002283F8202070470268C06BC6
:102BE000116821F00E011160116821F001011160DE
:102BF00001211A6C01FA02F24260002083F82110D0
:102C0000E8E7000008B590F82130022B03D0042338
:102C10008363012008BD03681A6822F00E021A605F
:102C20001A6822F001021A60174A93421FD0143228
:102C300093421ED0143293421DD0143293421DD0C1
:102C4000143293421DD01432934214BF4FF080735C
:102C50004FF480130D4A5360012380F82130002384
:102C600080F82030436B03B198470020D2E701235E
:102C7000F0E71023EEE74FF48073EBE74FF4805357
:102C8000E8E74FF48033E5E7080002400000024027
:102C900090F821007047806B704700002DE9F74FD6
:102CA00000244FF00F0E2646DFF884C1614B00F17F
:102CB00004080A6832FA06F502D103B0BDE8F08FC5
:102CC000012505FA06F702EA070537EA020276D17E
:102CD0004A68032A07D8013A022A00F28380DFE813
:102CE00002F091969C00122A00F0948069D8112A73
:102CF00000F08A80FF2D94BF8146C1464FEA8602CC
:102D0000D9F8007088BF203A0EFA02FA27EA0A07BB
:102D100004FA02F21743C9F80070D1F8049019F0D0
:102D2000805F4CD0DCF8182026F0030742F0010247
:102D3000CCF81820DCF8182007F1804702F00102D7
:102D4000019207F5803706F0030A019A4FEA8A0AD2
:102D5000BA680EFA0AFB22EA0B0B374A904260D09F
:102D600002F5806290425ED002F5806290425CD0B3
:102D700002F58062904214BF0422032202FA0AF292
:102D800042EA0B02BA609A6819F4801F14BF2A4302
:102D9000AA439A60DA6819F4001F14BF2A43AA43B1
:102DA000DA605A6819F4003F14BF2A43AA435A60F4
:102DB0001A6819F4803F14BF2A43AA431A600136E7
:102DC00077E7DFF878904A450CD014D8A9F5801938
:102DD0004A4507D009F570294A4503D0A9F580195D
:102DE0004A4587D18A68D2B1012A4FF008040CBF46
:102DF000076147617EE7DFF848904A45F2D009F560
:102E00008039EDE7CC6875E7CC68043472E7CC68AC
:102E100008346FE7CC680C346CE700246AE70424BC
:102E200068E70022AAE70122A8E70222A6E700BF7E
:102E30000010024000040140000801400000221080
:102E4000000031102DE9F74F4FF0040B00224FF036
:102E5000010A4FF00F0800EB0B0301932E4B31FAE0
:102E600002F402D103B0BDE8F08F0AFA02F70F4076
:102E700049D022F0030404F1804404F5803402F0C8
:102E8000030CA5684FEA8C0C08FA0CF909EA050E48
:102E9000224DA84239D005F58065A84237D005F506
:102EA0008065A84235D005F58065A84214BF042589
:102EB000032505FA0CF575456FEA07060FD11D6865
:102EC00035401D605D6835405D60DD683540DD6022
:102ED0009D6835409D60A56825EA0905A560FF2F1E
:102EE00094BF0746019F4FEA82043D6888BF203C9B
:102EF00008FA04FC25EA0C050BFA04F425433D60AE
:102F0000C4683440C4600132A9E70025D1E7012537
:102F1000CFE70225CDE700BF0004014000080140D3
:102F20000AB1016170470904FBE7C36801EA0302C3
:102F300021EA030141EA02410161704770B504468C
:102F400008B9012070BD90F83D3003F0FF021BB9B5
:102F500080F83C20FFF75EF9242384F83D30236895
:102F60001A6822F001021A601A6842F400421A60DC
:102F70001A6822F400421A6001F048F93F4B656874
:102F80009D4294BF3E4B3F4B98428CBF0023012390
:102F9000002BD6D1394E3C4BB542B0FBF3F388BF82
:102FA0004FF496762268516821F03F0141EA03010F
:102FB00082BF73434FF47A76B3FBF6F35160116A24
:102FC000013321F03F010B431362D169431E2B48AB
:102FD00021F44F41854221F0FF0132D86D00B3FB4F
:102FE000F5F340F6FC700133034242D0C3F30B0308
:102FF0001943D1611168D4E9073021F0C0010343BE
:103000000B4313609168D4E9030321F403410343A4
:1030100021F0FF010B439360D168D4E9053021F022
:10302000FF0103430B43D3601368002043F0010307
:1030300013602023206484F83D30206384F83E0030
:1030400080E7A06850B905EB4505B3FBF5F3013304
:10305000C3F30B037BB143F40043C9E71920684372
:10306000B3FBF0F30133C3F30B0323B143F4404349
:10307000BEE70423BCE70123BAE700BFA086010036
:103080007F841E00FF083D0040420F0070477047DC
:103090007047704770477047704790F83D2008B5FB
:1030A000036DD2B283B9C36C0268012B836C05D166
:1030B000DBB21361036D0233036508BDC3F307235D
:1030C0001361036D0133F7E7036D012B03D1836CAB
:1030D0000268DBB2F4E7036D022B2FD1222A05D15F
:1030E0000268136843F480731360EAE7438D9BB270
:1030F00063B1212A0AD1436A026813F8011B1161E6
:103100004362438D013B9BB24385D6E7438D9BB21F
:10311000002BD2D1212AD0D10268516821F4E0617C
:103120005160116841F4007111602022036380F83E
:103130003D2080F83E30FFF7AFFFBEE703685A69D5
:10314000120644BF00221A61B7E770477047704704
:10315000002337B546F2A81101932C4B406A1B6837
:1031600090F83D20B3FBF1F323214B430193036817
:10317000D2B2019941BB016C41F020010164446B62
:103180000CB10021A162816B09B100258D621D681F
:1031900025F480651D600025458504B1656301B196
:1031A0004D63196821F00101196090F83D10602904
:1031B00011D1202380F83D30002380F83E30036495
:1031C000FFF7C5FF03B030BD0199013901911968BE
:1031D0008905CED4D3E702F02802282A0ED1196837
:1031E00041F001011960196841F480611960002300
:1031F000036380F83D20FFF7A9FFE3E7202380F871
:103200003D30002380F83E30F5E700BF0400002089
:1032100010B590F83D2090F83E300446102BD9B2FE
:10322000D2B2036801D0402913D1222A11D11968E2
:1032300021F400611960596811F4006106D1602A17
:103240001EBF202284F83D2084F83E100022226315
:1032500007E002F028012829EDD10022226384F83A
:103260003D105A6812F400624FD05A68606B22F425
:1032700000625A6090F82130012B374B2BD043630A
:10328000FFF7C0FC50B12268606B136823F00103A4
:103290001360202384F83D30436B9847236C190753
:1032A0001FBF2268536823F4E063536094F83D30F5
:1032B000226CDBB252070DD5282B0BD1274B2022D5
:1032C000E36200232046236384F83D2084F83E30E7
:1032D000FFF7E1FE10BDA06B4363FFF793FC0028EE
:1032E000DCD023685A69510605D51A69636A1A70D9
:1032F000636A013363622268A06B136823F00103E1
:103300001360202384F83D30C6E794F83D1060290F
:1033100015D1202184F83D1022645A69520605D542
:103320001A69636A1A70636A01336362226820460D
:10333000136823F001031360FFF709FFAEE75A6932
:10334000500605D51A69636A1A70636A01336362AD
:103350002046FFF7FBFEA1E7513100080000FFFF08
:10336000F0B5044603688FB05A68C66A90F83E000C
:1033700094F83D101028C5B2C9B202D0402D40F0DB
:10338000E5829F69586910F0010F07D1B6F52A0F41
:1033900002D0B6F12A4F51D10FB0F0BD96054DD5F0
:1033A000E26AB2F52A0F0CD10122E26294F83E20C3
:1033B000402A11D1226D52B9626C02F0FE021A61EC
:1033C000EAE7E26AB2F12A4FF0D10822EDE7626C37
:1033D00042F00102D2B2F2E72269B2F5804F1AD16F
:1033E00094F83D20212A626C11D102F0FE021A618C
:1033F000626B0AB1926A2AB9A26B002ACCD0926A97
:10340000002AC9D05A6842F400625A60C4E742F008
:103410000102D2B2EBE7226D32B9626CD21102F036
:10342000060242F0F002CAE7226D012AB4D1626CB2
:10343000D21102F0060242F0F102C0E7060703D5FE
:10344000960501D5626CE4E7860740F1F0809605A9
:1034500040F1ED8094F83E10E26A256B94F83D004F
:10346000C9B2222840F0DB80206D40B9402906D146
:1034700000905A6900929B690093009B8CE7216D34
:1034800089B92069B0F5404F0DD101915A69019277
:103490009A690192019A1A6842F480721A60236D47
:1034A0000133236578E7618D89B251B902915A6978
:1034B00002929A690292029A1A6842F400721A60A1
:1034C00019E0618D89B2012949D112F5803F1BD1E4
:1034D0001A6822F480621A605A6812F400620CD0F2
:1034E0001A6822F480621A60002203925A690392D9
:1034F0009B690393039B0023D3E704925A690492C8
:103500009A690492049AD7E7082A1CD0202A1AD074
:10351000122D0DD1012A16D11A6822F480621A6088
:10352000002205925A6905929B690593059BE2E783
:10353000102AF1D8864941FA02F2D707ECD41A686A
:1035400042F48062EBE71A6822F480621A6000227B
:1035500006925A6906929A690692069AACE7618DBC
:1035600089B2022938D1102A03D87A49D140CE072E
:1035700018D4196841F40061196000210791596954
:103580000791996907910799196821F48061196079
:1035900059680D05AFD5202A1BD8072A0ED8012A55
:1035A000A9D111E0196841F48061196000210891E6
:1035B00059690891996908910899E9E7A2F1080108
:1035C000654ACA40D00796D55A6842F480525A607C
:1035D00091E712F5803FE3E7196841F480611960D3
:1035E0005968090510D5202A16D8072A06D8012AB5
:1035F0000AD15A6842F480525A6005E0A2F10801EB
:10360000554ACA40D207F4D4002209925A69099255
:103610009B690993099B6EE712F5803FE8E700225A
:103620000A925A690A929B690A930A9BB4E67F0739
:1036300040F194805E6836053FF5AEAE070600F0B7
:1036400004063ED550053CD5002E3DD194F83D20D2
:10365000258D94F83E10D2B2E06AC9B2C5B9212ACC
:1036600018D1082858D0202856D010F5803F53D0C4
:103670005A6822F4E0625A6011232363002384F81D
:103680003E302023204684F83D30FFF7FFFC83E6E0
:10369000212A05D040297FF47FAE222A7FF47CAE18
:1036A000628D92B21AB95A6822F48062ADE694F83B
:1036B0003E20402A16D120460FB0BDE8F040FFF76B
:1036C000ECBC002E3FF468AE97057FF565AE21296E
:1036D00039D1E16A94F83D20212A7FF45DAE628DF4
:1036E00092B24AB1626A12F8011B19616262638D7B
:1036F000013B9BB263854FE608290DD020290BD0F2
:1037000011F5803F08D0596821F4E0615960112318
:10371000236384F83E20B4E75A68204622F4E0622E
:103720005A601A6842F400721A6000232022236350
:1037300084F83D2094F83E2084F83E30402AA4D1FD
:10374000FFF7AAFC28E6402D7FF426AEB3E700BFC2
:10375000EBFFFEFF140001000101000159680E0596
:103760003FF51AAE450600F0040140F18680500591
:1037700040F18380002940F0838094F83D20222A84
:103780007FF40AAEE06A628D92B2032A14D91A69F4
:10379000636A1A70636A01336362638D013B9BB293
:1037A0006385638D9BB2032B7FF4F6AD226853686B
:1037B00023F480635360EFE5E56A022D3FF473AFB5
:1037C000012A3FF670AF0B9146F2A811784A1268B1
:1037D000B2FBF1F202EB82020B920B9A013A0B92CE
:1037E0000B99D1B9226C204642F0200222645A681B
:1037F00022F4E0625A601A69636A1A70636A0133DC
:103800006362638D013B9BB26385202384F83D3066
:1038100084F83E10FFF79AFCBEE51A6812F40072B5
:10382000DBD1196821F480611960596821F4E061E5
:1038300059601969636A1970636A01336362638D41
:10384000013B9BB26385202384F83D3094F83E30E1
:1038500084F83E20402B04D122632046FFF775FCFC
:103860009AE5082801D0202801D1002300E0122386
:1038700020462363FFF70BFC8EE500293FF48CAD57
:1038800092057FF589ADE26A608D616A80B2042895
:1038900009D15A6822F480625A601B690B70636A0E
:1038A0000133636223E7608D80B203280CD158682E
:1038B000042A20F480605860EFD0022AEDD01A6804
:1038C00022F480621A60E8E7608D80B20228E4D1B9
:1038D000042A33D007D8012A07D0022A2ED018682C
:1038E00040F4007004E0102AF9D1186820F48060D8
:1038F00018601B690B70616A4B1C6362638D013B2E
:103900009BB2638523681B694B70636A216801332E
:103910006362638D013B9BB263854B6823F4407304
:103920004B60202384F83D3094F83E30402B4FF01C
:10393000000384F83E3005D123638EE7186840F415
:103940008060D5E7082A90D0202A8DE7206C10B33C
:103950000025586987072DD596052BD5226C02B115
:103960009D6994F83D2002F02802282A16D15A6851
:103970002F0622F480625A604FF0000385F00401A4
:10398000204654BFA289228BC1F3800184F83C30C9
:10399000FFF780FB00E59D695869DBE700220C9288
:1039A00059690C919B6984F83C200C930C9BF3E4BF
:1039B00004000020C60640F1B180950540F1AE80BC
:1039C00094F83D505A68EDB222F4E0625A60002249
:1039D0000D925A690D921A6842F001021A600D9A0E
:1039E0001A6822F480621A605A68100520D505F022
:1039F000F702222A4AD1A06B0268526892B262850D
:103A0000628D92B21AB1226C42F0040222645A68AA
:103A100022F400625A60FFF73BF9012808D0A06B3E
:103A2000794B4363FFF7EEF810B1A06B436B9847F7
:103A3000638D9BB213B323685A69510709D51A697C
:103A4000636A1A70636A01336362638D013B9BB2E0
:103A5000638523685A69520609D51A69636A1A7020
:103A6000636A01336362638D013B9BB26385638D3F
:103A70009BB21BB1236C43F004032364236C13B388
:103A800020460FB0BDE8F040FFF7C2BB606B026894
:103A9000526892B26285628D92B21AB1226C42F083
:103AA000040222645A6822F400625A60FFF7F0F8B8
:103AB0000128BDD0606B544B4363FFF7A3F8002887
:103AC000B6D0606BB2E72A2D06D1236328232046A7
:103AD00084F83D30FFF7DDFA94F83D30282B0CD107
:103AE0004A4B2022E36200232046236384F83D20D2
:103AF00084F83E30FFF7CFFA4EE4236B222B02D03E
:103B0000222D7FF449AC00232022236384F83D203A
:103B100084F83E302046FFF7BCFA3DE401F0F7019F
:103B2000212900F0040535D1070627D5560525D5EE
:103B30003DBB94F83D00628DC0B292B2002A3FF4C2
:103B40002BAC626A12F8015B1D616262628D013A00
:103B500092B26285628D92B2002A7FF41DAC292850
:103B60007FF41AAC5A68204622F480625A602823F7
:103B7000216384F83D30FFF78BFA0DE4002D3FF40C
:103B80000BAC95057FF508AC628D92B2002A3FF42C
:103B900003ACA7E5400627D5510525D53DBB94F8D4
:103BA0003D20618DD2B289B200293FF4F5AB19698D
:103BB000636A1970636A01336362638D013B9BB270
:103BC0006385638D9BB2002B7FF4E6AB2A2A7FF4DA
:103BD000E3AB2268536823F480635360222323639A
:103BE000282384F83D3095E7002D3FF4D5AB9205AE
:103BF0007FF5D2AB628D92B2002A3FF4CDAB1A6949
:103C0000636A1A704BE600BF513100080000FFFFE5
:103C1000F8B5036804465F695E6890F83E2017F4C3
:103C20008075D2B20AD016F4807507D06FF4807117
:103C300001255961196841F400411960B80506D59C
:103C4000F10542BF6FF4007145F002055961780536
:103C500036D5F10534D5608D94F83D10202AD4F87E
:103C600030C080B2C9B25FD100285DD101F0F70049
:103C7000212804D0282957D1BCF1210F54D194F820
:103C80003D20E16AD2B2082901D020292AD1282A70
:103C900028D12E4A2046E2625A6822F4E0625A6035
:103CA0006FF480625A611A6822F480621A600023FD
:103CB0002022236384F83D2084F83E30FFF7EBF99F
:103CC0003A053FD5F3053DD56FF40062236845F012
:103CD00008055A61236C20462B432364BDE8F84055
:103CE000FFF796BA212A1BD11849E162226300210D
:103CF000202284F83D2084F83E105A6822F4E062C5
:103D00005A606FF480625A611A6822F480621A6005
:103D10005A69100648BF19612046FFF7B9F9CFE785
:103D20006FF480625A61CBE76FF48061102A5961A9
:103D300045F0040501D0402AC2D11A6842F400724D
:103D40001A60BDE7002DC5D1F8BD00BF0000FFFF20
:103D50002DE9F341054638B30368DB0710D42B681F
:103D60009F075ED42B68190700F195802B685A07CE
:103D700000F1C180EB69002B40F02C81002029E08C
:103D8000904C636803F00C03042B07D0636803F0C6
:103D90000C03082B0AD16368DE0307D523689C0354
:103DA000DDD56B68002BDAD1012013E06B68B3F529
:103DB000803F12D1236843F480332360FEF704FC74
:103DC000064623689803CAD4FEF7FEFB801B6428CE
:103DD000F7D9032002B0BDE8F0819BB9236823F432
:103DE00080332360236823F480232360FEF7ECFBF9
:103DF000064623689903B2D5FEF7E6FB801B6428CC
:103E0000F7D9E6E7B3F5A02F236803D143F4802365
:103E10002360CFE723F480332360236823F48023D7
:103E2000CBE7684C636813F00C0F07D0636803F0AE
:103E30000C03082B10D16368DA030DD423689B07A9
:103E400002D52B69012BAFD123686A6923F0F803EF
:103E500043EAC203236085E72A695B4B6AB101220A
:103E60001A60FEF7B1FB064623689F07ECD4FEF705
:103E7000ABFB801B0228F7D9ABE71A60FEF7A4FB67
:103E80000646236898077FF56DAFFEF79DFB801B04
:103E90000228F6D99DE7AA694A4E4B4BE2B10122AE
:103EA000C3F88024FEF790FB0446736A9B070DD588
:103EB0004FF4FA52454B1B68B3FBF2F3019300BF7A
:103EC000019B5A1E0192002BF9D14FE7FEF77CFBB4
:103ED000001B0228E9D97CE7C3F88024FEF774FBB5
:103EE0000446736A9F077FF541AFFEF76DFB001B29
:103EF0000228F6D96DE7334CE369D80024D40127B2
:103F0000E36943F08053E361E36903F08053009376
:103F1000009B2F4E3368D90518D5EB68012B26D1AD
:103F2000236A43F001032362FEF74EFB41F2883817
:103F30000646236A9B073FD5002F3FF41BAFE3697A
:103F400023F08053E36115E70027E2E7336843F489
:103F500080733360FEF738FB80463368DA05DCD4C3
:103F6000FEF732FBA0EB08006428F6D931E7ABB9C5
:103F7000236A41F2883823F001032362236A23F085
:103F800004032362FEF720FB0646236A9807D3D575
:103F9000FEF71AFB801B4045F7D91AE7052B236A69
:103FA00003D143F004032362BAE723F00103236241
:103FB000236A23F00403B6E7FEF706FB801B4045A7
:103FC000B7D906E70010024000004242040000207A
:103FD000007000402A4C626802F00C02082A3ED0B1
:103FE0000022022B274B1A662CD1FEF7EDFA06466B
:103FF0002368990120D42B6AB3F5803F05D162680C
:10400000A96822F400320A436260696A62680B435D
:1040100022F474121343012263601A4B1A66FEF7EE
:10402000D3FA054623689A013FF5A8AEFEF7CCFA0D
:10403000401B0228F6D9CCE6FEF7C6FA801B022800
:10404000D6D9C6E6FEF7C0FA054623689B017FF580
:1040500095AEFEF7B9FA401B0228F6D9B9E6012B56
:104060003FF4A2AE60682B6A00F480329A427FF47B
:104070009BAE6B6A00F47010C01A18BF0120A9E64D
:1040800000100240000042420D4A536803F00C0148
:10409000082912D10B48C3F38341DB03405C09D5E7
:1040A0005368094AC3F340435043084AD35CB0FB0A
:1040B000F3F07047064B584370470348704700BF02
:1040C000001002409672000800127A0094720008F4
:1040D00000093D002DE9F0410D46044610B90120CC
:1040E000BDE8F081444A136803F007038B4228D3EC
:1040F00021688E0730D4CA0743D43F4A136803F0BF
:104100000703AB4265D822683C4D12F0040F6CD116
:10411000130706D56B68226923F4605343EAC20390
:104120006B60FFF7B1FF6B68354AC3F30313D35CD1
:10413000D840344B1860344B1868FEF703FA00205F
:10414000CEE7136823F007030B431360136803F0F3
:1041500007038B42C3D1CBE7284B11F0040F1EBFDE
:104160005A6842F4E0625A60080742BF5A6842F453
:1041700060525A605A68A06822F0F00202435A6006
:10418000B9E762681D4E012A33681AD113F4003F63
:10419000A5D0736841F2883823F00303134373609A
:1041A000FEF712FA07467368626803F00C03B3EB7C
:1041B000820FA2D0FEF708FAC01B4045F3D90320B6
:1041C0008EE7022A02D113F0007FE1E713F0020F1D
:1041D000DEE7136823F007032B431360136803F033
:1041E0000703AB427FF47BAF8DE76B68E16823F494
:1041F000E0630B436B608BE700200240001002403D
:1042000084720008040000200C000020044B054AC2
:104210005B68C3F30223D35C034A1068D84070473D
:10422000001002407C72000804000020044B054A84
:104230005B68C3F3C223D35C034A1068D84070475D
:10424000001002407C7200080400002003682DE981
:10425000F3410546D80721D5364CE369D9002BD464
:104260000126E36943F08053E361E36903F080537F
:104270000193019B304F3B68DA051FD5236A6A68BA
:1042800013F440732ED1236A6A6823F440731343F6
:1042900023621EB1E36923F08053E3612A6891072A
:1042A00006D52449A8684B6823F4404303434B6078
:1042B000D30636D4002012E00026DBE73B6843F447
:1042C00080733B60FEF780F980463B68DB05D5D400
:1042D000FEF77AF9A0EB08006428F6D9032002B0B3
:1042E000BDE8F08102F440729A42CCD00120134A1A
:1042F000236AC2F84004002023F44071DF07C2F8AB
:1043000040042162BFD5FEF75FF941F288380746C5
:10431000236A9807B7D4FEF757F9C01B4045F7D971
:10432000DCE7044AE968536823F480030B435360D5
:10433000C0E700BF00100240007000400000424291
:10434000022808B544D0102803D0012822D000202C
:1043500034E0254B5A68186810F080702ED0C2F3F4
:1043600083412248D20348BF5A68405C41BF20497C
:10437000C2F34042895C1F4A5B684CBFB2FBF1F25A
:104380001D4A5B0202FB00F018D403234000B0FB7F
:10439000F3F013E040F20231134A136A1940B1F509
:1043A000817F1ED003F44073B3F5007F07D149F637
:1043B0004040536A13F0020F08BF002008BDB3F558
:1043C000407FC4D113684FF2244013F4003FF3E759
:1043D000FFF72CFF044B5B68C3F3813301335B00B1
:1043E000D5E74FF40040E9E700100240A87200084A
:1043F000A672000800127A0000093D00036A026AF2
:1044000070B522F001020262446882690D6822F0F0
:1044100073022A438D6823F002032B430A4DA842FE
:104420000BD1CD6823F008032B4324F44074D1E969
:104430000556354323F004032C43446082614A68E7
:104440004263036270BD00BF002C0140036A026A30
:1044500070B522F4807202624468C2690D6822F06D
:1044600073022A438D6823F4007343EA05230B4D3E
:10447000A8420DD1CD6823F4006343EA052324F458
:104480004054D1E90556354323F4806344EA0514CA
:104490004460C2614A68C263036270BD002C01407F
:1044A000036A026A30B522F4805202624468C2692B
:1044B0000D6822F4E64242EA05228D6823F4005397
:1044C00043EA0533064DA84202BF4D6924F48044F7
:1044D00044EA85144460C2614A680264036230BDE4
:1044E000002C014070477047704770477047704715
:1044F000036870B5DD681E690446B1070DD5AA07CB
:104500000BD56FF002021A61012202779B699B07AB
:1045100069D0FFF7EAFF00232377710710D56A07F8
:104520000ED56FF00402236820461A61022222771A
:104530009B6913F4407F5CD0FFF7D7FF00232377FC
:1045400033070FD528070DD56FF0080223682046E2
:104550001A6104222277DB69990750D0FFF7C5FF63
:1045600000232377F20610D5EB060ED56FF010026C
:10457000236820461A6108222277DB6913F4407F02
:1045800043D0FFF7B2FF00232377F00708D5E907F0
:1045900006D56FF00102236820461A61FFF7A3FFDA
:1045A000320608D52B0606D56FF080022368204618
:1045B0001A6100F0D2FA700608D5690606D56FF0C8
:1045C0004002236820461A61FFF791FFB20622D508
:1045D000AB0620D56FF0200223682046BDE870406E
:1045E0001A6100F0B9BAFFF77FFF2046FFF77EFFA0
:1045F00091E7FFF779FF2046FFF778FF9EE7FFF787
:1046000073FF2046FFF772FFAAE7FFF76DFF204612
:10461000FFF76CFFB7E770BD174A036890420AD0F6
:10462000B0F1804F07D0A2F59432904203D002F54A
:104630008062904207D14A6823F070031343CA682E
:1046400023F4407313434A6923F080031343036048
:104650008B68C3620B688362074B984204BF0B6987
:104660000363012343610369DB0742BF036923F04E
:1046700001030361704700BF002C014010B50446E0
:1046800030B390F83D3003F0FF021BB980F83C20B6
:10469000FDF702FE0223206884F83D30211DFFF75C
:1046A000BBFF0123002084F8463084F83E3084F8B4
:1046B0003F3084F8403084F8413084F8423084F848
:1046C000433084F8443084F8453084F83D3010BDE0
:1046D0000120FCE710B5044630B390F83D3003F0FC
:1046E000FF021BB980F83C20FFF7FCFE0223206884
:1046F00084F83D30211DFFF78FFF0123002084F84F
:10470000463084F83E3084F83F3084F8403084F8F6
:10471000413084F8423084F8433084F8443084F8DF
:10472000453084F83D3010BD0120FCE7036A026A81
:1047300070B522F010020262446882690D6822F4AA
:10474000E64242EA05228D6823F0200343EA05137E
:104750000B4DA8420DD1CD6823F0800343EA051329
:1047600024F44064D1E90556354323F0400344EA7C
:104770008504446082614A688263036270BD00BF41
:10478000002C014038B590F83C300446012B4FD046
:104790000120082A84F83C003AD006D8BAB1042A8D
:1047A00026D0002384F83C3038BD0C2AF9D120688B
:1047B000FFF776FEC3690A6943F40063C361C36906
:1047C00023F48063C361C36943EA02232EE02068B7
:1047D000FFF714FE83690A6943F008038361836964
:1047E00023F0040383618369134383610020D8E7C6
:1047F0002068FFF79BFF83690A6943F400638361C4
:10480000836923F480638361836943EA0223ECE7CD
:104810002068FFF71BFEC3690A6943F00803C36100
:10482000C36923F00403C361C3691343C361DDE7B4
:104830000220B9E710B584680A4324F47F4442EAB1
:1048400003222243826010BD38B590F83C30044604
:10485000012B4FF0020000F08E80012284F83D0011
:10486000206884F83C20836823F47F4323F0770397
:1048700083600B68602B4FD032D8402B64D016D8A1
:10488000202B0DD00AD833F0100109D0012384F871
:104890003D30002384F83C30104638BD302BF5D134
:1048A000826822F07002134343F0070328E0502B84
:1048B000ECD14A68CD68016A036A21F00A0123F04D
:1048C0000103036283690A4323F0F00343EA0513FB
:1048D00083610262836823F0700343F057030FE0A3
:1048E000B3F5805F0DD0B3F5005F0CD0702BCDD148
:1048F000CB68D1E90121FFF79DFF836843F077037F
:1049000083600022C2E7CB68D1E90121FFF792FF63
:10491000836843F48043F3E7036A026A4D6822F038
:104920001002C9680262826923F0A00322F4704277
:1049300043EA051342EA013282610362836823F08D
:10494000700343F06703DBE74A68CD68016A036AD6
:1049500021F00A0123F00103036283690A4323F073
:10496000F00343EA051383610262836823F0700356
:1049700043F04703C4E702468EE710B50124036AFB
:1049800001F01F018C4023EA04030362036A8A409A
:104990001A43026210BD000008B529B990F83E30F4
:1049A000012B1DD001202EE0042907D190F83F30C3
:1049B000012BF7D1022380F83F3014E0082907D1FA
:1049C00090F84030012BEDD1022380F840300AE00E
:1049D00090F84130012BE5D1022380F8413002E00C
:1049E000022380F83E3000680122FFF7C6FF0F4B1C
:1049F000984209D0B0F1804F0BD1836803F00703D0
:104A0000062B0DD1002008BD436C43F400434364E2
:104A1000F3E7074B9842F0D003F580639842ECD05F
:104A2000036843F001030360ECE700BF002C014082
:104A300000040040FFF7B0BF38B50022044600680C
:104A40000D46FFF79AFF184B98420DD141F2111312
:104A5000026A1A4208D140F24443026A1A4202BF73
:104A6000436C23F40043436441F21113026A1A4277
:104A700008D140F24443026A1A4202BF036823F09D
:104A80000103036001231DB984F83E30002038BDC6
:104A9000042D02D184F83F30F8E7082D0CBF84F8CC
:104AA000403084F84130F1E7002C0140FFF7C4BFEB
:104AB00030B590F83C300246012B4FF0020022D076
:104AC000136882F83D005C680D6824F070042C4384
:104AD00098685C600C4CA3420AD0B3F1804F07D0B9
:104AE000A4F59434A34203D004F58064A34204D116
:104AF000496820F08000014399600123002082F87A
:104B00003D3082F83C0030BD002C014090F83C3034
:104B10000246012B1ED0CB68886823F44073034300
:104B2000486823F480630343086823F40063034365
:104B3000086923F480530343486923F40053034373
:104B40000020C96923F480430B4311684B6482F849
:104B50003C0070470220704770477047026802F1BE
:104B60000C0353E8003F23F490730C3242E8003109
:104B700002680029F2D102F1140353E8003F23F048
:104B8000010302F1140C4CE800310029F3D1036B4E
:104B9000012B0BD102F10C0353E8003F23F010036B
:104BA00002F10C0C4CE800310029F3D1202380F8ED
:104BB000423000230363704710B504460368C168A0
:104BC0001A6922F440520A431A6182680069D9685E
:104BD0000243606921F4B05121F00C0102430A4301
:104BE000DA605A69A16922F440720A435A610E4A96
:104BF000934215D1FFF71AFB1923434362682068DB
:104C00009200B3FBF2F36422B3FBF2F102FB113327
:104C10001B013233B3FBF2F303EB0113836010BDCE
:104C2000FFF7F4FAE8E700BF00380140F7B50546A2
:104C30000C4617461E462A68136834EA030301D15E
:104C4000002021E0701CF7D0FDF7BEFCC01B86429F
:104C50001CD3DEB12B68DA685107ECD5802CEAD082
:104C6000402CE8D01A681207E5D5002401941A6890
:104C7000284601925B680193019BFFF76FFF0823B1
:104C800001206B6485F8404003B0F0BD0320FBE7D2
:104C900010B5044648B390F8413003F0FF021BB949
:104CA00080F84020FDF78EFB2423226884F84130F1
:104CB000D368204623F40053D360FFF77DFF2368B9
:104CC00000201A6922F490421A615A6922F02A02DD
:104CD0005A61DA6842F40052DA602023606484F892
:104CE000413084F84230606310BD0120FCE710B50C
:104CF0000446A0B12423026880F84130D36823F42D
:104D00000053D360FDF7A0FB0020606484F84000EE
:104D100084F8410084F842002063606310BD0120E4
:104D2000FCE72DE9F843984690F841300446202BE3
:104D30000E4617463FD100293FD0002A3DD02123FF
:104D40000025456480F84130FDF73EFCA3688146AC
:104D5000B3F5805FA784E78403D123690BB9354697
:104D60001E46E38C9BB253B943464A464021204637
:104D7000FFF75CFF202350B984F841300AE0434636
:104D80004A4680212046FFF751FF28B12023032007
:104D900084F84130BDE8F88322684EB935F8023B0B
:104DA000C3F308035360E18C013989B2E184D8E789
:104DB00016F8013BF6E70220ECE70120EAE710B520
:104DC0000446226802F10C0353E8003F23F4F07319
:104DD0000C3242E8003123680029F2D103F11402B9
:104DE00052E8002F22F0010203F1140040E80021F4
:104DF0000029F3D1226B012A0BD103F10C0252E8F6
:104E0000002F22F0100203F10C0040E800210029DD
:104E1000F3D15A6912061AD503F1140252E8002F91
:104E200022F0800203F1140040E800210029F3D1B0
:104E3000A06B60B14163FDF7C5FE40B1A06BFDF70B
:104E40002AFF202803D110230320636410BD2268A9
:104E500053695B0616D502F1140353E8003F23F0B3
:104E6000400302F1140040E800310029F3D1E06B67
:104E700040B14163FDF7A6FE20B1E06BFDF70BFFEB
:104E80002028E0D000202023E084E085606484F8BE
:104E9000423084F841302063D8E7704708B50023DA
:104EA000406AC385C384FCF789FC08BD704790F84D
:104EB000423007B5222B42D181680268B1F5805F8C
:104EC000836A3FD1016900293FD15268C2F30802C9
:104ED00023F8022B8362C38D013B9BB2C385002B59
:104EE0002DD10268D16821F02001D160D16821F470
:104EF0008071D160516921F001015161202280F857
:104F000042204363026B012A026828D1036302F145
:104F10000C0353E8003F23F0100302F10C0C4CE8A3
:104F200000310029F3D11368DB0605D50191136820
:104F3000019353680193019B818DFFF7B7FF03B085
:104F40005DF804FB39B9016929B95268D2B21A7007
:104F5000836A0133BEE7526802F07F02F7E7FCF78D
:104F6000E1FBECE7036873B51A6804461607D968D5
:104F70005D6908D1960668D58D0666D502B0BDE894
:104F80007040FFF794BF05F0010001F490750543F0
:104F90005BD0D60705D5CD0542BF636C43F0010356
:104FA0006364530704D518B1636C43F00203636470
:104FB000960704D518B1636C43F0040363641507C6
:104FC00007D501F0200303431EBF636C43F00803C1
:104FD0006364636C002B32D0920604D58B0602D535
:104FE0002046FFF764FF266820467369626C03F071
:104FF000400302F0080253EA020522D0FFF7AEFD9B
:1050000073695E0618D5226802F1140353E8003F65
:1050100023F04003143242E800310029F3D1E06B61
:1050200050B1744B4363FDF7EDFD40B1E06B436B52
:1050300002B0BDE8704018472046FCF7BFFB02B045
:1050400070BDFCF7BBFB6564F9E7206B012840F0FD
:105050009480D50640F19180C80640F18E800022F0
:1050600001921A6801925A680192019A5A6952068D
:105070004DD5E16B0A68526892B2002ADFD0A08D4C
:105080009042DCD9E2858A69202A36D003F10C02ED
:1050900052E8002F22F4807203F10C0040E8002156
:1050A0000029F3D103F1140252E8002F22F001028B
:1050B00003F1140040E800210029F3D103F11402A8
:1050C00052E8002F22F0400203F1140040E80021D2
:1050D0000029F3D1202284F84220216303F10C023D
:1050E00052E8002F22F0100203F10C0040E80021EA
:1050F0000029F3D1E06BFDF765FD02236363E38DC7
:10510000A18DC91A89B22046FFF7D0FE97E7E28D3C
:10511000E08DA18D80B292B2002890D0891A89B218
:1051200000298CD003F10C0252E8002F22F4907277
:1051300003F10C0545E800200028F3D103F1140227
:1051400052E8002F22F0010203F1140545E8002087
:105150000028F3D1202284F84220206303F10C02BE
:1051600052E8002F22F0100203F10C0545E8002060
:105170000028F3D102236363C5E7160628D50D0680
:1051800026D594F84120212A7FF459AFA168226ADC
:10519000B1F5805F17D12169A9B932F8021BC1F3BB
:1051A000080159602262E28C013A92B2E284002A3C
:1051B0007FF445AFDA6822F08002DA60DA6842F004
:1051C0004002DA603BE7511C216212785A60EAE73C
:1051D00050067FF534AF4A067FF531AFDA682046D6
:1051E00022F04002DA60202384F84130FFF755FEB8
:1051F00025E700BF9D4E00080023C285436422239B
:105200008285026980F84230816203681AB1DA68E7
:1052100042F48072DA605A69002042F001025A6159
:10522000DA6842F02002DA60704770B490F84260A9
:10523000202E06D141B13AB10024046370BCFFF7BF
:10524000DBBF022070BC70470120FBE7EFF3058352
:105250002BB9064B186828B901221A6070476FF005
:10526000050070474FF0FF30704700BFB40C0020BE
:1052700010B5EFF305845CB9084B1A68012A0AD10E
:10528000074AD47702221A6000F03CFF204610BD86
:105290006FF00500FBE74FF0FF30F8E7B40C00209B
:1052A00000ED00E0EFF305830BB100F07FBF00F0ED
:1052B00077BFF0B51446002287B00B460592EFF396
:1052C0000582FAB9F0B154B3A56925B1691E372931
:1052D00002D9002017E018256268D207F9D4666960
:1052E0009EB1B2082168D4E9027C87B1BCF15B0FA2
:1052F00008D9246934B12EB1CDE90147009500F0F9
:105300009AFE0590059807B0F0BD8022EAE7BCF14F
:10531000000FF7D12469002CF4D10C4601E01825C8
:10532000802205A9CDE9005192B2214600F0BBFED2
:1053300001281CBF00230593E4E708B5EFF30582BD
:1053400022B908B101F090F8002008BD6FF0050007
:10535000FBE737B50546EFF305845CB900F020FFA5
:10536000291A0029019008DD01A801F033F8204630
:1053700003B030BD6FF00500FAE76FF00300F7E708
:10538000F8B50546EFF3058717B100242046F8BDB0
:1053900020B346683307F8D4D0E9021306F00106BB
:1053A00099B14F2BF1D9BEB1042000F082FA044626
:1053B0000028EAD037462D682946204600F0A4FC94
:1053C000002FE3D044F00104E0E7002BDDD12EB143
:1053D000042000F0A2FAEAE70120E6E7012000F04D
:1053E0009CFA04460028D0D0002DE5D00026E1E745
:1053F00038B503460C4620F0010003F00102EFF33C
:10540000058595B9012B13D962B100F05BFC012829
:1054100001D1002038BD002C14BF6FF001006FF0E7
:105420000200F7E700F091FBF1E76FF00500F1E70C
:105430006FF00300EEE7024608B520F0010002F02D
:105440000103EFF3058179B9012A10D93BB100F0CE
:1054500045FA01280CBF00206FF0020008BD1A4673
:10546000194600F074F9F4E76FF00500F6E76FF005
:105470000300F3E7034B0360034B0B6080231360CF
:10548000704700BF580C0020580A0020034B0360EF
:10549000034B0B604FF4807313607047FC090020CE
:1054A000FC0500204FF0FF3200F10803C0E90223A1
:1054B000436003610023036070470023036170476A
:1054C00043689A684B608A6051609960036808611C
:1054D00001330360704730B50C68631C0AD103695F
:1054E0005A684A6091608B605960036808610133B3
:1054F000036030BD00F10802134652681568A542EA
:10550000FAD9EDE70369D0E901128A605160596860
:10551000814208BF5A60002202611A68013A1A608B
:105520001868704710B5044601F0F4FBA46B01F055
:1055300011FCB4FA84F0400910BD70B51646026C37
:105540000446856B42B906689EB9806801F008F987
:10555000A6600135A56370BD6EB9406801F008FE14
:105560006368226C1344A2686360934224BF23687B
:1055700063600020EDE7C06801F0FAFD226CE3688B
:1055800051429B1A2268E36093423EBFA3685B18B6
:10559000E360022EEDD10DB1013DEAE72846D8E7E0
:1055A00003461A6C084610B462B1DC68996814446A
:1055B0008C4228BF1968DC6028BFD960D96810BC4C
:1055C00001F0D6BD10BC704770B5044601F0A2FBD7
:1055D00094F8455004F124066DB2002D01DD636A94
:1055E000B3B9FF2384F8453001F0B4FB01F092FB1E
:1055F00094F8445004F110066DB2002D01DD2369CA
:105600007BB9FF2384F84430BDE8704001F0A2BBB1
:10561000304600F0C3FF08B101F048F8013D6DB21B
:10562000DBE7304600F0BAFF08B101F03FF8013D7A
:105630006DB2E2E738B50D46044640B94FF050036D
:1056400083F31188BFF36F8FBFF34F8FFEE701F035
:1056500061FBD4E90F314B432268D0185B1AA0607C
:10566000626000201A44FF23A063E26084F84430A3
:1056700084F84530A5B9236973B104F1100000F036
:105680008DFF48B14FF0E0234FF08052C3F8042D56
:10569000BFF34F8FBFF36F8F01F05CFB012038BD6C
:1056A00004F11000FFF7FEFE04F12400FFF7FAFEFC
:1056B000F2E737B50D461C4640B94FF0500383F36F
:1056C0001188BFF36F8FBFF34F8FFEE743B94FF0E1
:1056D000500383F31188BFF36F8FBFF34F8FFEE743
:1056E0004AB191B94FF0500383F31188BFF36F8F24
:1056F000BFF34F8FFEE741B14FF0500383F31188A2
:10570000BFF36F8FBFF34F8FFEE750230193019BD1
:10571000502B08D04FF0500383F31188BFF36F8FE5
:10572000BFF34F8FFEE70121002D08BF2246C4E9D9
:105730000F0584F8461020462260019BFFF77AFF90
:1057400020469DF8183084F84C3003B030BD2DE968
:10575000FF410F461E460446019240B94FF05003E8
:1057600083F31188BFF36F8FBFF34F8FFEE751B9FB
:10577000036C43B14FF0500383F31188BFF36F8F75
:10578000BFF34F8FFEE7022E0BD1E36B012B08D046
:105790004FF0500383F31188BFF36F8FBFF34F8F28
:1057A000FEE700F08FFF054620B300254FF000080C
:1057B00001F0B0FAA26BE36B9A4227D23246394627
:1057C0002046FFF7BAFE636A1BB104F1240000F023
:1057D000E5FE48B14FF0E0234FF08052C3F8042DAE
:1057E000BFF34F8FBFF36F8F01F0B4FA012004B005
:1057F000BDE8F081019B002BD8D04FF0500383F31C
:105800001188BFF36F8FBFF34F8FFEE7022ED5D005
:10581000019B1BB901F09EFA0020E8E715B902A828
:1058200000F0FCFE01F096FA00F0B2FC01F072FA12
:1058300094F84430FF2B08BF84F8448094F8453036
:10584000FF2B08BF84F8458001F084FA01A902A863
:1058500000F0F0FE38BB01F05DFAA26BE36B9A42F8
:105860000ED101F077FA019904F1100000F05CFE0E
:105870002046FFF7A9FE00F039FD48B1012597E762
:1058800001F068FA2046FFF79FFE00F02FFDF5E7D4
:105890004FF0E0234FF08052C3F8042DBFF34F8F39
:1058A000BFF36F8FEAE72046FFF78EFE00F01EFD84
:1058B000B2E7002213B50B46009011460120FFF716
:1058C000F8FE044638B100231A4619468360036087
:1058D000C360FFF73CFF204602B010BD38B5044658
:1058E00040B94FF0500383F31188BFF36F8FBFF3BC
:1058F0004F8FFEE7856800F0DFFE85420BD1E3683D
:10590000013BE3600BB1012038BD1A461946204621
:10591000FFF71DFFF7E70020F6E770B506465020B9
:1059200001F024FB044698B10025012180F846507F
:10593000C0E90F150060FFF77DFE2B462A46294679
:10594000204684F84C60A5602560E560FFF7FFFE07
:10595000204670BD2DE9F843894617461E46044689
:1059600040B94FF0500383F31188BFF36F8FBFF33B
:105970004F8FFEE751B9036C43B14FF0500383F3EF
:105980001188BFF36F8FBFF34F8FFEE7022E0BD14D
:10599000E36B012B08D04FF0500383F31188BFF362
:1059A0006F8FBFF34F8FFEE701F08CFAEFF3118892
:1059B0004FF0500383F31188BFF36F8FBFF34F8F06
:1059C000A26BE36B9A4201D3022E1ED194F845508C
:1059D0003246494620466DB2A36BFFF7AEFD6B1C05
:1059E0000ED1636A3BB104F1240000F0D7FD10B181
:1059F0000FB101233B60012088F31188BDE8F883D3
:105A000001356DB284F84550F5E70020F4E72DE943
:105A1000FF410E460446019240B94FF0500383F314
:105A20001188BFF36F8FBFF34F8FFEE751B9036C3F
:105A300043B14FF0500383F31188BFF36F8FBFF36F
:105A40004F8FFEE700F03EFE054618B300254FF0ED
:105A5000000801F05FF9A76B47B331462046013FCC
:105A6000FFF79EFDA763236973B104F1100000F0F6
:105A700095FD48B14FF0E0234FF08052C3F8042D5C
:105A8000BFF34F8FBFF36F8F01F064F9012004B0B3
:105A9000BDE8F081019B002BD9D04FF0500383F378
:105AA0001188BFF36F8FBFF34F8FFEE7019B1BB9C8
:105AB00001F050F90020EAE715B902A800F0AEFDA8
:105AC00001F048F900F064FB01F024F994F8443047
:105AD000FF2B08BF84F8448094F84530FF2B08BFA3
