:020000040800F2
:1000000000500020A92D0008212D0008232D0008F4
:10001000252D0008272D0008292D000800000000CC
:100020000000000000000000000000001175000842
:100030002B2D000800000000A17500082D2D0008E0
:10004000F12D0008F12D0008F12D0008F12D000818
:10005000F12D0008452D0008F12D0008F12D0008B4
:10006000F12D0008F12D0008F12D0008F12D0008F8
:10007000F12D0008F12D0008F12D0008492D000890
:10008000F12D0008F12D0008F12D0008F12D0008D8
:10009000F12D0008F12D0008F12D0008F12D0008C8
:1000A000552D0008612D0008F12D0008652D000870
:1000B000692D0008752D0008F12D0008812D00081C
:1000C0008D2D0008F12D0008F12D0008F12D0008FC
:1000D000F12D0008F12D0008992D0008F12D0008E0
:1000E000F12D0008F12D0008F12D0008000000009E
:1000F0000000000000000000000000000000000000
:0C01000000000000000000005FF808F1A3
:1001100010B5054C237833B9044B13B10448AFF341
:1001200000800123237010BD940000200000000017
:10013000CC7A000808B5034B1BB103490348AFF361
:10014000008008BD0000000098000020CC7A000864
:1001500070B54FF0FF0C4CF4E06C1CEA11541DBF5D
:100160001CEA135594EA0C0F95EA0C0F00F0DEF828
:100170002C4481EA030621EA4C5123EA4C5350EA0D
:10018000013518BF52EA033541F4801143F480135E
:1001900038D0A0FB02CE4FF00005E1FB02E506F0EF
:1001A0000042E0FB03E54FF00006E1FB03569CF044
:1001B000000F18BF4EF0010EA4F1FF04B6F5007F4A
:1001C00064F5407404D25FEA4E0E6D4146EB0606BC
:1001D00042EAC62141EA55514FEAC52040EA5E5045
:1001E0004FEACE2EB4F1FD0C88BFBCF5E06F1ED8EF
:1001F000BEF1004F08BF5FEA500E50F1000041EB26
:10020000045170BD06F0004646EA010140EA0200D2
:1002100081EA0301B4EB5C04C2BFD4EB0C0541EAF4
:10022000045170BD41F480114FF0000E013C00F309
:10023000AB8014F1360FDEBF002001F0004170BD2D
:10024000C4F10004203C35DA0C341BDC04F1140446
:10025000C4F1200500FA05F320FA04F001FA05F2D2
:1002600040EA020001F0004221F0004110EBD3709F
:1002700021FA04F642EB06015EEA430E08BF20EACB
:10028000D37070BDC4F10C04C4F1200500FA04F36E
:1002900020FA05F001FA04F240EA020001F0004100
:1002A00010EBD37041F100015EEA430E08BF20EA73
:1002B000D37070BDC4F1200500FA05F24EEA020EBB
:1002C00020FA04F301FA05F243EA020321FA04F0EA
:1002D00001F0004121FA04F220EA020000EBD370A1
:1002E0005EEA430E08BF20EAD37070BD94F0000FA1
:1002F0000FD101F00046400041EB010111F4801FD5
:1003000008BF013CF7D041EA060195F0000F18BF85
:10031000704703F00046520043EB030313F4801FC1
:1003200008BF013DF7D043EA0603704794EA0C0F7B
:100330000CEA135518BF95EA0C0F0CD050EA410691
:1003400018BF52EA4306D1D181EA030101F000410E
:100350004FF0000070BD50EA410606BF1046194636
:1003600052EA430619D094EA0C0F02D150EA013642
:1003700013D195EA0C0F05D152EA03361CBF104683
:1003800019460AD181EA030101F0004141F0FE4122
:1003900041F470014FF0000070BD41F0FE4141F4A6
:1003A000780170BD81F0004102E000BF83F000439E
:1003B00030B54FEA41044FEA430594EA050F08BF00
:1003C00090EA020F1FBF54EA000C55EA020C7FEAC4
:1003D000645C7FEA655C00F0E2804FEA5454D4EB41
:1003E0005555B8BF6D420CDD2C4480EA020281EA0B
:1003F000030382EA000083EA010180EA020281EA43
:100400000303362D88BF30BD11F0004F4FEA013194
:100410004FF4801C4CEA113102D0404261EB4101A3
:1004200013F0004F4FEA03334CEA133302D0524229
:1004300063EB430394EA050F00F0A780A4F10104E5
:10044000D5F1200E0DDB02FA0EFC22FA05F280181F
:1004500041F1000103FA0EF2801843FA05F3594105
:100460000EE0A5F120050EF1200E012A03FA0EFC84
:1004700028BF4CF0020C43FA05F3C01851EBE371AE
:1004800001F0004507D54FF0000EDCF1000C7EEBCB
:1004900000006EEB0101B1F5801F1BD3B1F5001F09
:1004A0000CD349085FEA30004FEA3C0C04F1010428
:1004B0004FEA445212F5800F80F09A80BCF1004F51
:1004C00008BF5FEA500C50F1000041EB045141EAD3
:1004D000050130BD5FEA4C0C404141EB0101013C9C
:1004E00028BFB1F5801FE9D291F0000F04BF01468B
:1004F0000020B1FA81F308BF2033A3F10B03B3F15D
:1005000020020CDA0C3208DD02F1140CC2F10C02EC
:1005100001FA0CF021FA02F10CE002F11402D8BF4A
:10052000C2F1200C01FA02F120FA0CFCDCBF41EA16
:100530000C019040E41AA2BF01EB0451294330BDE5
:100540006FEA04041F3C1CDA0C340EDC04F11404C2
:10055000C4F1200220FA04F001FA02F340EA030099
:1005600021FA04F345EA030130BDC4F10C04C4F1DF
:10057000200220FA02F001FA04F340EA03002946BF
:1005800030BD21FA04F0294630BD94F0000F83F409
:10059000801306BF81F480110134013D4EE77FEAEC
:1005A000645C18BF7FEA655C29D094EA050F08BF38
:1005B00090EA020F05D054EA000C04BF1946104619
:1005C00030BD91EA030F1EBF0021002030BD5FEA5D
:1005D000545C05D14000494128BF41F0004130BD85
:1005E00014F580043CBF01F5801130BD01F00045D9
:1005F00045F0FE4141F470014FF0000030BD7FEA4C
:10060000645C1ABF194610467FEA655C1CBF0B4646
:10061000024650EA013406BF52EA033591EA030F5D
:1006200041F4002130BD00BF90F0000F04BF002155
:10063000704730B54FF4806404F132044FF0000588
:100640004FF0000150E700BF90F0000F04BF002101
:10065000704730B54FF4806404F1320410F0004567
:1006600048BF40424FF000013EE700BF42004FEA62
:10067000E2014FEA31014FEA02701FBF12F07F43DF
:1006800093F07F4F81F06051704732F07F4208BF96
:10069000704793F07F4F04BF41F40021704730B59D
:1006A0004FF4607401F0004521F000411CE700BFE9
:1006B00050EA010208BF704730B54FF000050AE06C
:1006C00050EA010208BF704730B511F0004502D56D
:1006D000404261EB41014FF4806404F132045FEA6F
:1006E000915C3FF4D8AE4FF003025FEADC0C18BF18
:1006F00003325FEADC0C18BF033202EBDC02C2F10A
:10070000200300FA03FC20FA02F001FA03FE40EA9B
:100710000E0021FA02F11444BDE600BF4A0011D2D6
:1007200012F5001211D20DD56FF47873B3EB62524B
:100730000ED44FEAC12343F0004343EA505323FA57
:1007400002F070474FF00000704750EA013002D1CC
:100750004FF0FF3070474FF0000070474FEA410202
:10076000B2F1E04324BFB3F5001CDCF1FE5C0DD90F
:1007700001F0004C4FEAC0024CEA5070B2F1004F59
:1007800040EB830008BF20F00100704711F0804F5C
:1007900021D113F13872BCBF01F00040704741F421
:1007A00080114FEA5252C2F11802C2F1200C10FA25
:1007B0000CF320FA02F018BF40F001004FEAC12309
:1007C0004FEAD32303FA0CFC40EA0C0023FA02F3AD
:1007D0004FEA4303CCE77FEA625307D150EA013383
:1007E0001EBF4FF0FE4040F44000704701F0004053
:1007F00040F0FE4040F40000704700BF80F0004031
:1008000002E000BF81F0004142001FBF5FEA4103E8
:1008100092EA030F7FEA226C7FEA236C6AD04FEAE8
:100820001262D2EB1363C1BFD2184140484041402D
:10083000B8BF5B42192B88BF704710F0004F40F4DF
:10084000000020F07F4018BF404211F0004F41F4FB
:10085000000121F07F4118BF494292EA030F3FD0C7
:10086000A2F1010241FA03FC10EB0C00C3F12003DA
:1008700001FA03F100F0004302D5494260EB400069
:10088000B0F5000F13D3B0F1807F06D340084FEAD4
:10089000310102F10102FE2A51D2B1F1004F40EBC9
:1008A000C25008BF20F0010040EA03007047490031
:1008B00040EB0000013A28BFB0F5000FEDD2B0FACE
:1008C00080FCACF1080CB2EB0C0200FA0CF0AABFF1
:1008D00000EBC25052421843BCBFD040184370478F
:1008E00092F0000F81F4000106BF80F40000013295
:1008F000013BB5E74FEA41037FEA226C18BF7FEA6C
:10090000236C21D092EA030F04D092F0000F08BFAD
:100910000846704790EA010F1CBF0020704712F094
:100920007F4F04D1400028BF40F00040704712F1D3
:1009300000723CBF00F50000704700F0004343F038
:10094000FE4040F4000070477FEA226216BF08466E
:100950007FEA23630146420206BF5FEA412390EA31
:10096000010F40F4800070474FF0000304E000BF27
:1009700010F0004348BF40425FEA000C08BF7047D8
:1009800043F0964301464FF000001CE050EA01029C
:1009900008BF70474FF000030AE000BF50EA0102B1
:1009A00008BF704711F0004302D5404261EB41019E
:1009B0005FEA010C02BF84460146002043F0B643C3
:1009C00008BFA3F18053A3F50003BCFA8CF2083AE8
:1009D000A3EBC25310DB01FA02FC634400FA02FCF1
:1009E000C2F12002BCF1004F20FA02F243EB0200F8
:1009F00008BF20F00100704702F1200201FA02FC5A
:100A0000C2F1200250EA4C0021FA02F243EB02004C
:100A100008BF20EADC7070474FF0FF0C1CEAD05290
:100A20001EBF1CEAD15392EA0C0F93EA0C0F6FD051
:100A30001A4480EA010C400218BF5FEA41211ED02F
:100A40004FF0006343EA501043EA5111A0FB01311B
:100A50000CF00040B1F5000F3EBF490041EAD371F0
:100A60005B0040EA010062F17F02FD2A1DD8B3F16C
:100A7000004F40EBC25008BF20F00100704790F0DB
:100A8000000F0CF0004C08BF49024CEA502040EA2D
:100A900051207F3AC2BFD2F1FF0340EAC2507047F3
:100AA00040F400004FF00003013A5DDC12F1190F31
:100AB000DCBF00F000407047C2F10002410021FAA3
:100AC00002F1C2F1200200FA02FC5FEA310040F1BB
:100AD000000053EA4C0308BF20EADC70704792F034
:100AE000000F00F0004C02BF400010F4000F013A6C
:100AF000F9D040EA0C0093F0000F01F0004C02BF67
:100B0000490011F4000F013BF9D041EA0C018FE7D5
:100B10000CEAD15392EA0C0F18BF93EA0C0F0AD0DB
:100B200030F0004C18BF31F0004CD8D180EA010001
:100B300000F00040704790F0000F17BF90F0004F9A
:100B4000084691F0000F91F0004F14D092EA0C0F7C
:100B500001D142020FD193EA0C0F03D14B0218BF0F
:100B6000084608D180EA010000F0004040F0FE4055
:100B700040F40000704740F0FE4040F440007047F1
:100B80004FF0FF0C1CEAD0521EBF1CEAD15392EA70
:100B90000C0F93EA0C0F69D0A2EB030280EA010C60
:100BA00049024FEA402037D04FF0805343EA1111F9
:100BB00043EA10130CF000408B4238BF5B0042F157
:100BC0007D024FF4000C8B4224BF5B1A40EA0C00FC
:100BD000B3EB510F24BFA3EB510340EA5C00B3EB2E
:100BE000910F24BFA3EB910340EA9C00B3EBD10F1C
:100BF00024BFA3EBD10340EADC001B0118BF5FEA6E
:100C00001C1CE0D1FD2A3FF650AF8B4240EBC25096
:100C100008BF20F0010070470CF0004C4CEA502057
:100C20007F32C2BFD2F1FF0340EAC250704740F4A6
:100C300000004FF00003013A37E792F0000F00F098
:100C4000004C02BF400010F4000F013AF9D040EA16
:100C50000C0093F0000F01F0004C02BF490011F4AA
:100C6000000F013BF9D041EA0C0195E70CEAD153A2
:100C700092EA0C0F08D142027FF47DAF93EA0C0F89
:100C80007FF470AF084676E793EA0C0F04D14B026D
:100C90003FF44CAF08466EE730F0004C18BF31F01F
:100CA000004CCAD130F000427FF45CAF31F0004319
:100CB0007FF43CAF5FE700BF4FF0FF3C06E000BFB2
:100CC0004FF0010C02E000BF4FF0010C4DF804CDD5
:100CD0004FEA40024FEA41037FEA226C18BF7FEAE5
:100CE000236C11D001B052EA530C18BF90EA010FE7
:100CF00058BFB2EB030088BFC81738BF6FEAE17076
:100D000018BF40F0010070477FEA226C02D15FEA11
:100D1000402C05D17FEA236CE4D15FEA412CE1D07D
:100D20005DF8040B704700BF844608466146FFE744
:100D30000FB5FFF7C9FF002848BF10F1000F0FBD26
:100D40004DF808EDFFF7F4FF0CBF012000205DF81F
:100D500008FB00BF4DF808EDFFF7EAFF34BF0120A4
:100D600000205DF808FB00BF4DF808EDFFF7E0FF3D
:100D700094BF012000205DF808FB00BF4DF808ED8E
:100D8000FFF7D2FF94BF012000205DF808FB00BFF1
:100D90004DF808EDFFF7C8FF34BF012000205DF8D3
:100DA00008FB00BF4FEA40024FEA41037FEA226C92
:100DB00002D15FEA402C08D17FEA236C02D15FEABE
:100DC000412C02D14FF0000070474FF001007047F6
:100DD00042000ED2B2F1FE4F0BD34FF09E03B3EBA5
:100DE000126209D44FEA002343F0004323FA02F0D1
:100DF00070474FF00000704712F1610F01D14202BD
:100E000002D14FF0FF3070474FF00000704700BF35
:100E1000034B024658700821024802F05DBB00BF38
:100E2000B0000020000C0140064AB2F88030003BC0
:100E300018BF01230370B2F88230003B18BF0123B2
:100E400043707047520200200278034BA3F88020C1
:100E50004278A3F8822070475202002001280A46F7
:100E600005D1064B06481970102102F035BB022847
:100E700002D10846FFF7CCBF704700BFB00000208A
:100E8000000C014010B5094CE3880BB9E18C01B1AD
:100E900001210120FFF7E2FFB4F90032BDE8104064
:100EA000002BB4BF01200020FFF7B2BF5202002088
:100EB000082238B5184B00249A802322DA801422A5
:100EC0001A814FF49672154D5A81DA812146C82253
:100ED00028461C751C805C809C811C825C82DC82A4
:100EE0005C839C8306F028FD64232A4621460C4837
:100EF00004F046F900220B4B0B491A6059609A61C5
:100F000064210122C3E90944DC6019619C829C6070
:100F100083F82C2038BD00BFB2000020D000002094
:100F2000A00600200000002000000C421A4B10B563
:100F30005B6A1A4A19688389012B07D10023438011
:100F400049688381D3601161936010BD136949685A
:100F50008B423DBF146A643301345B1A3CBF5B1A99
:100F60001462B3F5FA7F03D9D3690133D361ECE797
:100F7000012BF9D0D46823444FF4FA44C2E9033179
:100F8000B3FBF4F1A34204FB113128BF002389B263
:100F9000418028BFD360D8E7A006002000000020D1
:100FA0000F4BB3F884208280B3F88620C280B3F858
:100FB00088200281B3F88A204281B3F88C20828194
:100FC000B3F89020C281B3F894200282B3F896203F
:100FD0004282B3F89830003B18BF01230375704775
:100FE000520200204288124BA3F882208288A3F884
:100FF0008420C288A3F886200289A3F88820428929
:10100000A3F88A208289A3F88C20C289A3F89020B3
:10101000028AA3F89420428AA3F89620027DA3F8BE
:101020009820C28AA3F89A200288A3F880207047EB
:1010300052020020000000002DE9F74F4E4C804680
:10104000E768A38AD4F818B0BB428ABF07F5FA4212
:10105000FB1AD31A33B95846FFF7BAFE80B203B071
:10106000BDE8F08F454AB8F806601279022A14BF2D
:1010700001204FF0FF305843A3680344A360FFF7FB
:1010800077FC0546B8F80400FFF76EFC01462846D9
:10109000FFF776FD05463046FFF7D6FA34A3D3E9CD
:1010A0000023FFF755F8FFF759FB01462846FFF7E5
:1010B000B3FC2168FFF7A8FB00210546FFF74AFEB5
:1010C00000B10025B8F80A00FFF752FC2C49FFF7E1
:1010D000A3FC29468146FFF73DFE00B14D4606FBC5
:1010E00006FA25605046FFF743FCB8F808800190E7
:1010F00008FB18A0FFF73CFC494682462846FFF74C
:101100003FFD01465046FFF787FC01460198FFF777
:1011100079FB06F051FC81464046FFF729FC014669
:101120004846FFF717FE18B14046FFF71DFC814601
:101130003046C4F80490FFF71BFC01464846FFF711
:1011400027FE18B13046FFF70FFC606028460D49B6
:10115000FFF762FC0C4905465846FFF75DFC014667
:101160002846FFF751FBA782A06175E7AFF3008027
:10117000182D4454FB2119400000002016020020C5
:10118000000020419A99193E9A99593F064B074A07
:1011900000215A60DA6819609A8200229961C3E9D5
:1011A00007229A60704700BF0000002000000C4238
:1011B0000022054B42804282DA60044A526A126879
:1011C00052681A61FFF7E2BF00000020A00600206D
:1011D00010B520210446064802F078F930B1012309
:1011E00020462375BDE81040FFF7E2BF207510BD13
:1011F0000008014010B50446FFF7EAFF2046FFF75C
:1012000095FEFFF719FF0A23B0FBF3F39BB263824D
:10121000E38210BD0368B3F1804F01BF024A536AF5
:1012200001335362704700BF000000200368B3F130
:10123000804F01BF024A936A01339362704700BF37
:101240000000002038B500240B4D224610210B4829
:101250002C7102F041F922460221094802F03CF9C2
:10126000EC70084D2146284603F088FF2846BDE86B
:101270003840042103F082BF16020020000801401C
:10128000000C0140580600200128024608B50ED186
:101290000D4B4FF4007118710C4802F01DF900223B
:1012A000BDE808404FF48051094802F015B9022802
:1012B00009D1054B002218714FF40071034802F068
:1012C0000BF90122ECE708BD0402002000080140F0
:1012D000000C0140234B33F8112002704A1C33F8F4
:1012E000122042708A1C33F812208270CA1C33F814
:1012F0001220C2700A1D33F8122002714A1D33F801
:10130000122042718A1D33F812208271CA1D33F8EF
:101310001220C27101F1080233F81220027201F1A9
:10132000090233F81220427201F10A0233F8122046
:10133000827201F10B0233F81220C27201F10C0229
:1013400033F81220027301F10D0233F812204273B8
:1013500001F10E0233F812200F31C28133F811303F
:1013600003827047520200200F4BB3F80022028024
:10137000B3F802224281B3F804228281B3F8062234
:10138000C281B3F808220282B3F80A224280B3F87D
:101390000C224282B3F80E228280B3F81022C2805F
:1013A000B3F8123203817047520200200278244BB6
:1013B00010B523F8112044784A1C23F81240847891
:1013C0008A1C23F81240C478CA1C23F812400479FE
:1013D0000A1D23F8124044794A1D23F812408479EB
:1013E0008A1D23F81240C479CA1D23F81240047ADA
:1013F00001F1080223F81240447A01F1090223F8AE
:101400001240847A01F10A0223F81240C47A01F1F1
:101410000B0223F81240047B01F10C0223F8124066
:10142000447B01F10D0223F81240C48901F10E0240
:1014300023F81240028A0F3123F8112010BD00BF9B
:101440005202002002880F4BA3F800224288A3F822
:101450000A228288A3F80E22C288A3F810220289E9
:10146000A3F812224289A3F802228289A3F8042257
:10147000C289A3F80622028AA3F80822428AA3F8A6
:101480000C22704752020020024608B9FFF7DABE6C
:10149000012805D1064B18711021064802F01CB82E
:1014A000022803D1024B00221871F5E7704700BFF4
:1014B000160200200008014038B50446C0B90E4DA0
:1014C000024628714FF400710C4802F005F82246DC
:1014D0004FF480510A4801F0FFFF21460948EC70A3
:1014E00003F04CFEBDE838400821064803F046BE34
:1014F000BDE83840FFF7C8BE0402002000080140E4
:10150000000C0140E806002038B5074D2B6828463E
:10151000DC6A64234C43B4FBF3F4002103F0F2FDD6
:101520002B685C6338BD00BF5806002038B5114CED
:101530002368DD6A64234D43B5FBF3F50379012B82
:101540000AD10821204603F019FE0021204603F0AD
:10155000D9FD23685D6338BD022BFCD100212046F4
:1015600003F00CFE0821204603F0CCFD2368DD6368
:10157000F1E700BFE806002038B5174A41789042ED
:1015800014BF0222012201290346144D0FD1047910
:101590006CB1017329838478012A2146C47003D178
:1015A000FFF7B2FF204638BDFFF7C0FFFAE700247F
:1015B000012A1C7321462C8318461C71DC7005D14E
:1015C000FFF7A2FFFFF73EFE0024EBE7FFF7AEFFB9
:1015D0002046FFF771FFF7E71602002052020020B5
:1015E0002DE9F041644F4378B84214BF0227012728
:1015F000012B0446614A40F0A5800179002900F0E2
:10160000A1805F4E0373138333788578052B00F236
:101610009080DFE803F0031C39516B8002230371D3
:101620002846FFF711F852A3D3E90023FEF790FDF7
:10163000FFF774F8C5B25348037DC3B1FFF7B8FD97
:101640000123337004F070FA4F4B18600FE0002351
:10165000037104F069FA4C4D2B6803F5FA73984254
:1016600004D30223337004F05FFA28600025012FB1
:1016700029462046E5705FD1FFF746FF2079FFF746
:1016800003FF2846BDE8F081012303712846FEF7D9
:10169000DBFF37A3D3E90023FEF75AFDFFF73EF83F
:1016A000DFF8E080C5B24046FFF7C6FCB8F80E3060
:1016B0008342DCD80323C4E70023037104F034FA27
:1016C000DFF8C480D8F8003003F5FA739842CDD320
:1016D00001232C4D28462B82FFF7AEFC0423E88122
:1016E000337004F021FAC8F80000BFE70223037149
:1016F0002846FEF7A9FF1EA3D3E90023FEF728FD25
:10170000FFF70CF8C5B21F48037D002BAFD0FFF7E1
:101710004FFD052395E70025057104F005FA1A4BE6
:101720001B6803F57A739842A0D301233570238098
:101730009CE7002333709AE7FFF7F8FE2079FFF764
:10174000BBFE9EE70025012F257329461583204601
:101750002571E57005D1FFF7D7FEFFF773FD002572
:101760008FE7FFF7E3FE2846FFF7A6FEF7E700BF87
:101770005C8FC2F5285CEF3F160200205202002069
:10178000AC010020B2000020A8010020F8B51E46E0
:10179000114B0128114C08BF1C464FF00005104B9F
:1017A000084623610F4B256063610F4B6560A361A1
:1017B0000E4BA560E56017460D4C08BF1C46FFF7B1
:1017C00007FBE0713846FFF703FB20723046FFF756
:1017D000FFFA6072F8BD00BFD0010020B001002008
:1017E00000007A44000020410000C8421602002098
:1017F000040200202DE9F74F81465A4BB9F1010F41
:10180000594E08BF1E46594B08461146584C08BF52
:101810001C46FEF7F7FF0546E060307AFFF7A4F8B4
:101820005449FFF7ADF90746707AFFF79DF8514923
:10183000FFF7A6F98246F079FFF796F84D49FFF7D2
:101840009FF92946FFF7E8F84B4983462846FFF7FA
:10185000E3F82168FEF7D8FF002180462060384673
:10186000A669FFF76DFA002862D139463046FFF7C6
:1018700087F9014640460191FFF78AFA019900284D
:1018800058D0216038462168FFF7C6F8616801909A
:101890002846FEF7B7FF3849FFF772F9B9F1010F93
:1018A00036490CBF364F374FFFF7B6F8D7F80080F0
:1018B000814635494046FFF7AFF801464846FEF7F6
:1018C000A3FF01998146386065605846FEF79CFF8A
:1018D000514605464846FFF79FF801462846FEF761
:1018E00093FF254905466069FFF796F8D4F80890FC
:1018F000074649462846FEF785FF8046014638469A
:10190000FFF728FA00B339464846FEF77DFF054643
:1019100031462846FFF73CFA28B900212846FFF750
:1019200019FAE8B92E463046A66003B0BDE8F08F3C
:1019300021699FE701F1004140460191FFF70AFA52
:1019400000289FD001999CE7414607F10040FFF72E
:101950001FFA0028DCD039464846FEF753FFD6E789
:101960000026E0E71602002004020020D00100203B
:10197000B00100200000C8420AD7233CCDCCCC3DAA
:10198000A4010020A00100206666663F0000000060
:1019900070B5354B354D9842354B044608BF1D4652
:1019A000437814BF0226012623B10378022B01D10C
:1019B000037913BB00232B606B60AB60EB60EB61C2
:1019C0000025012EE5700ED1294A29462046D36113
:1019D000FFF79AFDFFF736FC2946264803F0CEFBB9
:1019E0000025284670BD214A20462946D361FFF7CD
:1019F0009DFD2846FFF760FDF2E7807AFEF7B4FF11
:101A00006861E078FEF7B0FF0546A078FEF7ACFF0E
:101A10002A4601463046FFF7EDFEFFF7D9F9C3B27B
:101A20006079E370984228BF1846A379834202D9AF
:101A3000002818BF1846FEF707FE09A3D3E90023C4
:101A4000FEF786FBFEF76AFE012EC5B22946204648
:101A500002D1FFF759FDC4E7FFF768FDC1E700BFFA
:101A60005C8FC2F5285CEF3F16020020B001002019
:101A7000D0010020580600202DE9F04F8146614B2F
:101A8000B9F1010F604E08BF1E46604B85B0084695
:101A900011465F4D08BF1D46FEF7B4FE0021E86009
:101AA0000746FFF775F9002840F0908007F10048DD
:101AB000307AFEF759FF5749FFF762F88346707A8C
:101AC000FEF752FF5349FFF75BF80190B078FEF73D
:101AD0004BFF0446F079FEF747FF4E49FFF750F8F9
:101AE0004146FEF799FF4C4902903846FEF794FFB5
:101AF0002968FEF789FE49498246FFF749F900281F
:101B000066D150464649FFF725F9002863D1514672
:101B10005846C5F800A0FEF77FFF6968834638463F
:101B2000FEF770FE3C49FFF72BF8B9F1010F0CBF2F
:101B30003C4B3D4B3D49D3F800900393FEF76CFFBF
:101B40003B4982464846FEF767FF01465046FEF78E
:101B50005BFE039B8146186059466F600298FEF752
:101B600053FE019907464846FEF756FF01463846A0
:101B7000FEF74AFE074601462046FFF7EBF800B99C
:101B80003C4677793846FEF7F3FE2146FFF7E2F848
:101B900018B13846FEF7E8FE044600212046FFF75C
:101BA000F7F80027D0B1B6793046FEF7E1FE2146BE
:101BB000FFF7EEF818B13046FEF7D6FE04464FF0B8
:101BC0007E514046FFF7D0F880B10DE0B8466FE790
:101BD000DFF848A09BE7DFF848A098E74FF07E5178
:101BE0004046FFF7C1F830B12F6000242046AC60BA
:101BF00005B0BDE8F08F39462046FFF7ABF8002866
:101C0000F3D1F3E71602002004020020D0010020E7
:101C1000B00100200000C8420AD7233C000048421F
:101C2000000048C29C01002098010020CDCCCC3D92
:101C30006666663F000000002DE9F041464B474EC6
:101C40009842474B044608BF1E46437814BF0225FE
:101C5000012513B10378032B1ED00023336073607A
:101C6000B360F3600026012DE6700DD131462046A9
:101C7000FFF74AFCFFF7E6FA31463A4803F07EFAEE
:101C800000263046BDE8F08120460021FFF74EFCDB
:101C90000020FFF711FCF3E7B0F80E80078AA7EBEE
:101CA00008031BB283EAE372A2EBE37292B2012A49
:101CB00009D80021012D0171C170E5D1FFF724FC85
:101CC000FFF7C0FADCE7002B35DD012085422071EB
:101CD00036D12846FFF7D8FBA07AFEF745FE7061A3
:101CE0004046FEF741FE06463846FEF73DFE3246C8
:101CF00001462846FFF7C0FEFFF76AF8C3B26079D5
:101D0000E370984228BF1846A379834202D900287D
:101D100018BF1846FEF798FC0DA3D3E90023FEF781
:101D200017FAFEF7FBFC012DC6B2314620460AD158
:101D3000FFF7EAFBA5E7CFD00220012D2071C9D023
:101D4000FFF7A2FAC8E7FFF7F1FB9AE7AFF30080CD
:101D50005C8FC2F5285CEF3F16020020B001002026
:101D6000D00100205806002038B5204B204DDB8ADA
:101D7000204A4178C381204B0446A84208BF13463D
:101D8000012918D10378013B092B08D8DFE803F0BB
:101D9000050A0D07070707070710FFF7EDFBAC4221
:101DA0001FD117E0FFF7F4FDF9E7FFF745FFF6E76E
:101DB000FFF716FCF3E70029F1D1104A01731183F4
:101DC0000022A8421A605A609A60DA60C17006D197
:101DD000FFF79AFB2879BDE83840FFF755BBFFF7BE
:101DE000A5FB2079BDE83840FFF766BBB2000020B4
:101DF00016020020D0010020B00100205202002075
:101E000070B500F029F800210D48FFF763FA0D4E78
:101E10000D4D0E4C10210E48FFF75CFA0D48FFF7F0
:101E2000A3FA214633462A460120FFF7AFFC33468A
:101E30002A462146BDE870400220FFF7A7BC00BF3C
:101E4000160200200000A040000020410000C8420F
:101E500004020020F001002070B503243E4B002254
:101E600005210120A3F80042A3F808420A266424B1
:101E70000425A3F8021259829982A3F80422A3F838
:101E80000602A3F80A02A3F80C02A3F80E22A3F894
:101E90001022A3F8122218805A809A80DA801A81C0
:101EA000DC811E821A835A835C819A81DD829A8347
:101EB000DA8318845A849A84DA841A855986998632
:101EC0000821A3F884102321A3F886101421A3F875
:101ED00088104FF49671DC851E861A875A875C85B8
:101EE0009A85DD869A87DA87A3F84020A3F84220F6
:101EF000A3F84420A3F84620A3F84820A3F84A20DA
:101F0000A3F86020A3F86220A3F86420A3F8662059
:101F1000A3F86820A3F88020A3F88220A3F88A10F1
:101F2000A3F88C20A3F89010A3F89420A3F896208F
:101F3000A3F89820A3F89A20084B1A805A809A8018
:101F4000DA801A81064B1A605A60064B1A705A7072
:101F50009A70DA7070BD00BF520200204802002063
:101F6000400200203C02002070B5002204464FF6DB
:101F7000FF70084E8A4200DB70BD0825A35C584004
:101F800040F30003334083EA5003013D98B2F7D198
:101F90000132EFE701A0FFFF02681D4B10B59A4226
:101FA00034D100F069FF1B4B1B4918600B78FF2BE5
:101FB00028D01A4C5A1CD2B219482478022A0A7026
:101FC000C45418D94378062B03D00BD8033B012BFC
:101FD00018D808239A420ED30123124A1370124ACA
:101FE000137008E0102B0DD1062A04D98379093328
:101FF00013F0FF03EED1BDE81040012207490B4862
:1020000003F055BD0023074A0B70E9E710BD00BF80
:1020100000440040AC040020B1040020AA040020C9
:10202000B2040020B00400202C020020CC050020C7
:1020300008B50268094B9A420ED10023084A0948A4
:102040001370094A137003F0FCFABDE8084001223E
:102050000649044803F02BBD08BD00BF0044004002
:10206000B1040020CC050020B0040020AA04002008
:1020700010B5084C204603F0E4FA0023064A204637
:102080001370064A06491370BDE81040012203F0A0
:102090000EBD00BFCC050020B1040020B00400201C
:1020A000AA0400202DE9F0417B4DC0B02F78052F08
:1020B00023D97A4E7A4CB6F8003294F800809845CD
:1020C00004D00023774A2B70137016E0B91E204607
:1020D000FFF74AFF625CC3B29A4206D1274417F861
:1020E000013CC0F30F2083420AD000236D4A2B70BD
:1020F00013706D4A13680133136040B0BDE8F0817E
:1021000063788DF80080062B8DF8013000F09F80F9
:1021100007D8032B2DD0042B6FD0012243F080036E
:1021200089E0102BF9D16288A38852BA5BBA92B2C7
:102130009BB202EB0308B8F5967F94F802E094F89E
:1021400003C027796079A1797FDCB1EB430F7CD1A3
:1021500006EB42060022934204F1020440F3918010
:1021600094F80580A179013241EA082126F8021B82
:10217000F1E76288A08852BA40BA92B280B21118D0
:10218000B1F5967F55DC002441008DF8021006EB76
:1021900042025F1C1E46A04203F10203FFB2DBB203
:1021A00021DC0331C9B26846FFF7DEFE8C1C0DF856
:1021B00001003E4E0131000AC9B20DF8010030683D
:1021C000E4B218B14FF0FF3103F048FD642322461A
:1021D0006946374803F0E7F9306800283FF471AFEB
:1021E00003F05FFD6DE732F802CB01344FEA1C2E9D
:1021F0000DF806E00DF807C0CBE76288A38852BA55
:102200005BBA92B29BB2D11805291ADC2948002486
:1022100000EB42006A4659008DF80210A34202F119
:102220000202BEDD30F8026B0134370A5770967037
:10223000F4E78323022203218DF801308DF8022078
:10224000B1E78423F6E78623F4E79023F2E7618879
:1022500094F802E04BBA9BB2B3F5967F94F803C0B2
:10226000A28827796079EED254BA26F8134040F656
:102270000113994205D1B2F5807F02D10023A6F85F
:10228000103206218DF802E08DF803C08DF804703D
:102290008DF8050087E700BFB1040020520200203E
:1022A000B2040020B004002030020020B405002059
:1022B000CC0500204802002070B51F4C1F4E22782C
:1022C000B6F802329A4236D01D4D286818B14FF048
:1022D000FF3103F0C3FCB6F80232013B032B22D8D6
:1022E000DFE803F02502191D02224FF49643227005
:1022F000144C2046636003F03CF9204603F00AF9D1
:1023000001222046104903F0D2FB286898B1BDE8AD
:10231000704003F0C6BC03224FF41643E7E70422E3
:102320004FF46143E3E705224FF4E133DFE7012295
:102330004FF41653DBE770BD30000020520200203E
:10234000B4050020CC050020AA04002038B500F018
:1023500093FD094A04461368C31AB3F57A7F0AD37A
:10236000106047F23052054D2B68C31A934202D9D0
:10237000FFF77EFE2C6038BD28020020AC04002050
:1023800008B500F079FD054B01221860044B0549A2
:1023900018600548BDE8084003F089BBAC04002084
:1023A00028020020AA040020CC050020F8B503F084
:1023B000BBFB04460C4D0D4F0D4E2846FEF734FD79
:1023C0002846FEF75FFD2846FEF73EFD3B6804F514
:1023D000FA7401333B60338000F04EFD708020467C
:1023E00003F0EDFBE9E700BFB00000203802002059
:1023F000480200202DE9F04142F6F824FFF7C0FF23
:10240000194B1A4F5B681A4EB4FBF3F403F08CFBC4
:10241000A400052C054638BF05243B6801333B600A
:1024200033785BB9DFF84C8098F8003063B90A352F
:10243000FFF78CFF284603F0C2FBEEE7FFF732FE02
:102440003378002BF3D1EDE700F016FD0A4B1B6843
:10245000C01AA042EBD90023084A88F80030337034
:10246000136801331360E2E7CC050020340200203A
:10247000B0040020B1040020AC0400203002002091
:10248000F8B503F051FB1C4B1C4A1D4904460120C2
:10249000FFF77CF90220184B184A1949FFF776F923
:1024A000184E194D194F00213046FEF713FF102129
:1024B0002846FEF70FFF1548FEF756FF3B89012B14
:1024C00001D1FFF79DFCFFF7F7FE3046FFF74CFC0C
:1024D0002846FFF749FC30460021FEF767FF102130
:1024E0002846FEF763FF1E343846FEF7ABFF204652
:1024F00003F065FBD7E700BF0000A04000002041CB
:102500000000C8421602002004020020F001002052
:1025100070B503F009FB04460A4E0B4D4FF4004121
:10252000084800F0DEFF2B78012B06D14FF48041E4
:10253000304600F0D6FF00232B70FA34204603F01B
:102540003EFBEBE7001001402C02002038B503F001
:10255000EBFA0446074D2846FEF722FD2846FEF713
:1025600049FE0A342846FEF73DFD204603F027FBCE
:10257000F1E700BFB200002010B590B01422002196
:1025800008A805F0D9F91422002101A805F0D4F912
:1025900002244FF480330122CDE90D43CDE9062317
:1025A0004FF4E01306A80A920F9301F0ADFE08B1B4
:1025B00072B6FEE70F23CDE901344FF48063039038
:1025C000CDE90430214601A802F060F808B172B6E6
:1025D000FEE710B010BD0000102680B5AC4C9AB0DC
:1025E00000F02CFCFFF7C8FF3246002112A805F0CE
:1025F000A3F9A36900223343A361A3694FF46041A7
:1026000033400193019BA369A24843F02003A361D7
:10261000A369002503F020030293029BA3694FF0F6
:10262000010843F00403A361A3694FF0020A03F019
:1026300004030393039BA369202743F00803A361CA
:10264000A36903F008030493049B00F045FF0022F4
:102650004FF40471904800F03FFF002241F21A014C
:102660008E4800F039FF4FF460438A4812A9CDE943
:102670001238CDE9145A00F0E7FD4FF40473864890
:1026800012A9CDE91238CDE9145A00F0DDFD8248D7
:1026900012A9CDE91275149500F0D6FD41F21A0386
:1026A0007E4812A9CDE91238CDE9145A00F0CCFDCC
:1026B0004FF4C043794812A9CDE91235149500F0C2
:1026C000C3FD63692A4643EA080363616369052120
:1026D00003EA08030F200093009B00F0E5FB0F20A6
:1026E00000F012FC6E4C6F486F4BC0E90255C0E918
:1026F00000434FF48043C0E90655C0E90435056244
:1027000000F0F8FE054608B172B6FEE70146CDE9D5
:102710000B00324612A805F00FF94FF6FF794FF083
:102720008043624C2046C4E90035C4E90395A660A5
:10273000A56102F085FA08B172B6FEE7CDE90B009B
:102740000BA9204602F0F6FD024608B172B6FEE77C
:10275000CDE9140012A92046CDE912A802F048FBE9
:10276000034608B172B6FEE74FF4E13250485149D2
:10277000C0E90233C0E900120C220361C0E905235D
:10278000C36102F0C7FE044608B172B6FEE7014617
:10279000324607A805F0D0F81C2221460BA8464D6A
:1027A000CDE9054405F0C8F83A46214612A805F0DF
:1027B000C3F8424B2846C5E90034C5E90249C5E9DA
:1027C0000444AC6102F0E4F908B172B6FEE74FF4DC
:1027D0008053284607A9079302F09FFB08B172B601
:1027E000FEE7284602F000FA08B172B6FEE7CDE92E
:1027F000050005A9284602F09DFD024608B172B603
:10280000FEE76023CDE90D00CDE90B30CDE90F00E7
:1028100011900BA9284602F06BFA08B172B6FEE7D8
:10282000082225480BA902F063FA08B172B6FEE748
:102830004FF40053CDE91200CDE914001690199021
:1028400012A91D48179302F0A3FD054608B172B600
:10285000FEE7194800F0CEF9102229460BA805F032
:102860006BF81C22294612A8154CCDE9075505F036
:1028700063F8144B2046C4E900354FF6FF73A5609A
:10288000C4E90335A56102F083F9E8B172B6FEE749
:10289000001002400010014000080140000C0140FF
:1028A0000054004030070020A0860100A006002050
:1028B000CC05002000440040E8060020002C014028
:1028C00058060020000400404FF4805320460BA916
:1028D0000B9302F022FB08B172B6FEE7204602F02D
:1028E00083F908B172B6FEE7CDE9070007A92046D3
:1028F00002F020FD024608B172B6FEE76023149094
:10290000CDE91230169012A9204602F0F1F908B173
:1029100072B6FEE70422204612A902F0E9F9054644
:1029200008B172B6FEE7204600F064F9FFF794FAAA
:10293000FEF7BEFA03F0CCF8174B12A81293CDE9BC
:102940001355159503F052F9144B29461860144A93
:10295000144803F0F0F8144B29461860134A144841
:1029600003F0E9F8134B29461860134A134803F0A3
:10297000E2F8134B29461860124A134803F0DBF8BB
:10298000124B29461860124A124803F0D4F8124B31
:10299000186003F0AFF8FEE7E47A0008B405002001
:1029A000C87B0008AD230008C8050020A47B0008F0
:1029B000F5230008C4050020807B0008812400085E
:1029C000C00500205C7B000811250008BC05002024
:1029D000387B00084D250008B805002072B6FEE7D8
:1029E000154B07B59A690F2142F001029A619A6965
:1029F0006FF0010002F001020092009ADA6942F0E1
:102A00008052DA61DB69002203F080530193019B5D
:102A100000F04AFA05210022084600F045FA052098
:102A200000F072FA054A536823F0E06343F0007344
:102A3000536003B05DF804FB001002400000014049
:102A400010B5044686B01022002102A804F074FFDD
:102A50002268194B9A422CD1184CC022A3691848FD
:102A600043F00803A361A36902A903F008030093DC
:102A7000009B1223CDE902230323059300F0E4FB1E
:102A8000E369002243F40013E361E369052103F4E1
:102A900000131F200193019B00F006FA1F2000F095
:102AA00033FA20200022052100F0FEF9202000F05A
:102AB0002BFA06B010BD00BF0054004000100240C9
:102AC000000C014007B503681F4A934224D11F4BF5
:102AD00005219A69182042F400629A619B690022DC
:102AE00003F400630093009B00F0DEF9182000F06F
:102AF0000BFA00220521192000F0D6F9192000F068
:102B000003FA1B200022052100F0CEF91B2003B0A0
:102B10005DF804EB00F0F8B90D4A934210D10B4B6D
:102B20001D20DA69052142F00202DA61DB69002228
:102B300003F002030193019B00F0B6F91D20E6E7C4
:102B400003B05DF804FB00BF002C01400010024000
:102B50000004004030B5054687B01022002102A8CD
:102B600004F0EAFE2B68B3F1804F3AD103F5043349
:102B7000DA691D4842F00102DA61DA6902A902F05D
:102B800001020092009A9A69184C42F004029A617C
:102B90009B6903F004030193019B0123029300F05E
:102BA00053FB0023124A8021C4E900234FF48072B2
:102BB0004FF48060C4E903122022C4E905022046D4
:102BC000A360E36100F0D4F908B1FFF707FF1C2010
:102BD0006C6200220521656200F066F91C2000F09D
:102BE00093F907B030BD00BF000801401406002073
:102BF0005800024010B5044686B01022002102A8F9
:102C000004F09AFE2368144A934215D1134B9A6933
:102C100042F004029A619B6903F004030093009B55
:102C20004FF4A063029302230D4802A90393059376
:102C300000F00AFB06B010BD0A4A9342FAD1074BD6
:102C40009A6942F004029A619B6903F004030193BC
:102C5000019BC023E6E700BF002C014000100240AA
:102C6000000801400004004010B5044686B0102260
:102C7000002102A804F060FE22681A4B9A422FD16C
:102C800003F5E633DA69184842F40032DA61DA69AA
:102C900002A902F400320092009A9A69002442F0DC
:102CA00004029A619B69042203F004030193019BCF
:102CB0000223CDE902230323059300F0C5FA08237C
:102CC00009480DEB0301CDE90234049400F0BCFA8D
:102CD00026202246052100F0E7F8262000F014F90E
:102CE00006B010BD004400400008014008B502686D
:102CF000084B9A420DD1084A0848D3690C2123F4A5
:102D00000033D36100F074FBBDE80840262000F0DA
:102D100009B908BD0044004000100240000801400D
:102D2000FEE7FEE7FEE7FEE7FEE7704708B500F0C6
:102D300097F804F0D9F8012803D0BDE8084004F062
:102D400051BC08BD70470000014800F0E3B900BF66
:102D500014060020014801F027BE00BFE80600204D
:102D6000FFF7F8BFFFF7F6BF014801F01DBE00BF37
:102D7000A0060020014801F017BE00BF5806002041
:102D8000014800F0C9BD00BF30070020014801F034
:102D90001BBA00BF30070020014802F025BD00BF6C
:102DA000CC05002070470000FFF7FCFF0B480C49E2
:102DB0000C4A002302E0D458C4500433C4188C4297
:102DC000F9D3094A094C002301E013600432A242FE
:102DD000FBD304F0BFFDFFF7FFFB704700000020AE
:102DE00094000020287C0008940000200C2600207D
:102DF000FEE7000038B50E4B05461A784FF47A739B
:102E0000B3FBF2F30B4A1068B0FBF3F000F09CF850
:102E1000044658B90F2D09D8024629464FF0FF3015
:102E200000F042F82046044B1D6038BD0120FCE74D
:102E300038000020340000203C000020074A08B57C
:102E40001368032043F01003136000F01BF80F20F9
:102E5000FFF7D0FFFFF7C4FD002008BD00200240AF
:102E6000034A044B11681B780B441360704700BF82
:102E70008407002038000020014B1868704700BF0D
:102E80008407002007490302CA6803F4E06322F4C0
:102E9000E0621204120C134343F0BF6343F40033A7
:102EA000CB60704700ED00E0154B30B5DC68C4F333
:102EB0000224C4F10703251D042B28BF0423062D7B
:102EC0004FF0FF3594BF0024033C05FA03F321EAD9
:102ED0000303A54022EA0502A340002843EA0203B7
:102EE000ACBF00F16040074A4FEA0313DBB2ABBF4F
:102EF00000F5614000F00F0080F80033135430BD3E
:102F000000ED00E014ED00E0002807DB012341099B
:102F1000034A00F01F00834042F82130704700BF91
:102F200000E100E000280CDB01220649430900F023
:102F30001F008240203341F82320BFF34F8FBFF39F
:102F40006F8F704700E100E00138B0F1807F0BD255
:102F50004FF0E023F021054A586182F82310002049
:102F6000072298611A6170470120704700ED00E068
:102F7000034610B530B301681420134A0A44B2FB6B
:102F8000F0F292001A64114ADA63022283F82120D7
:102F9000D3E901242243DC68086822431C696FF3EB
:102FA0000D1022435C6922439C692243DC69224361
:102FB00002430A6000200122986383F8200083F80E
:102FC000212010BD0120FCE7F8FFFDBF00000240FA
:102FD000F0B590F82040012C34D0012480F8204036
:102FE00090F82140012CE5B24FF0000428D10226D0
:102FF00080F8216084630468266826F00106266054
:10300000D0E90F67BD40756063604368102BC36AE9
:103010000BBFA260A160E160E2604BB1236843F0A6
:103020000E0300202360236843F001032360F0BDFA
:10303000236823F004032360236843F00A03F0E7C6
:1030400080F820400220F2E790F821200346022A6F
:1030500006D0042282630120002283F820207047DA
:103060000268C06B116821F00E011160116821F037
:103070000101116001211A6C01FA02F24260002084
:1030800083F82110E8E7000008B590F82130022B02
:1030900003D004238363012008BD03681A6822F06B
:1030A0000E021A601A6822F001021A60174A93424F
:1030B0001FD0143293421ED0143293421DD01432CA
:1030C00093421DD0143293421DD01432934214BF48
:1030D0004FF080734FF480130D4A5360012380F842
:1030E0002130002380F82030436B03B19847002043
:1030F000D2E70123F0E71023EEE74FF48073EBE70C
:103100004FF48053E8E74FF48033E5E708000240CE
:103110000000024070B40425C66B026C346803687A
:1031200095402542196832D04D0730D51A68960669
:103130005EBF1A6822F004021A603E4A934219D018
:103140001432934218D01432934217D0143293425F
:1031500017D01432934217D01432934214BF4FF059
:1031600080634FF48003344A5360C36A002B5ED0FF
:1031700070BC18470423F6E74023F4E74FF480635C
:10318000F1E74FF48043EEE74FF48023EBE70225AD
:103190009540254235D08D0733D51A68940606D45C
:1031A0001A6822F00A021A60012280F82120214ABE
:1031B000934219D01432934218D01432934217D04C
:1031C0001432934217D01432934217D014329342E0
:1031D00014BF4FF000734FF40013174A53600023DD
:1031E00080F82030836AC1E70223F6E72023F4E762
:1031F0004FF40073F1E74FF40053EEE74FF4003360
:10320000EBE708259540254211D009070FD519682D
:1032100021F00E011960012303FA02F27260836348
:1032200080F82130002380F82030036B9EE770BCCB
:10323000704700BF080002400000024090F82100E3
:103240007047806B704700002DE9F74F00244FF066
:103250000F0E2646DFF884C1614B00F104080A68AE
:1032600032FA06F502D103B0BDE8F08F012505FA68
:1032700006F702EA070537EA020276D14A68032A0E
:1032800007D8013A022A00F28380DFE802F0919623
:103290009C00122A00F0948069D8112A00F08A80DC
:1032A000FF2D94BF8146C1464FEA8602D9F80070CF
:1032B00088BF203A0EFA02FA27EA0A0704FA02F255
:1032C0001743C9F80070D1F8049019F0805F4CD012
:1032D000DCF8182026F0030742F00102CCF8182091
:1032E000DCF8182007F1804702F00102019207F58F
:1032F000803706F0030A019A4FEA8A0ABA680EFA82
:103300000AFB22EA0B0B374A904260D002F580623A
:1033100090425ED002F5806290425CD002F58062FD
:10332000904214BF0422032202FA0AF242EA0B027C
:10333000BA609A6819F4801F14BF2A43AA439A609E
:10334000DA6819F4001F14BF2A43AA43DA605A68E6
:1033500019F4003F14BF2A43AA435A601A6819F4AB
:10336000803F14BF2A43AA431A60013677E7DFF88B
:1033700078904A450CD014D8A9F580194A4507D051
:1033800009F570294A4503D0A9F580194A4587D126
:103390008A68D2B1012A4FF008040CBF0761476167
:1033A0007EE7DFF848904A45F2D009F58039EDE72D
:1033B000CC6875E7CC68043472E7CC6808346FE7F2
:1033C000CC680C346CE700246AE7042468E7002228
:1033D000AAE70122A8E70222A6E700BF00100240E8
:1033E00000040140000801400000221000003110DC
:1033F0002DE9F74F4FF0040B00224FF0010A4FF078
:103400000F0800EB0B0301932E4B31FA02F402D1AB
:1034100003B0BDE8F08F0AFA02F70F4049D022F05E
:10342000030404F1804404F5803402F0030CA56821
:103430004FEA8C0C08FA0CF909EA050E224DA84255
:1034400039D005F58065A84237D005F58065A842DA
:1034500035D005F58065A84214BF0425032505FA7B
:103460000CF575456FEA07060FD11D6835401D60E4
:103470005D6835405D60DD683540DD609D683540E4
:103480009D60A56825EA0905A560FF2F94BF074642
:10349000019F4FEA82043D6888BF203C08FA04FC83
:1034A00025EA0C050BFA04F425433D60C46834405A
:1034B000C4600132A9E70025D1E70125CFE7022545
:1034C000CDE700BF000401400008014083681942B5
:1034D00014BF0120002070470AB101617047090440
:1034E000FBE7C36801EA030221EA030141EA024162
:1034F0000161704770B5044608B9012070BD90F8AD
:103500003D3003F0FF021BB980F83C20FFF798FA2A
:10351000242384F83D3023681A6822F001021A60DF
:103520001A6842F400421A601A6822F400421A60D3
:1035300001F048F93F4B65689D4294BF3E4B3F4BBD
:1035400098428CBF00230123002BD6D1394E3C4B2F
:10355000B542B0FBF3F388BF4FF49676226851680A
:1035600021F03F0141EA030182BF73434FF47A76B1
:10357000B3FBF6F35160116A013321F03F010B43B5
:103580001362D169431E2B4821F44F41854221F03B
:10359000FF0132D86D00B3FBF5F340F6FC70013348
:1035A000034242D0C3F30B031943D1611168D4E93C
:1035B000073021F0C00103430B4313609168D4E945
:1035C000030321F40341034321F0FF010B43936004
:1035D000D168D4E9053021F0FF0103430B43D360E8
:1035E0001368002043F0010313602023206484F853
:1035F0003D30206384F83E0080E7A06850B905EBB9
:103600004505B3FBF5F30133C3F30B037BB143F47F
:103610000043C9E719206843B3FBF0F30133C3F358
:103620000B0323B143F44043BEE70423BCE701236B
:10363000BAE700BFA08601007F841E00FF083D009E
:1036400040420F007047704770477047704770479F
:10365000704790F83D2008B5036DD2B283B9C36CB2
:103660000268012B836C05D1DBB21361036D023359
:10367000036508BDC3F307231361036D0133F7E747
:10368000036D012B03D1836C0268DBB2F4E7036D99
:10369000022B2FD1222A05D10268136843F48073CC
:1036A0001360EAE7438D9BB263B1212A0AD1436AD2
:1036B000026813F8011B11614362438D013B9BB209
:1036C0004385D6E7438D9BB2002BD2D1212AD0D19E
:1036D0000268516821F4E0615160116841F40071A1
:1036E00011602022036380F83D2080F83E30FFF710
:1036F000AFFFBEE703685A69120644BF00221A6191
:10370000B7E7704770477047002337B546F2A811F6
:1037100001932C4B406A1B6890F83D20B3FBF1F3FA
:1037200023214B4301930368D2B2019941BB016C41
:1037300041F020010164446B0CB10021A162816B56
:1037400009B100258D621D6825F480651D60002586
:10375000458504B1656301B14D63196821F001012C
:10376000196090F83D10602911D1202380F83D3078
:10377000002380F83E300364FFF7C5FF03B030BD7F
:1037800001990139019119688905CED4D3E702F076
:103790002802282A0ED1196841F001011960196820
:1037A00041F4806119600023036380F83D20FFF736
:1037B000A9FFE3E7202380F83D30002380F83E3066
:1037C000F5E700BF3400002010B590F83D2090F8D8
:1037D0003E300446102BD9B2D2B2036801D0402942
:1037E00013D1222A11D1196821F400611960596896
:1037F00011F4006106D1602A1EBF202284F83D200A
:1038000084F83E100022226307E002F028012829F4
:10381000EDD10022226384F83D105A6812F4006250
:103820004FD05A68606B22F400625A6090F82130E1
:10383000012B374B2BD04363FFF726FC50B1226896
:10384000606B136823F001031360202384F83D307C
:10385000436B9847236C19071FBF2268536823F4F2
:10386000E063536094F83D30226CDBB252070DD513
:10387000282B0BD1274B2022E36200232046236311
:1038800084F83D2084F83E30FFF7E1FE10BDA06BC8
:103890004363FFF7F9FB0028DCD023685A6951061F
:1038A00005D51A69636A1A70636A01336362226814
:1038B000A06B136823F001031360202384F83D30CC
:1038C000C6E794F83D10602915D1202184F83D10F9
:1038D00022645A69520605D51A69636A1A70636AC6
:1038E0000133636222682046136823F001031360EA
:1038F000FFF709FFAEE75A69500605D51A69636AF2
:103900001A70636A013363622046FFF7FBFEA1E78A
:10391000093700080000FFFFF0B5044603688FB0C8
:103920005A68C66A90F83E0094F83D101028C5B257
:10393000C9B202D0402D40F0E5829F69586910F06D
:10394000010F07D1B6F52A0F02D0B6F12A4F51D197
:103950000FB0F0BD96054DD5E26AB2F52A0F0CD135
:103960000122E26294F83E20402A11D1226D52B920
:10397000626C02F0FE021A61EAE7E26AB2F12A4FD3
:10398000F0D10822EDE7626C42F00102D2B2F2E718
:103990002269B2F5804F1AD194F83D20212A626C39
:1039A00011D102F0FE021A61626B0AB1926A2AB961
:1039B000A26B002ACCD0926A002AC9D05A6842F47D
:1039C00000625A60C4E742F00102D2B2EBE7226D16
:1039D00032B9626CD21102F0060242F0F002CAE77C
:1039E000226D012AB4D1626CD21102F0060242F0BB
:1039F000F102C0E7060703D5960501D5626CE4E73E
:103A0000860740F1F080960540F1ED8094F83E1075
:103A1000E26A256B94F83D00C9B2222840F0DB80B1
:103A2000206D40B9402906D100905A6900929B69E7
:103A30000093009B8CE7216D89B92069B0F5404F58
:103A40000DD101915A6901929A690192019A1A68FD
:103A500042F480721A60236D0133236578E7618D2B
:103A600089B251B902915A6902929A690292029AF4
:103A70001A6842F400721A6019E0618D89B2012956
:103A800049D112F5803F1BD11A6822F480621A6076
:103A90005A6812F400620CD01A6822F480621A602C
:103AA000002203925A6903929B690393039B0023AC
:103AB000D3E704925A6904929A690492049AD7E768
:103AC000082A1CD0202A1AD0122D0DD1012A16D175
:103AD0001A6822F480621A60002205925A690592DF
:103AE0009B690593059BE2E7102AF1D8864941FAC4
:103AF00002F2D707ECD41A6842F48062EBE71A6846
:103B000022F480621A60002206925A6906929A692B
:103B10000692069AACE7618D89B2022938D1102A43
:103B200003D87A49D140CE0718D4196841F400610E
:103B300019600021079159690791996907910799BF
:103B4000196821F48061196059680D05AFD5202AE4
:103B50001BD8072A0ED8012AA9D111E0196841F40F
:103B6000806119600021089159690891996908914B
:103B70000899E9E7A2F10801654ACA40D00796D53D
:103B80005A6842F480525A6091E712F5803FE3E7A9
:103B9000196841F4806119605968090510D5202A17
:103BA00016D8072A06D8012A0AD15A6842F4805248
:103BB0005A6005E0A2F10801554ACA40D207F4D480
:103BC000002209925A6909929B690993099B6EE741
:103BD00012F5803FE8E700220A925A690A929B692F
:103BE0000A930A9BB4E67F0740F194805E6836052D
:103BF0003FF5AEAE070600F004063ED550053CD5B5
:103C0000002E3DD194F83D20258D94F83E10D2B27F
:103C1000E06AC9B2C5B9212A18D1082858D020288D
:103C200056D010F5803F53D05A6822F4E0625A60B3
:103C300011232363002384F83E302023204684F898
:103C40003D30FFF7FFFC83E6212A05D040297FF4B1
:103C50007FAE222A7FF47CAE628D92B21AB95A6886
:103C600022F48062ADE694F83E20402A16D1204628
:103C70000FB0BDE8F040FFF7ECBC002E3FF468AE9B
:103C800097057FF565AE212939D1E16A94F83D2089
:103C9000212A7FF45DAE628D92B24AB1626A12F857
:103CA000011B19616262638D013B9BB263854FE624
:103CB00008290DD020290BD011F5803F08D0596874
:103CC00021F4E06159601123236384F83E20B4E7B6
:103CD0005A68204622F4E0625A601A6842F4007280
:103CE0001A6000232022236384F83D2094F83E20AC
:103CF00084F83E30402AA4D1FFF7AAFC28E6402DE4
:103D00007FF426AEB3E700BFEBFFFEFF1400010017
:103D10000101000159680E053FF51AAE450600F095
:103D2000040140F18680500540F18380002940F075
:103D3000838094F83D20222A7FF40AAEE06A628DE7
:103D400092B2032A14D91A69636A1A70636A01333A
:103D50006362638D013B9BB26385638D9BB2032BD2
:103D60007FF4F6AD2268536823F480635360EFE577
:103D7000E56A022D3FF473AF012A3FF670AF0B9155
:103D800046F2A811784A1268B2FBF1F202EB820205
:103D90000B920B9A013A0B920B99D1B9226C2046E7
:103DA00042F0200222645A6822F4E0625A601A69E2
:103DB000636A1A70636A01336362638D013B9BB26D
:103DC0006385202384F83D3084F83E10FFF79AFC89
:103DD000BEE51A6812F40072DBD1196821F4806123
:103DE0001960596821F4E06159601969636A1970B2
:103DF000636A01336362638D013B9BB26385202359
:103E000084F83D3094F83E3084F83E20402B04D1B5
:103E100022632046FFF775FC9AE5082801D0202888
:103E200001D1002300E0122320462363FFF70BFC9F
:103E30008EE500293FF48CAD92057FF589ADE26AED
:103E4000608D616A80B2042809D15A6822F48062C8
:103E50005A601B690B70636A0133636223E7608DEC
:103E600080B203280CD15868042A20F4806058607E
:103E7000EFD0022AEDD01A6822F480621A60E8E7D7
:103E8000608D80B20228E4D1042A33D007D8012AF9
:103E900007D0022A2ED0186840F4007004E0102ADF
:103EA000F9D1186820F4806018601B690B70616A92
:103EB0004B1C6362638D013B9BB2638523681B6966
:103EC0004B70636A216801336362638D013B9BB26F
:103ED00063854B6823F440734B60202384F83D30A6
:103EE00094F83E30402B4FF0000384F83E3005D16B
:103EF00023638EE7186840F48060D5E7082A90D0E5
:103F0000202A8DE7206C10B30025586987072DD52E
:103F100096052BD5226C02B19D6994F83D2002F0E4
:103F20002802282A16D15A682F0622F480625A6085
:103F30004FF0000385F00401204654BFA289228B74
:103F4000C1F3800184F83C30FFF780FB00E59D69F8
:103F50005869DBE700220C9259690C919B6984F83F
:103F60003C200C930C9BF3E434000020C60640F187
:103F7000B180950540F1AE8094F83D505A68EDB29D
:103F800022F4E0625A6000220D925A690D921A687A
:103F900042F001021A600D9A1A6822F480621A60D7
:103FA0005A68100520D505F0F702222A4AD1A06BE5
:103FB0000268526892B26285628D92B21AB1226C26
:103FC00042F0040222645A6822F400625A60FFF749
:103FD00035F9012808D0A06B794B4363FFF754F8FB
:103FE00010B1A06B436B9847638D9BB213B32368EA
:103FF0005A69510709D51A69636A1A70636A0133ED
:104000006362638D013B9BB2638523685A695206E4
:1040100009D51A69636A1A70636A01336362638D32
:10402000013B9BB26385638D9BB21BB1236C43F054
:1040300004032364236C13B320460FB0BDE8F040A3
:10404000FFF7C2BB606B0268526892B26285628DF4
:1040500092B21AB1226C42F0040222645A6822F42D
:1040600000625A60FFF7EAF80128BDD0606B544B3C
:104070004363FFF709F80028B6D0606BB2E72A2D3A
:1040800006D123632823204684F83D30FFF7DDFA6C
:1040900094F83D30282B0CD14A4B2022E3620023B8
:1040A0002046236384F83D2084F83E30FFF7CFFAA2
:1040B0004EE4236B222B02D0222D7FF449AC002347
:1040C0002022236384F83D2084F83E302046FFF709
:1040D000BCFA3DE401F0F701212900F0040535D1D7
:1040E000070627D5560525D53DBB94F83D00628DC2
:1040F000C0B292B2002A3FF42BAC626A12F8015BA4
:104100001D616262628D013A92B26285628D92B2E5
:10411000002A7FF41DAC29287FF41AAC5A68204687
:1041200022F480625A602823216384F83D30FFF72F
:104130008BFA0DE4002D3FF40BAC95057FF508AC30
:10414000628D92B2002A3FF403ACA7E5400627D562
:10415000510525D53DBB94F83D20618DD2B289B281
:1041600000293FF4F5AB1969636A1970636A01337A
:104170006362638D013B9BB26385638D9BB2002BB1
:104180007FF4E6AB2A2A7FF4E3AB2268536823F47A
:104190008063536022232363282384F83D3095E70E
:1041A000002D3FF4D5AB92057FF5D2AB628D92B274
:1041B000002A3FF4CDAB1A69636A1A704BE600BF60
:1041C000093700080000FFFFF8B5036804465F697F
:1041D0005E6890F83E2017F48075D2B20AD016F4CB
:1041E000807507D06FF4807101255961196841F419
:1041F00000411960B80506D5F10542BF6FF40071A2
:1042000045F002055961780536D5F10534D5608D44
:1042100094F83D10202AD4F830C080B2C9B25FD1E2
:1042200000285DD101F0F700212804D0282957D1BA
:10423000BCF1210F54D194F83D20E16AD2B2082993
:1042400001D020292AD1282A28D12E4A2046E262EC
:104250005A6822F4E0625A606FF480625A611A6808
:1042600022F480621A6000232022236384F83D2018
:1042700084F83E30FFF7EBF93A053FD5F3053DD51D
:104280006FF40062236845F008055A61236C2046EC
:104290002B432364BDE8F840FFF796BA212A1BD1CF
:1042A0001849E16222630021202284F83D2084F82D
:1042B0003E105A6822F4E0625A606FF480625A61DC
:1042C0001A6822F480621A605A69100648BF1961A0
:1042D0002046FFF7B9F9CFE76FF480625A61CBE768
:1042E0006FF48061102A596145F0040501D0402A1D
:1042F000C2D11A6842F400721A60BDE7002DC5D120
:10430000F8BD00BF0000FFFF2DE9F341054638B3BB
:104310000368DB0710D42B689F075ED42B6819074E
:1043200000F195802B685A0700F1C180EB69002BE2
:1043300040F02C81002029E0904C636803F00C03CE
:10434000042B07D0636803F00C03082B0AD16368C1
:10435000DE0307D523689C03DDD56B68002BDAD11B
:10436000012013E06B68B3F5803F12D1236843F45A
:1043700080332360FEF780FD064623689803CAD485
:10438000FEF77AFD801B6428F7D9032002B0BDE850
:10439000F0819BB9236823F480332360236823F4DE
:1043A00080232360FEF768FD064623689903B2D593
:1043B000FEF762FD801B6428F7D9E6E7B3F5A02F6E
:1043C000236803D143F480232360CFE723F48033B1
:1043D0002360236823F48023CBE7684C636813F0E1
:1043E0000C0F07D0636803F00C03082B10D163682F
:1043F000DA030DD423689B0702D52B69012BAFD1BB
:1044000023686A6923F0F80343EAC203236085E75F
:104410002A695B4B6AB101221A60FEF72DFD064640
:1044200023689F07ECD4FEF727FD801B0228F7D9ED
:10443000ABE71A60FEF720FD0646236898077FF574
:104440006DAFFEF719FD801B0228F6D99DE7AA691A
:104450004A4E4B4BE2B10122C3F88024FEF70CFD1B
:104460000446736A9B070DD54FF4FA52454B1B68FF
:10447000B3FBF2F3019300BF019B5A1E0192002B84
:10448000F9D14FE7FEF7F8FC001B0228E9D97CE7D9
:10449000C3F88024FEF7F0FC0446736A9F077FF59B
:1044A00041AFFEF7E9FC001B0228F6D96DE7334C5B
:1044B000E369D80024D40127E36943F08053E36122
:1044C000E36903F080530093009B2F4E3368D905B6
:1044D00018D5EB68012B26D1236A43F00103236230
:1044E000FEF7CAFC41F288380646236A9B073FD58F
:1044F000002F3FF41BAFE36923F08053E36115E71E
:104500000027E2E7336843F480733360FEF7B4FCBE
:1045100080463368DA05DCD4FEF7AEFCA0EB080079
:104520006428F6D931E7ABB9236A41F2883823F021
:1045300001032362236A23F004032362FEF79CFC39
:104540000646236A9807D3D5FEF796FC801B4045A4
:10455000F7D91AE7052B236A03D143F0040323623A
:10456000BAE723F001032362236A23F00403B6E7CA
:10457000FEF782FC801B4045B7D906E700100240D9
:104580000000424234000020007000402A4C626863
:1045900002F00C02082A3ED00022022B274B1A669A
:1045A0002CD1FEF769FC06462368990120D42B6ABA
:1045B000B3F5803F05D16268A96822F400320A434E
:1045C0006260696A62680B4322F474121343012229
:1045D00063601A4B1A66FEF74FFC054623689A0182
:1045E0003FF5A8AEFEF748FC401B0228F6D9CCE602
:1045F000FEF742FC801B0228D6D9C6E6FEF73CFC3B
:10460000054623689B017FF595AEFEF735FC401B00
:104610000228F6D9B9E6012B3FF4A2AE60682B6AF6
:1046200000F480329A427FF49BAE6B6A00F4701003
:10463000C01A18BF0120A9E6001002400000424243
:104640000D4A536803F00C01082912D10B48C3F33B
:104650008341DB03405C09D55368094AC3F34043F7
:104660005043084AD35CB0FBF3F07047064B584305
:1046700070470348704700BF00100240067C0008E6
:1046800000127A00047C000800093D002DE9F04189
:104690000D46044610B90120BDE8F081444A136874
:1046A00003F007038B4228D321688E0730D4CA0752
:1046B00043D43F4A136803F00703AB4265D822682E
:1046C0003C4D12F0040F6CD1130706D56B682269BC
:1046D00023F4605343EAC2036B60FFF7B1FF6B68DA
:1046E000354AC3F30313D35CD840344B1860344BC2
:1046F0001868FEF77FFB0020CEE7136823F007035E
:104700000B431360136803F007038B42C3D1CBE75D
:10471000284B11F0040F1EBF5A6842F4E0625A6041
:10472000080742BF5A6842F460525A605A68A0684B
:1047300022F0F00202435A60B9E762681D4E012A76
:1047400033681AD113F4003FA5D0736841F288385A
:1047500023F0030313437360FEF78EFB0746736871
:10476000626803F00C03B3EB820FA2D0FEF784FB68
:10477000C01B4045F3D903208EE7022A02D113F073
:10478000007FE1E713F0020FDEE7136823F0070371
:104790002B431360136803F00703AB427FF47BAF36
:1047A0008DE76B68E16823F4E0630B436B608BE794
:1047B0000020024000100240F47B0008340000207A
:1047C0003C000020044B054A5B68C3F30223D35C22
:1047D000034A1068D840704700100240EC7B000884
:1047E00034000020044B054A5B68C3F3C223D35C4A
:1047F000034A1068D840704700100240EC7B000864
:1048000034000020036A026A70B522F001020262DD
:10481000446882690D6822F073022A438D6823F090
:1048200002032B430A4DA8420BD1CD6823F00803A5
:104830002B4324F44074D1E90556354323F0040397
:104840002C43446082614A684263036270BD00BFCA
:10485000002C0140036A026A70B522F48072026281
:104860004468C2690D6822F073022A438D6823F4FC
:10487000007343EA05230B4DA8420DD1CD6823F404
:10488000006343EA052324F44054D1E90556354337
:1048900023F4806344EA05144460C2614A68C26339
:1048A000036270BD002C0140036A026A30B522F435
:1048B000805202624468C2690D6822F4E64242EA0C
:1048C00005228D6823F4005343EA0533064DA842C0
:1048D00002BF4D6924F4804444EA85144460C261F7
:1048E0004A680264036230BD002C01407047704783
:1048F000704710B5446A626A82420DD10123237762
:1049000092691AB984F83E3084F842302046FCF7A8
:104910008DFC0023237710BDA36A83420AD10222B3
:1049200022779B69002BF1D1012384F83F3084F872
:104930004330EBE7E36A83420AD1042222779B6982
:10494000002BE3D1012384F8403084F84430DDE7C4
:10495000236B8342DAD1082222779B69002BD5D1C1
:10496000012384F8413084F84530CFE710B5446A1C
:10497000636A834207D1012323772046FCF74AFC70
:104980000023237710BDA36A834201D10223F3E7FA
:10499000E36A834201D10423EEE7236B8342ECD127
:1049A0000823E9E770477047036870B5DD681E6942
:1049B0000446B1070DD5AA070BD56FF002021A61A4
:1049C000012202779B699B0769D0FCF72FFC00232B
:1049D0002377710710D56A070ED56FF0040223689C
:1049E00020461A61022222779B6913F4407F5CD033
:1049F000FCF71CFC0023237733070FD528070DD5C0
:104A00006FF00802236820461A6104222277DB69CE
:104A1000990750D0FCF70AFC00232377F20610D543
:104A2000EB060ED56FF01002236820461A610822AB
:104A30002277DB6913F4407F43D0FCF7F7FB0023B8
:104A40002377F00708D5E90706D56FF00102236840
:104A500020461A61FFF74BFF320608D52B0606D514
:104A60006FF08002236820461A6100F0B8FC7006DF
:104A700008D5690606D56FF04002236820461A6102
:104A8000FFF791FFB20622D5AB0620D56FF02002CA
:104A900023682046BDE870401A6100F09FBCFFF714
:104AA00027FF2046FFF77EFF91E7FFF721FF204613
:104AB000FFF778FF9EE7FFF71BFF2046FFF772FF27
:104AC000AAE7FFF715FF2046FFF76CFFB7E770BDB9
:104AD000704710B5446A636A834209D10123237782
:104AE00084F83E302046FFF7F3FF0023237710BD04
:104AF000A36A834205D102232377012384F83F3040
:104B0000F0E7E36A83424FF0010304D1042284F802
:104B100040302277E6E7226B824203BF082284F806
:104B20004130227784F83D30DCE70000174A036803
:104B300090420AD0B0F1804F07D0A2F59432904253
:104B400003D002F58062904207D14A6823F07003D7
:104B50001343CA6823F4407313434A6923F0800364
:104B6000134303608B68C3620B688362074B9842F0
:104B700004BF0B690363012343610369DB0742BF81
:104B8000036923F001030361704700BF002C01405B
:104B900010B5044630B390F83D3003F0FF021BB966
:104BA00080F83C20FDF78EFF0223206884F83D301A
:104BB000211DFFF7BBFF0123002084F8463084F855
:104BC0003E3084F83F3084F8403084F8413084F837
:104BD000423084F8433084F8443084F8453084F817
:104BE0003D3010BD0120FCE710B5044630B390F80D
:104BF0003D3003F0FF021BB980F83C20FFF776FE42
:104C00000223206884F83D30211DFFF78FFF012328
:104C1000002084F8463084F83E3084F83F3084F831
:104C2000403084F8413084F8423084F8433084F8CE
:104C3000443084F8453084F83D3010BD0120FCE755
:104C400010B5044630B390F83D3003F0FF021BB9B5
:104C500080F83C20FDF77EFF0223206884F83D3079
:104C6000211DFFF763FF0123002084F8463084F8FC
:104C70003E3084F83F3084F8403084F8413084F886
:104C8000423084F8433084F8443084F8453084F866
:104C90003D3010BD0120FCE7036A026A70B522F0C6
:104CA00010020262446882690D6822F4E64242EA18
:104CB00005228D6823F0200343EA05130B4DA8421B
:104CC0000DD1CD6823F0800343EA051324F440643A
:104CD000D1E90556354323F0400344EA8504446096
:104CE00082614A688263036270BD00BF002C01408C
:104CF00038B590F83C300446012B4FD00120082AEB
:104D000084F83C003AD006D8BAB1042A26D0002351
:104D100084F83C3038BD0C2AF9D12068FFF7C4FD77
:104D2000C3690A6943F40063C361C36923F4806300
:104D3000C361C36943EA02232EE02068FFF762FDE6
:104D400083690A6943F008038361836923F00403DC
:104D500083618369134383610020D8E72068FFF7EC
:104D60009BFF83690A6943F400638361836923F4C9
:104D700080638361836943EA0223ECE72068FFF7DD
:104D800069FDC3690A6943F00803C361C36923F07D
:104D90000403C361C3691343C361DDE70220B9E7BC
:104DA00070B5056A046A114E24F001040462B04231
:104DB000846916D0B0F1804F13D0A6F59436B04276
:104DC0000FD006F58066B0420BD044F0010263F3C9
:104DD000071201F00A0125F00A03194382610162FA
:104DE00070BD24F003042243F1E700BF002C014012
:104DF000F8B590F83C300546012B0C4600F0818058
:104E00000120082A85F83C005BD006D842B3042A6A
:104E100035D0002385F83C30F8BD0C2AF9D1D1E912
:104E200000272B68CE68186A196A120321F4805192
:104E30001962D96920F4005021F4407141EA072138
:104E400002F4005266F30F310243D9611A62DA6943
:104E5000A16822F44062DA61DA6942EA01224EE096
:104E60002868CB6806C9FFF79BFF8369A26823F017
:104E70000C0383618369134383610020C9E72B68B6
:104E8000D1E90027186ACE68196A120121F01001D1
:104E90001962996920F0A00021F4407141EA0721CC
:104EA00002F0A00266F30F31024399611A629A6917
:104EB000A16822F440629A619A6942EA01229A61E9
:104EC000DBE72B68D1E90021186A1E6AE76826F43F
:104ED00080761E62DE69120226F00306314320F45A
:104EE000007002F4007267F307110243D9611A627D
:104EF000DA69A16822F00C02DA61DA690A43DA6140
:104F0000BBE7022088E710B584680A4324F47F4495
:104F100042EA03222243826010BD38B590F83C304B
:104F20000446012B4FF0020000F08E80012284F82D
:104F30003D00206884F83C20836823F47F4323F0FD
:104F4000770383600B68602B4FD032D8402B64D03E
:104F500016D8202B0DD00AD833F0100109D0012328
:104F600084F83D30002384F83C30104638BD302BA7
:104F7000F5D1826822F07002134343F0070328E062
:104F8000502BECD14A68CD68016A036A21F00A010E
:104F900023F00103036283690A4323F0F00343EA29
:104FA000051383610262836823F0700343F05703A3
:104FB0000FE0B3F5805F0DD0B3F5005F0CD0702B20
:104FC000CDD1CB68D1E90121FFF79DFF836843F084
:104FD000770383600022C2E7CB68D1E90121FFF7A4
:104FE00092FF836843F48043F3E7036A026A4D68E3
:104FF00022F01002C9680262826923F0A00322F441
:10500000704243EA051342EA013282610362836817
:1050100023F0700343F06703DBE74A68CD68016A59
:10502000036A21F00A0123F00103036283690A4342
:1050300023F0F00343EA051383610262836823F0DF
:10504000700343F04703C4E702468EE710B501241E
:10505000036A01F01F018C4023EA04030362036A20
:105060008A401A43026210BD08B529B990F83E3053
:10507000012B1DD001202EE0042907D190F83F30EC
:10508000012BF7D1022380F83F3014E0082907D123
:1050900090F84030012BEDD1022380F840300AE037
:1050A00090F84130012BE5D1022380F8413002E035
:1050B000022380F83E3000680122FFF7C7FF0F4B44
:1050C000984209D0B0F1804F0BD1836803F00703F9
:1050D000062B0DD1002008BD436C43F4004343640C
:1050E000F3E7074B9842F0D003F580639842ECD089
:1050F000036843F001030360ECE700BF002C0140AC
:1051000000040040FFF7B0BF38B500220446006835
:105110000D46FFF79BFF184B98420DD141F211133A
:10512000026A1A4208D140F24443026A1A4202BF9C
:10513000436C23F40043436441F21113026A1A42A0
:1051400008D140F24443026A1A4202BF036823F0C6
:105150000103036001231DB984F83E30002038BDEF
:10516000042D02D184F83F30F8E7082D0CBF84F8F5
:10517000403084F84130F1E7002C0140FFF7C4BF14
:105180002DE9F843044616461F46884671B990F843
:105190003E0094F84250C0B20228EDB204D0022D75
:1051A0004DD0012818D00120BDE8F883042905D18D
:1051B00090F83F0094F84350C0B2EDE708290BBFC8
:1051C00090F8400094F8410094F8445094F8455009
:1051D0000CBFC0B2C0B2DFE7012DE4D1002EE2D097
:1051E000002FE0D00223B8F1000F2AD184F83E301E
:1051F00084F84230D4F80090012241464846FFF737
:1052000025FFB8F1080F73D02FD8B8F1000F43D0A5
:10521000B8F1040F57D02368424A93420AD0B3F141
:10522000804F07D0A2F59432934203D002F58062FA
:10523000934272D19A6802F00702062A6DD128467D
:10524000B2E7B8F1040F04D184F83F3084F843305A
:10525000D0E7B8F1080F0BBF84F8403084F8413034
:1052600084F8443084F84530C4E7B8F10C0FD2D14B
:10527000206B2D4B324683622C4B09F14001C362F7
:105280002B4B03633B46FDF7A3FE00288BD122681E
:10529000D36843F4805313E0606A234B3246836241
:1052A000224B09F13401C362214B03633B46FDF7F6
:1052B0008FFE00287FF477AF2268D36843F4007331
:1052C0000025D360A7E7A06A174B32468362174BCD
:1052D00009F13801C362164B03633B46FDF778FEC4
:1052E00000287FF460AF2268D36843F48063E7E767
:1052F000E06A0D4B324683620C4B09F13C01C362FC
:105300000B4B03633B46FDF763FE00287FF44BAF76
:105310002268D36843F40063D2E71A6842F00102BE
:105320001A608CE7002C0140F34800086D49000822
:10533000D34A000830B590F83C300246012B4FF0BC
:10534000020022D0136882F83D005C680D6824F0EA
:1053500070042C4398685C600C4CA3420AD0B3F1F3
:10536000804F07D0A4F59434A34203D004F58064A1
:10537000A34204D1496820F08000014399600123D1
:10538000002082F83D3082F83C0030BD002C014006
:1053900090F83C300246012B1ED0CB68886823F47D
:1053A00040730343486823F480630343086823F48D
:1053B00000630343086923F480530343486923F4DB
:1053C000005303430020C96923F480430B43116851
:1053D0004B6482F83C00704702207047704770476A
:1053E000026802F10C0353E8003F23F490730C327F
:1053F00042E8003102680029F2D102F1140353E8B7
:10540000003F23F0010302F1140C4CE800310029A5
:10541000F3D1036B012B0BD102F10C0353E8003FD6
:1054200023F0100302F10C0C4CE800310029F3D1F9
:10543000202380F8423000230363704710B50446F0
:105440000368C1681A6922F440520A431A618268EB
:105450000069D9680243606921F4B05121F00C0160
:1054600002430A43DA605A69A16922F440720A438E
:105470005A610E4A934215D1FFF7B4F919234343F9
:10548000626820689200B3FBF2F36422B3FBF2F18E
:1054900002FB11331B013233B3FBF2F303EB0113B5
:1054A000836010BDFFF78EF9E8E700BF00380140C8
:1054B000F7B505460C4617461E462A68136834EAB7
:1054C000030301D1002021E0701CF7D0FDF7D4FCCC
:1054D000C01B86421CD3DEB12B68DA685107ECD5BD
:1054E000802CEAD0402CE8D01A681207E5D50024B9
:1054F00001941A68284601925B680193019BFFF7AB
:105500006FFF082301206B6485F8404003B0F0BDB5
:105510000320FBE710B5044648B390F8413003F090
:10552000FF021BB980F84020FDF79EFB2423226870
:1055300084F84130D368204623F40053D360FFF74A
:105540007DFF236800201A6922F490421A615A698B
:1055500022F02A025A61DA6842F40052DA6020230B
:10556000606484F8413084F84230606310BD0120EB
:10557000FCE710B50446A0B12423026880F841304E
:10558000D36823F40053D360FDF7B0FB00206064C0
:1055900084F8400084F8410084F84200206360638E
:1055A00010BD0120FCE72DE9F843984690F8413002
:1055B0000446202B0E4617463FD100293FD0002A33
:1055C0003DD021230025456480F84130FDF754FC8F
:1055D000A3688146B3F5805FA784E78403D123697C
:1055E0000BB935461E46E38C9BB253B943464A4637
:1055F00040212046FFF75CFF202350B984F841305A
:105600000AE043464A4680212046FFF751FF28B171
:105610002023032084F84130BDE8F88322684EB986
:1056200035F8023BC3F308035360E18C013989B2BA
:10563000E184D8E716F8013BF6E70220ECE7012009
:10564000EAE710B50446226802F10C0353E8003F74
:1056500023F4F0730C3242E8003123680029F2D1C0
:1056600003F1140252E8002F22F0010203F11400AA
:1056700040E800210029F3D1226B012A0BD103F16C
:105680000C0252E8002F22F0100203F10C0040E857
:1056900000210029F3D15A6912061AD503F1140228
:1056A00052E8002F22F0800203F1140040E80021AC
:1056B0000029F3D1A06B60B14163FDF7C5FC40B197
:1056C000A06BFDF7BEFD202803D1102303206364E7
:1056D00010BD226853695B0616D502F1140353E826
:1056E000003F23F0400302F1140040E8003100299C
:1056F000F3D1E06B40B14163FDF7A6FC20B1E06B54
:10570000FDF79FFD2028E0D000202023E084E085E5
:10571000606484F8423084F841302063D8E77047F1
:1057200008B50023406AC385C384FCF781FC08BD2B
:10573000704790F8423007B5222B42D18168026849
:10574000B1F5805F836A3FD1016900293FD152687A
:10575000C2F3080223F8022B8362C38D013B9BB284
:10576000C385002B2DD10268D16821F02001D160C2
:10577000D16821F48071D160516921F0010151613A
:10578000202280F842204363026B012A026828D15C
:10579000036302F10C0353E8003F23F0100302F10E
:1057A0000C0C4CE800310029F3D11368DB0605D559
:1057B00001911368019353680193019B818DFFF759
:1057C000B7FF03B05DF804FB39B9016929B9526824
:1057D000D2B21A70836A0133BEE7526802F07F02C8
:1057E000F7E7FCF7D9FBECE7036873B51A680446E2
:1057F0001607D9685D6908D1960668D58D0666D505
:1058000002B0BDE87040FFF794BF05F0010001F45D
:10581000907505435BD0D60705D5CD0542BF636CB7
:1058200043F001036364530704D518B1636C43F07C
:1058300002036364960704D518B1636C43F0040354
:105840006364150707D501F0200303431EBF636C93
:1058500043F008036364636C002B32D0920604D5D6
:105860008B0602D52046FFF764FF26682046736941
:10587000626C03F0400302F0080253EA020522D0F2
:10588000FFF7AEFD73695E0618D5226802F11403B6
:1058900053E8003F23F04003143242E8003100296E
:1058A000F3D1E06B50B1744B4363FDF7EDFB40B1B6
:1058B000E06B436B02B0BDE8704018472046FCF730
:1058C000B7FB02B070BDFCF7B3FB6564F9E7206B72
:1058D000012840F09480D50640F19180C80640F13F
:1058E0008E80002201921A6801925A680192019AF0
:1058F0005A6952064DD5E16B0A68526892B2002A85
:10590000DFD0A08D9042DCD9E2858A69202A36D08A
:1059100003F10C0252E8002F22F4807203F10C0014
:1059200040E800210029F3D103F1140252E8002FCE
:1059300022F0010203F1140040E800210029F3D114
:1059400003F1140252E8002F22F0400203F1140088
:1059500040E800210029F3D1202284F8422021636D
:1059600003F10C0252E8002F22F0100203F10C00A8
:1059700040E800210029F3D1E06BFDF765FB02232D
:105980006363E38DA18DC91A89B22046FFF7D0FE6B
:1059900097E7E28DE08DA18D80B292B2002890D081
:1059A000891A89B200298CD003F10C0252E8002F29
:1059B00022F4907203F10C0545E800200028F3D191
:1059C00003F1140252E8002F22F0010203F1140542
:1059D00045E800200028F3D1202284F842202063EB
:1059E00003F10C0252E8002F22F0100203F10C0523
:1059F00045E800200028F3D102236363C5E71606BB
:105A000028D50D0626D594F84120212A7FF459AFD8
:105A1000A168226AB1F5805F17D12169A9B932F86E
:105A2000021BC1F3080159602262E28C013A92B272
:105A3000E284002A7FF445AFDA6822F08002DA605F
:105A4000DA6842F04002DA603BE7511C21621278CA
:105A50005A60EAE750067FF534AF4A067FF531AF6A
:105A6000DA68204622F04002DA60202384F84130D0
:105A7000FFF755FE25E700BF215700080023C28528
:105A8000436422238285026980F842308162036880
:105A90001AB1DA6842F48072DA605A69002042F082
:105AA00001025A61DA6842F02002DA60704770B48D
:105AB00090F84260202E06D141B13AB1002404632F
:105AC00070BCFFF7DBBF022070BC70470120FBE712
:105AD000EFF305832BB9064B186828B901221A6029
